:100000000C9434000C9451000C9451000C94510049
:100010000C9451000C9451000C9451000C94100E4F
:100020000C9451000C9451000C9451000C9451000C
:100030000C9451000C9451000C9451000C945100FC
:100040000C9451000C9451000C943A0D0C945100F6
:100050000C9451000C9451000C9451000C945100DC
:100060000C9451000C94510011241FBECFEFD4E02A
:10007000DEBFCDBF11E0A0E0B1E0E0E7F0E202C0FA
:1000800005900D92A030B107D9F714E0A0E0B1E0DF
:1000900001C01D92A033B107E1F70E9453000C94F8
:1000A00037100C940000CFEFD4E0DEBFCDBF0E942C
:1000B000270D0E94300E0E94180A0E94AD010E9476
:1000C00026020E940E01FFCF80E090E00895DC013F
:1000D000BF77062E0E942B100895CF93DF93CDB7E4
:1000E000DEB724970FB6F894DEBF0FBECDBFFE017A
:1000F0003196DC01BF7784E0182E0E9426106981BA
:100100007A818B819C8124960FB6F894DEBF0FBE56
:10011000CDBFDF91CF910895CF93DF93CDB7DEB7F9
:1001200022970FB6F894DEBF0FBECDBFFE01319609
:10013000DC01BF7782E0182E0E94261089819A8107
:1001400022960FB6F894DEBF0FBECDBFDF91CF91E0
:100150000895EF92FF920F931F938C0190E0E92E88
:1001600090E0F92EC7010A960E948C00E80EF91E55
:10017000000F111FC701800F911F0E948C008E0D70
:100180009F1D1F910F91FF90EF900895EF92FF92A6
:100190000F931F938C0140E0E42E40E0F42EC70142
:1001A0000C960E948C0033E0000F111F3A95E1F786
:1001B000080F191FC8018E0D9F1D1F910F91FF90F1
:1001C000EF900895CF93DF93CDB7DEB721970FB6A9
:1001D000F894DEBF0FBECDBFDC01BF7781E0FE012A
:1001E0003196182E0E9426108981992721960FB6E4
:1001F000F894DEBF0FBECDBFDF91CF9108958EE0A2
:1002000090E00E94E200992708959927880F991F8E
:10021000805F9F4F0E94E20099270895EF92FF921E
:100220001F93CF93DF93EE24FF2410C0C12FDD274F
:10023000CE010E94C60004960E94E20080FF03C027
:10024000CE010E9431020894E11CF11C1E2D85E0B4
:1002500090E00E94E200E81648F386E090E00E94F9
:100260008C000E943102DF91CF911F91FF90EF909F
:100270000895CF93DF93DB01BF77EA01FC0121975B
:1002800024F00E941E100192FACFDF91CF910895C1
:10029000CF92DF92EF92FF920F931F93CF93DF9352
:1002A000CDB7DEB728970FB6F894DEBF0FBECDBF2F
:1002B000C82ED62EEE24FF2420C0012F1127C801FE
:1002C0000E94C60048E050E0BC01CE0101960E94A9
:1002D00039014B815C81252F33278C2D99272817D5
:1002E000390741F450708D2D99274817590711F49B
:1002F000C8010CC00894E11CF11C1E2D85E090E0A3
:100300000E94E200E816C8F28FEF90E028960FB640
:10031000F894DEBF0FBECDBFDF91CF911F910F913B
:10032000FF90EF90DF90CF9008950F931F93182FB9
:10033000062F602F812F0E9448018F3F51F4812F9B
:100340009927880F991F815F9F4F0E94E200182F05
:10035000F0CF99271F910F9108950F931F9380E07D
:1003600090E00E946D009B01AC015E6B6373707046
:1003700080709E7B621773078407950711F08AE0EF
:1003800007C084E090E00E94E200823031F08BE010
:100390000E94ED0980E090E013C08AE090E00E94A6
:1003A0008C008C0188E090E00E948C00081B190BE7
:1003B000169507951695079500930B0181E090E03F
:1003C0001F910F91089596FD906808951F93CF9304
:1003D000DF93EC01892F992780319105B0F40E94B9
:1003E00005019927880F991F0296BC0181E00E94A0
:1003F0003C09182F992790680E943E0C812F0E947B
:10040000EF07FC01D183C08303C0CE010E947B0FA4
:10041000DF91CF911F910895CF93DF93EC0197FD6A
:1004200003C08CE00E94ED09CE018070907C80506A
:10043000904821F48C2F0E94EF0705C0CE019F73D6
:100440000E94A9009068DF91CF9108950E94500703
:100450000E94FF000E94FC0C80E090E00E943E0C95
:1004600008952F923F924F925F926F927F929F9248
:10047000AF92BF92CF92DF92EF92FF920F931F93B2
:10048000CF93DF93CDB7DEB72C970FB6F894DEBFCE
:100490000FBECDBF9C878B870E94C6009A87898735
:1004A00048E050E0BC01CE0101960E94390169800C
:1004B0007A8089859A85680E791E8F812885820FBA
:1004C000912D911D2E81820F911D880F991F0E94E1
:1004D00084080E94730C029690930D0180930C0186
:1004E0008F810E94630C0E941E0D44245524C30179
:1004F0000E94E200982EC30101960E94E200382E6D
:10050000C30102960E94E200282E992009F4E5C357
:1005100090E1991629F4832D992787FD909591C331
:10052000E1E19E1619F4C1019F7765C3892D8250C0
:10053000873020F4892D9927039753C1F6E39F163E
:1005400091F4032D112707FD1095000F111F8091C5
:100550000C0190910D01080F191F0E944B0CF8011E
:100560009183808370C3892D8B53843090F4092D3F
:100570001127000F111F80910C0190910D01080FA0
:10058000191F065710400E944B0CF801918380837D
:100590003AC1F5E19F1679F4E32DFF27E7FDF095C9
:1005A000EE0FFF1F80910C0190910D01E80FF91FD4
:1005B0008081918146C3892D8A51843070F4E92D60
:1005C000FF27EE0FFF1F80910C0190910D01E80FA6
:1005D000F91FF4978081918104C1892D89598C304C
:1005E00008F050C0863028F486E0980E00E010E055
:1005F00003C00E94EE0C8C010E94EE0C2C0191EACB
:100600009916F1F0991538F0EFE99E1669F0F0EAC5
:100610009F1681F50FC083EA9816F1F09816B0F096
:1006200094EA991639F51EC080E090E04016510614
:1006300001F51DC080E090E040165106D1F017C0D2
:1006400080E090E040165106A4F411C080E090E0F4
:100650004016510674F00BC080E090E004151505BB
:1006600044F405C080E090E00415150514F081E025
:1006700090E02C014114510409F431C3620C731C45
:1006800080E02EC3E7EA9E1639F4620C731C8DEFEE
:100690009FEF680E791E33C3892D8056853208F08E
:1006A000A3C094E7991649F40E94EE0C4424552403
:1006B000481A590AC2019F770AC3E4E89E16D1F48A
:1006C000E32DFF27E7FDF095EE0FFF1F80910C0152
:1006D00090910D01E80FF91F2081318136FD3068BE
:1006E000822D992787FD9095280F391F3F773183F9
:1006F000208305C30E94EE0C2C010E94EE0C8C019D
:10070000F8E79F1609F44EC0F915A8F088E6981688
:1007100071F1891540F090E6991619F1E4E69E16FC
:1007200009F05DC021C0FCE69F1651F180E79816E4
:1007300009F055C031C09EE7991609F441C09915DA
:1007400040F0EAE79E16A9F1FCE79F1609F047C0C2
:1007500040C080E89816B9F192E8991609F03FC0B8
:1007600035C0040D151D3BC00419150938C0F8012A
:10077000E49D8001E59D100DF49D100D11242FC006
:100780004114510419F48EE00E94ED09C801B20130
:100790000E94CE0F8B0123C0C801B2010E94CE0F70
:1007A0008C011DC0042C02C0000F111F0A94E2F737
:1007B00016C0042C02C0159507950A94E2F70FC0E5
:1007C000042115210CC00429152909C0042515256B
:1007D00006C0042C02C0169507950A94E2F7C801DA
:1007E0009F770E943E0C0FC0FCEA9F1629F081EB18
:1007F000981609F044C003C00E944B0C2C010E94C3
:100800008E0C882311F081E06BC2DF8008850D0D0E
:100810000D5F8E81080F0E944B0C7C010E944B0CD7
:100820009C878B870E94C6009A87898748E050E0A2
:10083000BC01CE0101960E9439010E944B0C6984D3
:100840007A84680E791E8D2D81950E94630C0E941A
:10085000730CEE0CFF1C8E199F0990930D01809371
:100860000C011127C801880F991F0E94A8079CEA54
:10087000991609F043C2C2010E943E0C3FC2E8E54E
:100880009E1619F40E944B0C03C0F7E59F1619F44D
:100890000E944B0C22C289E5981611F480E009C031
:1008A0009CE5991649F481E00E94570C0E943E0C89
:1008B00081E00E94570C0BC2EAE59E1651F40E949B
:1008C0004B0C7C010E944B0C8C01C7010E943E0C1A
:1008D0005AC0FBE59F16A1F40E944B0C8C010E94AC
:1008E0004B0C7C010E944B0C6C01C8010E943E0C19
:1008F000C7010E943E0CC6010E943E0CC801E7C120
:100900008DE59816B9F40E944B0C8C010E944B0C9B
:100910006C010E944B0C7C01C8010E943E0CC60178
:100920000E943E0CC7010E943E0CC8010E943E0C72
:10093000C601CDC19EE59916E9F40E944B0C6C01ED
:100940000E944B0C5C010E944B0C8C010E944B0CD2
:100950007C01C6010E943E0CC5010E943E0CC801EC
:100960000E943E0CC7010E943E0CC6010E943E0C34
:10097000C501ADC1EFE59E1659F40E944B0C8C01E8
:100980000E944B0C7C01C8010E943E0CC7019FC114
:10099000FAEA9F1609F03FC0C30107960E94E200E1
:1009A000082FC30108960E94E2001127502E44240C
:1009B0009927482A592AC3010B960E94E200082F62
:1009C000C3010C960E94E200182F0E944B0C1C01E0
:1009D00084159505A4F0802F9927982F8827212F1B
:1009E0003327822B932B821593054CF0C101841978
:1009F0009509880F991F880F991F0F9602C083E0F1
:100A000090E08301080F191FC8010E94E200E82E40
:100A1000C80101963BC08BEA981609F042C0C30199
:100A200008960E94E200E82E0E94EE0C2C0129E0BC
:100A3000C22ED12C8301055F1F4F16C0C8010E9432
:100A4000E200252D332727FD3A95821731F4C8019E
:100A500001960E94E200841551F0EA94E8E0F0E08B
:100A6000CE0EDF1E085F1F4FEE2041F743C114E09A
:100A7000212E312C2C0C3D1C8301020D131DC801AD
:100A800002960E94E200E82EC80103960E94E2004E
:100A9000FF24FE2CEE249927E82AF92A6E0C7F1CED
:100AA00096C0F2EB9F1621F4C1010E94780CA3C0FE
:100AB00083EB981639F40E944B0CBC01C1010E94D3
:100AC000830C1DC192E1991651F4832D992787FD5E
:100AD000909520910B01821B9109906CB2C0892DD9
:100AE000865B833008F079C0EFE0E3150CF471C049
:100AF000230189859A85481A590AC1010E94C600B6
:100B00009A87898748E050E0BC018E010F5F1F4F34
:100B1000C8010E94390196EB991609F580E00E9400
:100B2000570C0E94EF07FC018181282F33276B812E
:100B30007C81872F99272817390789F0822F0E94F7
:100B40009501282E992787FD90950E94C6009A87C7
:100B5000898748E050E0BC01C8010E9439018E81BC
:100B600081950E94630C0E94730C20910C013091BE
:100B70000D018C01021B130B159507950E94730C38
:100B8000029690930D0180930C018F812885820F2E
:100B9000912D911D2E81820F911D880F991F069610
:100BA0000E9484088F810E94630CC2010E943E0C47
:100BB0008B859C850E943E0CC8010E943E0C3C86A1
:100BC0002B8669807A8089859A85680E791E80E0F7
:100BD0008AC0C1010E94960F92C094EB991671F4DD
:100BE0000E944B0C0E94EF07F101EE0FFF1FE80F70
:100BF000F91F828193810E943E0C81C0E5EB9E1615
:100C000079F40E944B0C2C010E944B0C0E94EF07C0
:100C1000F101EE0FFF1FE80FF91F538242826FC0F0
:100C2000FBEB9F1621F4C1010E94E60168C08CEB2A
:100C3000981659F40E944B0C632D0E94CD099927F8
:100C400090680E943E0C82E04EC09EEB991629F4FB
:100C50000E944B0C0E94B5093AC0E4E59E1669F467
:100C60000E94EE0C8C010E94EE0C2C010E944B0C99
:100C7000402FB2010E94900930C0FFE49F1669F432
:100C80000E94EE0C8C010E94EE0C2C010E944B0C79
:100C9000A801B2010E946D0920C083E3981661F497
:100CA0000E94EE0C2C010E944B0CB2010E948109A3
:100CB000992787FD90950BC09EE2991659F40E94E2
:100CC000EE0C2C010E944B0CB2010E945E090E94A6
:100CD0003E0C03C08DE00E94ED0981E004C083E07A
:100CE000ECEA9E1671F0680E711CF1EB9F1609F08C
:100CF000FECB07C051E0252E312CBECE992483E0D7
:100D0000F2CF8F8181950E94630C8F812885820F9D
:100D1000912D911D2E81820F911D880F991F0E9488
:100D2000A8072C960FB6F894DEBF0FBECDBFDF919B
:100D3000CF911F910F91FF90EF90DF90CF90BF90D8
:100D4000AF909F907F906F905F904F903F902F90CB
:100D500008958EE091E00895FB01DC01A40FB51F1A
:100D6000E40FF51F02C082918E93415050408FEFE7
:100D70004F3F5807C1F70895582F609100017091B7
:100D8000010114C0FB01E25FFE4F80818517A1F0D5
:100D9000218126954281342F379533273795832F2C
:100DA000822B942F96950396680F791F83E060300D
:100DB000780740F3E0E0F0E0CF0108951F9311E0E1
:100DC000812F0E94BC06892B19F4812F992704C01A
:100DD0001F5FB1F780E090E01F910895EF92FF92BE
:100DE0000F931F93CF93DF93082F162FBA016D5FD8
:100DF0007F4FE0900001F0900101D701A25FBE4F4C
:100E0000ED013981232F26959A81892F879588278F
:100E10008795E82FE22BF92FF695E617F70718F4D8
:100E200080E090E036C0CF01861B970B282F220F61
:100E30003170322BFD013183292F220F881F882723
:100E4000881F822B82833695282F27952227279566
:100E5000E22FE32BF82FF695EE0DFF1DEF5EFE4F10
:100E60000083842F880F1170812B8183952F990F18
:100E7000842F881F8827881F892B8283339601C07F
:100E80001192415050408FEF4F3F5807C9F781E012
:100E900090E0DF91CF911F910F91FF90EF90089517
:100EA00010920E0180910F0181708A6F80930F0163
:100EB00085E0809310010895CF93DF93C82FDD273D
:100EC000D068609100017091010139C0DB01A25F1F
:100ED000BE4FFD01418140FF23C046953281232F43
:100EE000279522272795822F842B932F9695AC0147
:100EF0005695479520E030E00EC02F5F3F4FEE0F34
:100F0000FF1FEA0FFB1F838194818C179D0719F443
:100F100081E090E01AC0E22FFF27E417F50768F39D
:100F2000FD01218126954281342F3795332737954E
:100F3000832F822B942F96950396680F791FF3E0E9
:100F400060307F0718F280E090E0DF91CF91089544
:100F50000F931F93CF93DF938C01C0910001D09129
:100F60000101C25FDE4F8881882319F081E00E9471
:100F7000ED0980910001909101018017910718F40B
:100F800085E00E94ED09898186954A81942F979585
:100F900099279795292F282B342F3695E09100011A
:100FA000F0910101E01BF10BF0930101E0930001CE
:100FB000E25FFE4F1082200F311F922F990F818127
:100FC0008170892B8183832F880F221F2227221F64
:100FD000282B2283DF91CF911F910F910895CF93FA
:100FE000DF930E94BC06EC01892B19F483E00E9478
:100FF000ED09CE010396DF91CF910895CF93DF9352
:101000000E94BC06EC01892B19F483E00E94ED09D3
:10101000298126954A81342F379533273795832F99
:10102000822B942F9695DF91CF910895EF92FF92A6
:101030000F931F93CF93DF93009100011091010153
:1010400051C0E801C25FDE4F298126954A81342FC5
:10105000379533273795832F822B942F969523E04E
:10106000E22EF12CE80EF91E88818823C9F10E9436
:101070009F0C8823A9F588810E945C07882381F54D
:101080006091000170910101A801461B570BCB0133
:101090008E0D9F1D625F7E4F825F9E4F0E94AC0649
:1010A000E0910001F0910101E25FFE4F3181532F89
:1010B00056954281242F279522272795822F852B0D
:1010C000942F96958E0D9F1D282F220F3170322B55
:1010D0003183292F220F881F8827881F822B828324
:1010E0000E0D1F1D83E00030180708F4AACF005032
:1010F000134019F081E00E94ED09DF91CF911F911B
:101100000F91FF90EF900895CF92DF92EF92FF92B0
:101110000F931F93CF93DF937C01009100011091F7
:101120000101025F1E4FF8018081882319F081E0E0
:101130000E94ED09F801818186952281922F979571
:1011400099279795C82EC92AE6016E012695D22EB9
:10115000E601CE14DF04B8F40E941608F80181817C
:1011600086952281922F979599279795C82EC92AFF
:10117000E6016E012695D22EE601CE14DF0418F4A6
:1011800084E00E94ED09E0910001F0910101EE0D73
:10119000FF1DF0930101E0930001E25FFE4F10821A
:1011A000CE018E199F09382F330F21812170232BF7
:1011B0002183292F220F881F8827881F822B828353
:1011C000DF91CF911F910F91FF90EF90DF90CF9023
:1011D0000895FF920F931F93CF93DF93F82E8B0107
:1011E000E0910001F0910101E25FFE4F818186955F
:1011F0004281942F979599279795292F282B342F43
:101200003695CB0103962817390710F00E9416086F
:101210008F2D0E94BC06EC0169816170A8018F2DA1
:101220000E94EE06882319F482E00E94ED098F2DBA
:101230000E94BC06498146956A81562F57955527CD
:101240005795252F242B362F3695AE01DC012C0F18
:101250003D1F06C0FA018381FD0182834F5F5F4F0E
:10126000119642175307B1F78FEF8883DF91CF9123
:101270001F910F91FF9008950F931F93CF93DF93CA
:10128000082FEB010E94DE06182FAE01602F0E948E
:10129000EE06882361F40E941608AE01602F812FAC
:1012A0000E94EE06882319F482E00E94ED09812F46
:1012B0009927DF91CF911F910F9108950F931F935D
:1012C0008B010E94EF07000F111F080F191FF80173
:1012D000818192811F910F910895EF92FF920F9358
:1012E0001F938B017A010E94EF07000F111F080F57
:1012F000191FF801F282E1821F910F91FF90EF9088
:1013000008950F931F938B010E94EF07080F191F79
:10131000F8018181992787FD90951F910F9108957C
:10132000FF920F931F938B01F42E0E94EF07080F7B
:10133000191FF801F1821F910F91FF900895982FC6
:101340008450823060F0983051F0993059F09A30E2
:1013500049F086E00E94ED0980E090E0089581E088
:1013600090E0089582E090E00895EF92FF921F933D
:10137000182F0E94FE077C01812F0E94EF07FC01BD
:1013800080810E949F09682F7727C7010E94BA0FAA
:10139000CB011F91FF90EF900895FF920F931F9341
:1013A0008C01F62E862F0E949F099927089FB00175
:1013B000099F700D189F700D11246F5F7F4F80E0A3
:1013C0000E943C09182F0E94EF07FC01F082812F38
:1013D00099271F910F91FF9008951F93182F85E46F
:1013E0000E948D0D82E50E948D0D82E50E948D0D7B
:1013F0008AE30E948D0D812F8F5B0E948D0D8AE004
:101400000E948D0D5A9A289A81E19CE5A4E0B0E0F3
:1014100000000197A109B109D8F7289881E19CE55E
:10142000A4E0B0E000000197A109B109D8F7EACF24
:10143000AF92BF92DF92EF92FF920F931F93CF93E1
:10144000DF93CDB7DEB764970FB6F894DEBF0FBE5B
:10145000CDBF0E9464007C015A9A289A85E10E94BF
:10146000620D10E00BC080E090E00000019621E1E9
:101470008B3D9207D1F71F5F1A3F21F00E94590D53
:10148000882389F30E94590D882309F458C0570115
:1014900011E064E1CE0101960E94990D8431D1F5ED
:1014A00040E0FE0134969E012C5E3F4F8191480F33
:1014B000E217F307D9F789818130A9F5DA80D116CF
:1014C00091F52B8133278D2D809599272817390782
:1014D00051F58C89841739F5C5018E010C5F1F4FBA
:1014E0007C010894E11CF11CF80161918F010E94BC
:1014F0006700CE0144960817190711F0C701F0CF15
:1015000080E190E0A80EB91E86E00E94620D1D2DBC
:101510001F5F0CC0882321F486E00E94620DB9CFC2
:1015200089818A3139F085E10E94620D89818A3191
:1015300009F0AFCF86E00E94620D2898FFCF5A983D
:1015400064960FB6F894DEBF0FBECDBFDF91CF918A
:101550001F910F91FF90EF90DF90BF90AF90089593
:10156000EF92FF920F931F93CF93DF93FC019B01A8
:1015700077FD06C000E117E240E0EE24FF240CC036
:101580008DE28193309521953F4FF4CFC901B80189
:101590000E94CE0F9C018E01C901B8010E94CE0F9E
:1015A0006115710511F041E005C0442319F40130C3
:1015B000110519F4862F805D8193C8016AE070E0FF
:1015C0000E94CE0FEB010894E11CF11C85E0E816A7
:1015D000F104E1F61082DF91CF911F910F91FF90FE
:1015E000EF900895BF92CF92DF92EF92FF920F9308
:1015F0001F93CF93DF93CDB7DEB725970FB6F8943F
:10160000DEBF0FBECDBF982F882329F40E94D20CD5
:10161000FC01108292C08130F9F480E00E94C40C79
:101620000E94C70D8C0181E00E94570C0F5F1F4F75
:10163000B8010E94E90880E00E94C40C8C0181E09E
:101640000E94570C0E94EF07B8010E94EA0D0E9409
:101650004B0C0E944B0C71C08250833020F09630AE
:1016600009F04BC02AC09230E9F480E00E94C40C1B
:101670000E94C70D8C0181E00E94C40C0E94C70D1E
:101680000F5F1F4F080F191FB80180E00E943C092F
:10169000B82E81E00E94C40C6C0180E00E94C40C52
:1016A0007C0116C0933049F480E00E94E00CBC013C
:1016B000CE0101960E94B00A05C080E00E94570C3E
:1016C00089831A82FE01319680818823E1F71BC04D
:1016D0008B2D0E94EF078C01B6010E94EA0DB70125
:1016E000C8010E94060E0E944B0C0E944B0C8B2DD1
:1016F000992790680E943E0C20C09530F1F087E059
:101700000E94ED091AC07E010894E11CF11C8F01B2
:101710000E191F0981E00E94C40C0E94C70D0F5FC3
:101720001F4F080F191FB80180E00E943C09B82E16
:1017300081E00E94C40C6C01CBCF25960FB6F894C3
:10174000DEBF0FBECDBFDF91CF911F910F91FF90F4
:10175000EF90DF90CF90BF9008951F93182F0E94B5
:101760004B0C113019F40E94590D04C0123031F4A1
:101770000E94800D99270E943E0C03C087E00E94C2
:10178000ED091F910895FF920F931F93CF93DF935D
:10179000EC01F62E97FF10C003C00E948D0DE801EA
:1017A0008E010F5F1F4FCE010E94E2008823A9F730
:1017B00006C021960E948D0D88818823D1F7FF20D5
:1017C00019F08AE00E948D0DDF91CF911F910F914A
:1017D000FF9008950F931F93CF93DF93CDB7DEB79C
:1017E00028970FB6F894DEBF0FBECDBF813021F42D
:1017F0000E94D20C61E00DC0823071F40E94EE0CA8
:10180000BC018E010F5F1F4FC8010E94B00A61E04A
:10181000C8010E94C30B25C0843021F40E94D20C61
:1018200060E0F7CF853059F40E94EE0CBC018E01C8
:101830000F5F1F4FC8010E94B00A60E0E9CF8330FC
:1018400031F40E94EE0C0E948D0D8AE004C08630B7
:1018500029F40E94EE0C0E948D0D03C087E00E94C7
:10186000ED090E944B0C28960FB6F894DEBF0FBE10
:10187000CDBFDF91CF911F910F910895E0910401A9
:10188000F09105013296F0930501E093040132973F
:10189000938382830895E0910401F0910501808192
:1018A00091813297F0930501E093040108959927FF
:1018B000880F991FE0910401F0910501E81BF90BD5
:1018C000808191810895992787FD9095880F991FB0
:1018D0002091040130910501280F391F3093050133
:1018E00020930401089580910401909105010895C9
:1018F000880F991FE0910201F0910301E80FF91F91
:10190000808191810895880F991FE0910201F091E3
:101910000301E80FF91F71836083089540E050E0F0
:1019200020910401309105018091060190910701F9
:101930002817390711F441E050E0CA010895482FF3
:101940005527506880910201909103012091040174
:1019500030910501281B390B359527952F5F3F4F97
:10196000FC0160E070E00AC08191919184179507B5
:1019700019F481E090E008956F5F7F4F621773075D
:1019800099F780E090E008959927880F991FE091DA
:101990000401F0910501E81BF90B808191810E94FF
:1019A0000C020895E0910401F0910501808191817C
:1019B0003297F0930501E09304010E940C02089510
:1019C0009927880F991FE0910401F0910501E81B08
:1019D000F90B808191810E94E3010895E091040157
:1019E000F0910501808191813297F0930501E09398
:1019F00004010E94E30108950F931F93082F0E9492
:101A0000A906909303018093020102979093050128
:101A1000809304011127000F111FC80102960E9434
:101A200084088091040190910501800F911F90938B
:101A30000501809304011F910F9108958091040185
:101A400090910501909307018093060108951092EB
:101A50000E0410922F041092C5008FEC8093C400E6
:101A60001092C00088E98093C10086E48093C20090
:101A7000789408951F920F920FB60F9211248F93AE
:101A80009F93EF93FF9380910E049091C600EFE037
:101A9000F4E0E80FF11D90838F5F8F7180930E0447
:101AA000FF91EF919F918F910F900FBE0F901F901C
:101AB000189580910E0420912F04821B99278F7115
:101AC00090700895982F8091C00085FFFCCF809181
:101AD000C1008F768093C1009093C6008091C000B2
:101AE00085FFFCCF80E090E00000019626E1823582
:101AF0009207D1F78091C10080698093C100089559
:101B000090912F04EFE0F4E0E90FF11D80819F5FD9
:101B10009F7190932F04992708951F93182F8A304F
:101B200019F48DE00E94620D812F0E94620D1F91B9
:101B30000895DF92EF92FF920F931F93CF93DF935D
:101B40007C01062FEC0114C080E090E000000196BB
:101B500029E589349207D1F7115010F40EC01AE02C
:101B60000E94590D882381F30E94800D89930150B2
:101B7000CE018E19D82E002391F78D2D9927DF9154
:101B8000CF911F910F91FF90EF90DF9008950F93E9
:101B90001F93CF93DF93FC0197FD03C000E010E09B
:101BA00010C000E010E003C00F5F1F4FFE01EF0107
:101BB0002196CF010E94E2008823B1F705C00F5F94
:101BC0001F4F81918823D9F7C801DF91CF911F91D1
:101BD0000F9108950F931F93CF93DF93EC01FB01B7
:101BE00077FF0BC08F010F5F1F4FCF010E94E200F4
:101BF0008993882331F0F801F5CF81918993882367
:101C0000E1F7DF91CF911F910F910895FC0101C081
:101C1000319680818823E1F7CF010E94EA0D089573
:101C20001F920F920FB60F9211248F939F93809162
:101C300008018F5F80930801893459F410920801DC
:101C40008091090190910A01019690930A01809375
:101C500009019F918F910F900FBE0F901F901895C3
:101C60008FE384B984EF8AB982E48093B00081E085
:101C70008093B1008FE68093B300E0E7F0E08081CD
:101C80008260808381EA8093800082E0809381007B
:101C900086E880937A005F985F9887B1836087B900
:101CA00088B18C7F88B978940895EF92FF920F9352
:101CB0001F93CF93DF93813069F40E944B0C80FF18
:101CC00002C05A9A01C05A9881FF02C0289A0CC1DA
:101CD00028980AC1823081F40E944B0C9C0110921A
:101CE0000A01109209018091090190910A0182175D
:101CF000930708F0F9C0F7CF8330B9F50E94EE0CD6
:101D0000EC010E94EE0C9C0185B18F7C85B9D7FF58
:101D100005C02C9AD095C195DF4F03C0209709F0DC
:101D20002D9A8BB18F7C8BB937FF05C05C9A3095AB
:101D300021953F4F04C02115310539F05D9A2F3FA1
:101D4000310519F014F02FEF30E030938900209323
:101D50008800CE01CF3FD10519F014F08FEF90E04D
:101D600090938B0080938A00BFC0843041F40E941E
:101D70004B0C892B11F05E9AB7C05E98B5C08530C8
:101D8000C9F40E944B0CEC010E944B0C892B21F4EE
:101D9000209709F0A1C008C05F9887B1836087B918
:101DA00088B1836088B901C04198CD2B09F09CC0EF
:101DB00040989AC0863099F40E944B0C892B11F000
:101DC00082E401C083E480937C0080917A00806487
:101DD00080937A0080917A0084FFFCCF18C087300E
:101DE00029F587B18C7F87B95F9A0E944B0C892BAC
:101DF00011F080E401C081E480937C0080917A003E
:101E0000806480937A0080917A0084FFFCCF809177
:101E10007A00806180937A00209178008091790027
:101E20009927982F8827820F911D53C0883009F079
:101E30005BC00E944B0C892BC9F1539A5B9A84E4D6
:101E400080937C0080E090E000000196843E910544
:101E5000D9F780917A00806480937A0080917A002B
:101E600084FFFCCF80917A00806180937A0080911A
:101E70007800209179003327322F2227280F311D37
:101E80005B987901F694E7940027112760E07CEFD6
:101E900080E090E06E197F09800B910B4427552755
:101EA0000E94E10FDA01C901CE9713C0539880E078
:101EB00090E000000196843E9105D9F789B19927F9
:101EC00023E0969587952A95E1F780959095817006
:101ED00090700E943E0C08C05F9887B1836087B9FC
:101EE00088B1836088B960CFDF91CF911F910F9146
:101EF000FF90EF900895892F9927449751F461E05E
:101F000070E080E00E943C09992790680E943E0C96
:101F1000089588E00E94ED090895882319F40E942D
:101F20004B0C089587E00E94ED090895292F33276F
:101F30002031310519F40E948D0F089522313105A9
:101F400019F40E94EA0B08952331310519F40E9417
:101F5000AD0B08952431310519F40E94F20A089559
:101F60002C31310519F40E94550E089588E00E9425
:101F7000ED090895AA1BBB1B51E107C0AA1FBB1F97
:101F8000A617B70710F0A61BB70B881F991F5A9505
:101F9000A9F780959095BC01CD01089597FB092E76
:101FA00007260AD077FD04D0E5DF06D000201AF41A
:101FB000709561957F4F0895F6F7909581959F4FA5
:101FC000089597FB092E05260ED057FD04D014D096
:101FD0000AD0001C38F450954095309521953F4F1C
:101FE0004F4F5F4F0895F6F79095809570956195E6
:101FF0007F4F8F4F9F4F0895A1E21A2EAA1BBB1B44
:10200000FD010DC0AA1FBB1FEE1FFF1FA217B307C4
:10201000E407F50720F0A21BB30BE40BF50B661FDA
:10202000771F881F991F1A9469F76095709580959E
:1020300090959B01AC01BD01CF010895F999FECFA8
:10204000B2BDA1BDF89A119600B40895F7DF0192D0
:102050001A94E1F70895F999FECFB2BDA1BD00BC75
:1020600011960FB6F894FA9AF99A0FBE0895FFCF19
:00000001FF
