:100000000C942A000C9447000C9447000C94470071
:100010000C9447000C9447000C9447000C945A1A17
:100020000C9447000C9447000C9447000C94470034
:100030000C9447000C94C2180C9447000C94470091
:100040000C9447000C9447000C9447000C94470014
:100050000C94470011241FBECFE5D8E0DEBFCDBF12
:1000600010E0A0E6B0E0E4E9F9E302C005900D92EB
:10007000A038B107D9F717E0A0E8B0E001C01D92A1
:10008000A13BB107E1F70E948D070C94C91C0C94A9
:100090000000EF92FF920F931F937B018C0120E0F1
:1000A00030E040E05FE40E943E0488237CF020E0E2
:1000B00030E040E05FE4C801B7010E949C010E946B
:1000C0001305605070408040904804C0C801B701DB
:1000D0000E9413051F910F91FF90EF900895A0E0EB
:1000E000B0E0E5E7F0E00C947D1CFC016A01908132
:1000F000923008F41BC1DB018C91823080F0943087
:1001000061F4843009F012C19181EB018981981763
:1001100009F40CC1E8E7F0E009C1843011F4FB01F7
:1001200005C1823091F4923009F000C1EA01DF018B
:1001300088E00D9009928150E1F78181FB01918166
:100140008923E6018983F601F1C0923041F3628090
:100150007380EB018A809B80E480F58006811781A3
:100160002C813D814E815F815301A818B908C501DA
:10017000B7FCABC080970CF457C0861497040CF4FE
:10018000BEC03401EE24FF2487019181FB018181EF
:10019000981709F4A6C0992309F49CC02E193F09A9
:1001A000400B510B57FDB0C0E60119827B826A8279
:1001B000F6012483358346835783E6012C813D81F4
:1001C0004E815F8179018A01DA01C9010197A10994
:1001D000B1098F5F9F4FAF4FBF43F8F4E6016A81CB
:1001E0007B81A8019701220F331F441F551F6150C7
:1001F000704079018A01DA01C9010197A109B109A9
:100200008F5F9F4FAF4FBF4360F3E6017B836A83ED
:10021000F601248335834683578383E0D6018C938C
:1002200057FD39C0F60182C086149704B4F4C0E0CB
:10023000D0E0DA01C90181709070A070B07056955D
:10024000479537952795282B392B4A2B5B2B2196E1
:10025000AC16BD0671F78A0C9B1C681479040CF06F
:1002600094CFC0E0D0E05401A618B708D801C70168
:1002700081709070A070B07016950795F794E79410
:10028000E82AF92A0A2B1B2B2196AC16BD0671F71A
:100290006A0C7B1C7ACFDA01C901B695A7959795B0
:1002A00087952170307040705070282B392B4A2B65
:1002B0005B2BE6012C833D834E835F838A819B8188
:1002C00001969B838A83F60131C0882799278A1972
:1002D0009B0950CFE21AF30A040B150BA8019701F2
:1002E00061CFE60199837B826A822E0D3F1D401FFC
:1002F000511FF60124833583468357838ECF20E038
:1003000030E040E050E041CF81E0E60189837B822C
:100310006A8250954095309521953F4F4F4F5F4FE2
:10032000F601248335834683578347CFCF01EEE020
:10033000CDB7DEB70C94991CA0E2B0E0E2EAF1E0A0
:100340000C94851C69837A838B839C832D833E83E5
:100350004F83588789E0E82EF12CEC0EFD1EB70183
:10036000CE0101960E9485068E010F5E1F4FB801D7
:10037000CE0105960E9485068A8991E089278A8B9D
:10038000AE01475E5F4FB801C7010E946F000E9437
:100390006305E6E0A0960C94A11CA0E2B0E0E3EDBA
:1003A000F1E00C94851C69837A838B839C832D8375
:1003B0003E834F83588799E0E92EF12CEC0EFD1E09
:1003C000B701CE0101960E9485068E010F5E1F4F78
:1003D000B801CE0105960E948506AE01475E5F4FCB
:1003E000B801C7010E946F000E946305E6E0A09675
:1003F0000C94A11CA0E2B0E0E0E0F2E00C94791CC7
:1004000069837A838B839C832D833E834F835887B4
:100410008E01075F1F4FB801CE0101960E9485062D
:10042000F1E1EF2EF12CEC0EFD1EB701CE01059689
:100430000E9485068985823078F09989923040F44F
:1004400020E09A858A89981321E02A8BB701E9C0B8
:10045000843051F4923061F020E09A858A899813B3
:1004600021E02A87B801DDC0943029F4823041F7B9
:1004700068E770E0D6C0823079F3923009F32D85B9
:100480003E854F8558898D899E89AF89B88D2224F4
:1004900033242101AA24BB246501EE24FF24870113
:1004A00060E070E00DC06F5F7F4F6032710599F1C1
:1004B000880F991FAA1FBB1F5695479537952795FB
:1004C00020FF19C0280E391E4A1E5B1E66247724A1
:1004D0004301281639064A065B0628F4E1E06E2E31
:1004E000712C812C912CAE0CBF1CC01ED11EA60CF1
:1004F000B71CC81CD91CEE0CFF1C001F111FB7FF36
:10050000D2CFE1E06E2E712C812C912CE628F728B9
:1005100008291929C8CF8B859C852B893C89820F96
:10052000931F02969C8F8B8F1A8E9A858A899817B3
:1005300011F081E08A8FD7FE17C08B8D9C8DA0FEB5
:100540000CC0569447943794279420E030E040E064
:1005500050E8222A332A442A552AD694C794B794BD
:10056000A79401969C8F8B8F30E0A31630E0B306E2
:1005700030E0C30630E4D30618F58B8D9C8D0EC099
:10058000220C331C441C551C019720E0A21620E0CD
:10059000B20620E0C20620E4D20680F4AA0CBB1CFE
:1005A000CC1CDD1C57FEECCF31E0632E712C812C6E
:1005B000912CA628B728C828D928E2CF9C8F8B8FEA
:1005C000D601C5018F779070A070B070803491050E
:1005D000A105B10551F0AD8EBE8ECF8ED8A283E0BD
:1005E000898FBE01675E7F4F1CC0A7FCF4CF21142A
:1005F00031044104510479F380E490E0A0E0B0E0DC
:10060000A80EB91ECA1EDB1E80E8682E8FEF782E5A
:100610008FEF882E8FEF982EA620B720C820D920E4
:10062000DACFCB010E946305E2E1A0960C94951C01
:10063000A8E1B0E0EEE1F3E00C947F1C69837A83DB
:100640008B839C832D833E834F835887B9E08B2E09
:10065000912C8C0E9D1EB401CE0101960E94850640
:100660008E010F5E1F4FB801CE0105960E948506D0
:100670002985223008F46AC03989323008F468C00C
:100680008A859A8989278A87243009F463C02230B1
:1006900009F460C0343041F41D861E861F86188A16
:1006A0001C861B86B40177C0323009F458C06B85B4
:1006B0007C858B899C89681B790B7C876B872D8552
:1006C0003E854F855889ED88FE880F89188D2E1537
:1006D0003F054007510740F4220F331F441F551FA9
:1006E000615070407C876B8780E090E0A0E0B0E4D0
:1006F000AA24BB24650160E070E02E153F05400789
:10070000510740F0A82AB92ACA2ADB2A2E193F0924
:10071000400B510BB695A79597958795220F331FE0
:10072000441F551F6F5F7F4F6F31710531F7D60141
:10073000C5018F779070A070B07080349105A105CD
:10074000B10589F0AD86BE86CF86D88AB40123C0B4
:10075000B80121C03217D1F768E770E01CC084E00F
:100760008987B40118C0A7FCEDCF211531054105DB
:10077000510541F380E490E0A0E0B0E0A80EB91E7E
:10078000CA1EDB1E80E89FEFAFEFBFEFA822B922A1
:10079000CA22DB22D7CFCB010E946305ECE068962A
:1007A0000C949B1CA8E1B0E0E8EDF3E00C94851CF0
:1007B00069837A838B839C832D833E834F83588701
:1007C00089E0E82EF12CEC0EFD1EB701CE0101965A
:1007D0000E9485068E010F5E1F4FB801CE0105965F
:1007E0000E9485068985823018F08989823018F444
:1007F00021E030E008C0B801C7010E942407282F7B
:10080000332727FD3095C901E6E068960C94A11CBA
:10081000A8E1B0E0EEE0F4E00C94851C69837A83F3
:100820008B839C832D833E834F83588789E0E82EFA
:10083000F12CEC0EFD1EB701CE0101960E9485063B
:100840008E010F5E1F4FB801CE0105960E948506EE
:100850008985823018F42FEF3FEF0BC089898230F1
:10086000D0F3B801C7010E942407282F332727FDA2
:100870003095C901E6E068960C94A11CA8E1B0E0AF
:10088000E4E4F4E00C94851C69837A838B839C8375
:100890002D833E834F83588789E0E82EF12CEC0EA0
:1008A000FD1EB701CE0101960E9485068E010F5EE6
:1008B0001F4FB801CE0105960E94850689858230BA
:1008C00018F42FEF3FEF0BC089898230D0F3B801C5
:1008D000C7010E942407282F332727FD3095C9011F
:1008E000E6E068960C94A11CA8E1B0E0EAE7F4E029
:1008F0000C94851C69837A838B839C832D833E8330
:100900004F83588789E0E82EF12CEC0EFD1EB701CD
:10091000CE0101960E9485068E010F5E1F4FB80121
:10092000CE0105960E9485068985823018F0898956
:10093000823018F421E030E008C0B801C7010E94FD
:100940002407282F332727FD3095C901E6E0689654
:100950000C94A11CA8E0B0E0E0EBF4E00C94881C3F
:100960009B01AC0183E089831A8257FD51C0211598
:1009700031054105510539F482E08983CE010196A4
:100980000E9463054CC0EEE1F0E0FC83EB838A81BA
:100990008823C9F1203010E0310710E0410710E84A
:1009A0005107C9F188279927DC01821B930BA40BFF
:1009B000B50B8D839E83AF83B8872D813E814F8198
:1009C0005885203080E0380780E0480780E45807E9
:1009D000A8F6EB81FC81DA01C901880F991FAA1FD3
:1009E000BB1F31979C01AD01803010E0910710E0F2
:1009F000A10710E4B10778F3FC83EB838D839E831A
:100A0000AF83B887BBCF2D833E834F835887D5CF25
:100A100081E08A83ACCF60E070E080E09FECE3E0AF
:100A200028960C94A41CACE0B0E0E9E1F5E00C944D
:100A3000891C69837A838B839C83BE016B5F7F4FA4
:100A4000CE0101960E9485068D81823061F0823050
:100A500050F0843069F48E81882359F52FEF3FEFF1
:100A60004FEF5FE72AC020E030E040E050E025C0D3
:100A70002F81388537FDF7CF2F31310564F78EE1AF
:100A800090E0821B930B29853A854B855C8504C0D9
:100A900056954795379527958A95D2F78E81882365
:100AA00061F050954095309521953F4F4F4F5F4FE6
:100AB00004C020E030E040E050E8CA01B901E2E0C3
:100AC0002C960C94A51C4F925F926F927F928F92FE
:100AD0009F92AF92BF92DF92EF92FF920F931F937C
:100AE00020E030E040E050E0FC01E480F580068149
:100AF0001781D1808081823038F4D801C701A0618C
:100B0000AF77B0706FEFD9C0843009F46EC0823017
:100B100009F471C0E114F1040105110509F46BC079
:100B2000828193816FEF823896070CF06AC062E889
:100B30007FEF681B790B6A3171050CF080C04701AB
:100B40005801062E04C0B694A794979487940A94EB
:100B5000D2F744245524320181E090E0A0E0B0E0D7
:100B600004C0880F991FAA1FBB1F6A95D2F701976F
:100B7000A109B109E822F9220A231B23E114F10497
:100B80000105110529F061E0462E512C612C712CD4
:100B900085017401E428F52806291729D801C70121
:100BA0008F779070A070B07080349105A105B10569
:100BB00009F457C0D801C701CF96A11DB11D60E04F
:100BC00070E08030E0E09E07E0E0AE07E0E4BE07C2
:100BD00010F061E070E027E0B695A79597958795AE
:100BE0002A95D1F7AF77B07068C080E090E0A0E0C0
:100BF000B0E06FEF62C080E090E0A0E0B0E060E0C5
:100C00005CC0803891058CF7BC0161587F4FD801DA
:100C1000C7018F779070A070B07080349105A105E6
:100C2000B105A1F08FE390E0A0E0B0E0E80EF91E7E
:100C30000A1F1B1F17FD28C0D801C701CCCF60E0D9
:100C400070E080E090E0A0E0B0E0CCCFE7FEF2CF33
:100C500080E490E0A0E0B0E0E80EF91E0A1F1B1F40
:100C6000E9CFE7FC18C080E090E060E0E61660E0C5
:100C7000F60660E0060760E4160710F081E090E0F9
:100C8000BC01D801C701A7CF16950795F794E79443
:100C90006F5F7F4FD1CFD801C701805C9F4FAF4FAF
:100CA000BF4F60E070E08030E0E09E07E0E0AE071C
:100CB000E0E4BE0708F48FCF8CCF282F392F9A2F6E
:100CC0009F77842F8078892B962F979599279795D2
:100CD0008F77482F492B6695852F8078862BD79460
:100CE000DD24D7948F77582F5D29CA01B9011F9150
:100CF0000F91FF90EF90DF90BF90AF909F908F90FB
:100D00007F906F905F904F900895FC01DB012081F0
:100D100031819281492F4F7750E0991F9927991F70
:100D20008381682F660F692B881F8827881FFD0124
:100D30008183662309F049C021153105410551051C
:100D400009F470C082E89FEFFD0193838283220F34
:100D5000331F441F551F220F331F441F551F220FDF
:100D6000331F441F551F220F331F441F551F220FCF
:100D7000331F441F551F220F331F441F551F220FBF
:100D8000331F441F551F83E08C932030F0E03F0752
:100D9000F0E04F07F0E45F0790F482E89FEF220F46
:100DA000331F441F551F0197203060E0360760E075
:100DB000460760E4560798F3FD0193838283FD01A3
:100DC000248335834683578308956F3F71F1862FBF
:100DD00099278F579040FD019383828383E08C9302
:100DE000220F331F441F551F220F331F441F551F4F
:100DF000220F331F441F551F220F331F441F551F3F
:100E0000220F331F441F551F220F331F441F551F2E
:100E1000220F331F441F551F50642483358346839C
:100E20005783089582E08C9308952115310541057B
:100E3000510519F484E08C93089544FD02C01C927E
:100E4000BECF81E08C93BBCFEF92FF920F931F93A5
:100E5000CF93DF93FC01DB018081823050F09C91C5
:100E6000923038F0843041F49430B1F0818188239D
:100E700081F461E070E04BC09430E9F18230A1F080
:100E80009230A1F36181ED018981681791F06623A9
:100E900081F36FEF7FEF3BC0EB018981682F7727EC
:100EA0008181681B710933C0923059F560E070E0B0
:100EB0002EC022813381ED018A819B8182179307A5
:100EC00034F3281739079CF0E480F58006811781F8
:100ED000FD0124813581468157812E153F0540074C
:100EE0005107A8F2E216F30604071507F8F6662381
:100EF00009F0BFCFCECFFB018181882309F0B9CFA4
:100F0000C8CFEB018981882309F0B3CFC2CFCB01D1
:100F1000E6E0CDB7DEB70C94A11CCFE5D8E0DEBF8C
:100F2000CDBF0E94B4180E94811A0E9447190E94E6
:100F300098140E941C090E94D6090E946D08FFCFD8
:100F400080E090E00895DC01BF77062E0E94BD1C72
:100F50000895CF93DF93CDB7DEB724970FB6F894FB
:100F6000DEBF0FBECDBFFE013196DC01BF7784E04E
:100F7000182E0E94B81C69817A818B819C812496ED
:100F80000FB6F894DEBF0FBECDBFDF91CF910895AD
:100F9000CF93DF93CDB7DEB722970FB6F894DEBFBD
:100FA0000FBECDBFFE013196DC01BF7782E0182E67
:100FB0000E94B81C89819A8122960FB6F894DEBFF0
:100FC0000FBECDBFDF91CF910895EF92FF920F93A7
:100FD0001F938C0190E0E92E90E0F92EC7010A964C
:100FE0000E94C807E80EF91E000F111FC701800FED
:100FF000911F0E94C8078E0D9F1D1F910F91FF909A
:10100000EF900895CF93DF9390918C00C82FDD2748
:10101000891780F488E090E00E94C807CC0FDD1F9C
:10102000CC0FDD1FC80FD91FCE01805090400E9409
:10103000A90708C0C91BD109BE01882777FD809583
:10104000982F906CDF91CF910895EF92FF920F93BC
:101050001F938C0140E0E42E40E0F42EC7010C9673
:101060000E94C80733E0000F111F3A95E1F7080FFF
:10107000191FC8018E0D9F1D1F910F91FF90EF90BA
:101080000895CF93DF93CDB7DEB721970FB6F894CD
:10109000DEBF0FBECDBFDC01BF7781E0FE01319620
:1010A000182E0E94B81C8981992721960FB6F894B2
:1010B000DEBF0FBECDBFDF91CF9108958EE090E0EF
:1010C0000E944108992708959927880F991F805FEA
:1010D0009F4F0E94410899270895EF92FF921F9316
:1010E000CF93DF93EE24FF2410C0C12FDD27CE0164
:1010F0000E94250804960E94410880FF03C0CE018B
:101100000E94E3090894E11CF11C1E2D85E090E08B
:101110000E944108E81648F386E090E00E94C80764
:101120000E94E309DF91CF911F91FF90EF90089506
:10113000CF93DF93DB01BF77EA01FC01219724F015
:101140000E94B01C0192FACFDF91CF910895CF9207
:10115000DF92EF92FF920F931F93CF93DF93CDB760
:10116000DEB728970FB6F894DEBF0FBECDBFC82EEE
:10117000D62EEE24FF2420C0012F1127C8010E9483
:10118000250848E050E0BC01CE0101960E94980875
:101190004B815C81252F33278C2D99272817390700
:1011A00041F450708D2D99274817590711F4C80143
:1011B0000CC00894E11CF11C1E2D85E090E00E94FB
:1011C0004108E816C8F28FEF90E028960FB6F89421
:1011D000DEBF0FBECDBFDF91CF911F910F91FF906A
:1011E000EF90DF90CF9008950F931F93182F062F45
:1011F000602F812F0E94A7088F3F51F4812F9927DC
:10120000880F991F815F9F4F0E944108182FF0CFD0
:1012100099271F910F910895CF93DF93EA01DC0185
:10122000A050B040FB01219724F001900E94BD1C0A
:10123000FACFDF91CF9108950F931F9380E090E054
:101240000E94A9079B01AC015E6B6F737070807088
:101250009E7B621773078407950711F08AE007C029
:1012600084E090E00E944108823031F08BE00E94DF
:10127000821480E090E013C08AE090E00E94C807EA
:101280008C0188E090E00E94C807081B190B169596
:1012900007951695079500938C0081E090E01F91CB
:1012A0000F91089596FD90680895292F221F2227F7
:1012B000221F2295220F220F207C392F3F773F37A4
:1012C00021F487FF06C02F6306C0332311F487FF84
:1012D00002C03052232B922F0895292F96FF02C06F
:1012E00030E801C030E02F732F3321F487FF06C0B0
:1012F0003F6706C0222311F487FF02C0205E322B15
:10130000932F08950F931F93CF93DF93EC01892FB1
:10131000992780319105F8F40E9464089927880F75
:10132000991F880F991F0496BC0181E00E946313E6
:101330008C01B8018827992790680E946B17C80113
:101340000E94BE11FC01CE01AA27BB278083918396
:10135000A283B38303C0CE010E94A91BDF91CF916A
:101360001F910F910895EF92FF920F931F937B01AE
:101370008C0197FD03C08CE00E948214D801C70144
:1013800080709070A070B07C80509040A040B048B9
:1013900021F4C7010E94BE1104C0C7010E94E507E5
:1013A00090681F910F91FF90EF9008950E94041193
:1013B0000E945E080E94871860E070E080E090E084
:1013C0000E946B1708953F924F925F926F927F92A7
:1013D0008F929F92AF92BF92CF92DF92EF92FF9245
:1013E0000F931F93CF93DF93CDB7DEB762970FB6FE
:1013F000F894DEBF0FBECDBF1D861E861F86188ADD
:101400009A8B898B0E9425089A87898748E050E04B
:10141000BC01CE0101960E94980829813A81498534
:101420005A85420F531F5C874B878F812885820F17
:10143000912D911D2E81820F911D880F991F880F6C
:10144000991F0E94A5120E94AF17049690938E00D8
:1014500080938D008F810E949D170E94AB18662497
:10146000772443018B859C850E944108382E8B850B
:101470009C8501960E9441088E878B859C850296EB
:101480000E9441088D87332009F4CFC550E13516FD
:1014900041F4AE856A2F772767FD7095872F972FC8
:1014A00073C5B1E13B1649F4ED85FE85BF01882780
:1014B00077FD8095982F9F7739C4832D8250873090
:1014C00048F4632D772763507040882777FD809517
:1014D000982FF8C1F6E33F1631F42E85022F11271D
:1014E00007FD10950EC5832D8B538430B0F4032D6A
:1014F0001127000F111F000F111F80918D00909177
:101500008E00080F191F0C5E10400E947A17F80118
:101510006083718382839383EBC1F5E13F1609F405
:1015200020C5832D8A51843098F4E32DFF27EE0FD8
:10153000FF1FEE0FFF1F80918D0090918E00E80F2E
:10154000F91FE856F0406081718182819381BAC1B0
:10155000832D89598C3008F078C0863030F436E01D
:10156000330EEE24FF24870104C00E9477187B010C
:101570008C010E9477183B014C0141EA341641F17D
:10158000431540F05FE9351679F060EA361609F048
:101590004CC014C083EA381679F1381618F194EA71
:1015A000391609F042C032C080E090E0A0E0B0E01F
:1015B0006E147F0480069106B1F531C080E090E0A2
:1015C000A0E0B0E06E147F048006910661F127C0B0
:1015D00080E090E0A0E0B0E06E147F048006910609
:1015E00014F51DC080E090E0A0E0B0E06E147F0430
:1015F00080069106C4F013C080E090E0A0E0B0E067
:10160000E614F7040805190574F409C080E090E0B9
:10161000A0E0B0E0E614F7040805190524F081E025
:1016200090E0A0E0B0E03C014D0161147104810440
:10163000910409F4FCC4AB85BC85ED85FE85AE0F35
:10164000BF1FBC87AB8780E0F3C4F7EA3F1659F4AD
:101650002B853C854D855E85240F351F23503040FA
:101660003C872B87FDC4832D8056853208F02DC121
:1016700054E7351651F40E94771866247724430105
:10168000661A770A880A990AC7C464E8361631F5DB
:101690008E85E82FFF27E7FDF095EE0FFF1FEE0F79
:1016A000FF1F80918D0090918E00E80FF91F20811F
:1016B00031814281538156FD50686D85862F99276F
:1016C00087FD9095A92FB92F280F391F4A1F5B1F3F
:1016D0005F772083318342835383C2C4832D837019
:1016E000823009F058C086E7831508F454C03816D4
:1016F00021F40E94291890584BC00E9429185B01C0
:101700006C010E9429187B018C019AE63916F1F0D0
:10171000931538F0A2E63A1659F0B6E63B16B1F545
:101720000EC0EEE63E16C9F0F0E73F1679F52BC085
:10173000A6019501C801B7010E94CD0121C0A601F3
:101740009501C801B7010E949C011AC0A60195012C
:10175000C801B7010E94FA0113C020E030E040E068
:1017600050E0C601B5010E94D203882319F48EE02F
:101770000E948214A6019501C801B7010E941803B6
:101780007B018C0103C08DE00E948214C801B70167
:101790000E94550944C40E9477183B014C010E94E5
:1017A00077187B018C0128E7321609F458C02315FD
:1017B000A8F038E63316A1F1331540F040E63416B0
:1017C00029F154E6351609F073C025C06CE63616CB
:1017D00061F180E7381609F06BC038C09EE7391612
:1017E00009F44FC0931548F0AAE73A1609F440C02F
:1017F000BCE73B1609F05CC053C0E0E83E1609F4B4
:1018000045C0F2E83F1609F053C045C0E60CF71C8E
:10181000081D191D4DC0E618F7080809190948C028
:10182000A40193010E94091C17C061147104810472
:10183000910419F48EE00E948214C801B701A4013A
:1018400093010E943C1C79018A0132C0C801B70192
:10185000A40193010E943C1C7B018C0129C0062C31
:1018600004C0EE0CFF1C001F111F0A94D2F720C009
:10187000062C04C015950795F794E7940A94D2F7BF
:1018800017C0E620F7200821192112C0E628F72802
:10189000082919290DC0E624F7240825192508C0B0
:1018A000062C04C016950795F794E7940A94D2F78E
:1018B0002FEF3FEF4FEF5FE7E222F32204231523E0
:1018C000C801B7010E946B1713C03CEA331641F000
:1018D0004EEA341629F051EB351609F052C004C017
:1018E0000E947A173B014C010E94D217882311F005
:1018F00081E09EC3BF8008850B0D0D5F8E81080FB0
:101900000E947A176B017C010E947A17DC01CB01DF
:101910009A8B898B0E9425089A87898748E050E036
:10192000BC01CE0101960E9498080E947A17A985F1
:10193000BA85A60FB71FBC87AB878B2D81950E94F8
:101940009D170E94AF17CC0CDD1CCC0CDD1C8C1934
:101950009D0990938E0080938D001127C801880FF8
:10196000991F880F991F0E947511BCEA3B1621F040
:10197000EEEA3E1609F073C3C401B3010E946B176F
:101980006EC3F8E53F1619F40E947A1703C027E5E5
:10199000321619F40E947A1748C339E5331611F448
:1019A00080E009C04CE5341649F481E00E948817B4
:1019B0000E946B1781E00E94881731C35AEA3516DE
:1019C00009F06EC08B859C8507960E944108082F00
:1019D0008B859C8508960E9441081127102F0027AF
:1019E0009927082B192B3801882477FC8094982C90
:1019F0008B859C850B960E944108082F8B859C85C2
:101A00000C960E944108182F0E947A176D877E87D6
:101A10008F87988B661577058805990534F1802F97
:101A20009927982F8827212F3327822B932BAA279A
:101A300097FDA095BA2F2D853E854F855889821731
:101A40009307A407B5078CF0DA01C9018619970935
:101A5000A809B90952E0880F991FAA1FBB1F5A9500
:101A6000D1F70F96A11DB11D04C083E090E0A0E066
:101A7000B0E00B851C85080F191FC8010E944108A2
:101A8000E82EC80101960E944108FF24FE2CEE2496
:101A90009927E82AF92A4B855C854E0D5F1D28C1E0
:101AA0005BEA351609F070C08B859C8508960E940C
:101AB0004108B82E0E9477183B014C0139E0C32E33
:101AC000D12CE12CF12C0B851C85075F1F4F33C0F7
:101AD000C8010E944108292D552727FD5095352F13
:101AE000452F8217E9F4C80101960E94410894012C
:101AF000552737FD5095452F821791F4C80102965E
:101B00000E944108552797FC5A95492D382D272DBD
:101B1000821731F4C80103960E944108861571F0BE
:101B2000BA9488E090E0A0E0B0E0C80ED91EEA1EAA
:101B3000FB1E085F1F4FBB2059F688C2A701960104
:101B40002C5F3F4F4F4F5F4F2D873E874F87588BFE
:101B50000B851C854D855E85040F151FC8010296F7
:101B60000E944108E82EC80103960E944108FF2404
:101B7000FE2CEE249927E82AF92A8B859C858E0D68
:101B80009F1D9C878B87B6C092EB391629F48D85F3
:101B90009E850E94B417CAC0A3EB3A1649F40E946E
:101BA0007A17AB01BC018D859E850E94C31758C270
:101BB000B2E13B1621F48E850E940208E5C1832D17
:101BC000865B833008F09DC0EE85E0310CF094C058
:101BD0002B853C8549855A85241B350B3901882482
:101BE00077FC8094982C8D859E850E9425089A8785
:101BF000898748E050E0BC018E010F5F1F4FC8018C
:101C00000E94980856EB351661F580E00E9488170F
:101C1000DC01CB010E94BE11FC0180819181A28177
:101C2000B381292F3A2F4B2F55276B817C81872F2A
:101C30009927AA27BB27281739074A075B0789F086
:101C4000822F0E94F4088D87992787FD90950E9426
:101C500025089A87898748E050E0BC01C8010E94A6
:101C600098088E8181950E949D170E94AF17209140
:101C70008D0030918E007C01E21AF30AF594E7940E
:101C8000F594E7940027F7FC0095102F0E94AF17FA
:101C9000049690938E0080938D008F812885820F0B
:101CA000912D911D2E81820F911D880F991F880FF4
:101CB000991F0C960E94A5128F810E949D17C40146
:101CC000B3010E946B17A989BA89BD01882799279A
:101CD0000E946B17C801B7010E946B17ED85FE8546
:101CE000FA8BE98B29813A8149855A85420F531F26
:101CF0005C874B8780E0B5C18D859E850E94C71BA0
:101D0000AFC154EB3516A9F40E947A17DC01CB0160
:101D10000E94BE11ED85FE85EE0FFF1FEE0FFF1F27
:101D2000E80FF91F64817581868197810E946B1786
:101D300097C165EB3616B9F40E947A173B014C0146
:101D40000E947A17DC01CB010E94BE11ED85FE8551
:101D5000EE0FFF1FEE0FFF1FE80FF91F6482758261
:101D6000868297827DC18BEB381629F48D859E85FE
:101D70000E94820975C19CEB391659F40E947A17AA
:101D80004E850E945E14AA27BB27B068BC01CD0116
:101D9000FBC0AEEB3A1639F40E947A17DC01CB0196
:101DA0000E9443143CC1B4E53B1691F40E9477189D
:101DB0007B018C010E9477183B014C010E947A172D
:101DC000DC01CB012E2DB401A3010E9416142DC1FC
:101DD000EFE43E1699F40E9477187B018C010E9473
:101DE00077183B014C010E947A17DC01CB01980166
:101DF0008701B401A3010E94DC1317C1F3E33F166E
:101E0000A1F40E9477183B014C010E947A17DC0173
:101E1000CB01B401A3010E940214992787FD90957C
:101E2000A92FB92FBC01CD01FAC02EE2321669F4F8
:101E30000E9477183B014C010E947A17DC01CB010C
:101E4000B401A3010E94C413EAC030E3331679F44D
:101E50000E9477183B014C010E947A17DC01CB01EC
:101E6000B401A3010E9486130E944900D8C041E535
:101E7000341699F40E9429187B018C010E9477186E
:101E80003B014C010E947A17DC01CB0198018701CC
:101E9000B401A3010E949E13C8C05BE0351629F46B
:101EA00060E070E080E090E073CC6CE0361629F4DE
:101EB00060E070E080E89FE36BCC8DE0381629F499
:101EC00060E070E080E090E463CC96E8391639F485
:101ED0000E9477183B014C010E94AA0459CCABE840
:101EE0003A1639F40E9429180E9413053B014C014F
:101EF00093C0B8E33B16C1F4EE850E2F112707FD02
:101F00001095000F111F000F111F80918D009091EF
:101F10008E00080F191F0E947A17D8016D937D93C8
:101F20008D939C93139732C0832D83548430B0F4E7
:101F3000032D1127000F111F000F111F80918D001D
:101F400090918E00080F191F0C5011400E947A17B3
:101F5000F801608371838283938367C0F7E13F1642
:101F6000B9F42E85E22FFF27E7FDF095EE0FFF1F56
:101F7000EE0FFF1F80918D0090918E00E80FF91FEA
:101F800060817181828193810E946B1782E069C0B8
:101F9000832D8252843098F4E32DFF27EE0FFF1F2C
:101FA000EE0FFF1F80918D0090918E00E80FF91FBA
:101FB000E858F040608171818281938130C0832D27
:101FC0008559823078F50E9429184B015C010E94E6
:101FD00029186B017C01A50194010E9474048823D7
:101FE0004CF46FEF662E6FEF762E6FEF862E6FEF4D
:101FF000962E12C0442455243201A5019401C70134
:10200000B6010E94080418162CF451E0452E512CFC
:10201000612C712C43013201C401B3019F770E94EE
:102020006B1703C08DE00E94821481E01AC083E028
:102030003CEA3316E9F04B855C85480F511D5C87FF
:102040004B8751EB351609F00DCA12C081E090E0C4
:10205000A0E0B0E08D879E87AF87B88B79CD332421
:1020600083E0AB85BC85A80FB11DBC87AB87E9CFEA
:102070008F8181950E949D178F812885820F912DD8
:10208000911D2E81820F911D880F991F880F991F16
:102090000E94751162960FB6F894DEBF0FBECDBFD9
:1020A000DF91CF911F910F91FF90EF90DF90CF9034
:1020B000BF90AF909F908F907F906F905F904F9068
:1020C0003F9008958FE890E00895FB01DC01A40F94
:1020D000B51FE40FF51F02C082918E93415050400E
:1020E0008FEF4F3F5807C1F70895DC0160918000E2
:1020F0007091810016C0FB01E157FF4F80819181F3
:102100008A179B07A1F0228126954381342F3795AA
:1021100033273795832F822B942F96950496680F3B
:10212000791F87E06030780730F3E0E0F0E0CF011E
:102130000895CF93DF93C1E0D0E0CE010E947510E7
:10214000892B11F02196C9F7CE01DF91CF91089527
:10215000CF92DF92EF92FF921F93CF93DF937C0198
:10216000162FBA016C5F7F4FC0908000D090810025
:10217000D601A157BF4FED013A81232F26959B81B0
:10218000892F879588278795E82FE22BF92FF695D9
:10219000E617F70718F480E090E02EC0CF01861B09
:1021A000970B282F220F3170322BFD013283292FFC
:1021B000220F881F8827881F822B83833695282F1C
:1021C000279522272795E22FE32BF82FF695EC0D84
:1021D000FD1DED56FF4FF182E082842F880F1170B4
:1021E000812B8283952F990F842F881F8827881F22
:1021F000892B838381E090E0DF91CF911F91FF9045
:10220000EF90DF90CF9008951092900010928F0081
:10221000809191008170886F809391008DE0809310
:1022200092000895EF92FF920F931F93CF93DF9345
:102230007C010027112780E090E0A0E0B0E8E82AC8
:10224000F92A0A2B1B2B60918000709181003FC0FE
:10225000EB01C157DF4F4A8140FF2BC046953B81C0
:10226000232F279522272795822F842B932F96950E
:10227000AC01569547955695479520E030E014C03F
:102280002F5F3F4FEE0FFF1FEE0FFF1FEC0FFD1FE5
:1022900084819581A681B7818E159F05A007B1071E
:1022A00019F481E090E01AC0E22FFF27E417F50748
:1022B00038F32A8126954B81342F3795332737956C
:1022C000832F822B942F96950496680F791F97E0A1
:1022D0006030790708F4BCCF80E090E0DF91CF91C7
:1022E0001F910F91FF90EF9008950F931F93CF933D
:1022F000DF938C01C0918000D0918100C157DF4FE6
:1023000088819981892B19F081E00E948214809143
:102310008000909181008017910718F485E00E9459
:1023200082148A8186954B81942F9795992797954A
:10233000292F282B342F3695E0918000F0918100D1
:10234000E01BF10BF0938100E0938000E157FF4F19
:1023500011821082200F311F922F990F828181707C
:10236000892B8283832F880F221F2227221F282B4D
:102370002383DF91CF911F910F910895CF93DF9326
:102380000E947510EC01892B19F483E00E948214DD
:10239000CE010496DF91CF910895CF93DF930E94F1
:1023A0007510EC01892B19F483E00E9482142A81B4
:1023B00026954B81342F379533273795832F822BE2
:1023C000942F9695DF91CF9108950F931F93CF93FC
:1023D000DF9300918000109181003DC0E801C1575A
:1023E000DF4F88819981892B89F02A8126954B813D
:1023F000342F379533273795832F822B942F96953B
:102400008150974018F080E00E9482148A8186955E
:102410004B81942F979599279795292F282B342F07
:1024200036952C5F3F4F80E097E0801B910B821721
:10243000930718F481E00E9482142A8126954B812B
:10244000342F379533273795832F822B942F9695EA
:102450000496080F191F87E00030180708F4BECF54
:10246000DF91CF911F910F910895EF92FF920F93FB
:102470001F93CF93DF93009180001091810053C090
:10248000E801C157DF4F2A8126954B81342F3795BC
:1024900033273795832F822B942F969524E0E22EB5
:1024A000F12CE80EF91E888199810097D1F10E94E4
:1024B000E3178823B1F5888199810E94121188233E
:1024C00081F56091800070918100A801461B570B37
:1024D000CB018E0D9F1D61577F4F81579F4F0E94EB
:1024E0006510E0918000F0918100E157FF4F32814B
:1024F000532F56954381242F279522272795822FE6
:10250000852B942F96958E0D9F1D282F220F3170AD
:10251000322B3283292F220F881F8827881F822B76
:1025200083830E0D1F1D87E00030180708F4A8CF25
:102530000050174019F081E00E948214DF91CF9182
:102540001F910F91FF90EF900895CF92DF92EF923D
:10255000FF920F931F93CF93DF937C010091800034
:102560001091810001571F4FF80180819181892BC3
:1025700019F081E00E948214F801828186952381FE
:10258000922F979599279795C82EC92AE6016E0133
:102590002695D22EE601CE14DF04B8F40E9435123F
:1025A000F801828186952381922F97959927979597
:1025B000C82EC92AE6016E012695D22EE601CE1458
:1025C000DF0418F484E00E948214E0918000F0910E
:1025D0008100EE0DFF1DF0938100E0938000E15734
:1025E000FF4F11821082CE018E199F09382F330FB1
:1025F00022812170232B2283292F220F881F8827D5
:10260000881F822B8383DF91CF911F910F91FF90C1
:10261000EF90DF90CF900895EF92FF920F931F936A
:10262000CF93DF938C017B01E0918000F0918100DA
:10263000E157FF4F828186954381942F9795992783
:102640009795292F282B342F3695CB0104962817E0
:10265000390710F00E943512C8010E947510EC0174
:102660006A816170A701C8010E94A810882319F42B
:1026700082E00E948214C8010E9475104A8146952A
:102680006B81562F579555275795252F242B362F7D
:102690003695AE01DC012C0F3D1F06C0FA01848186
:1026A000FD0183834F5F5F4F119642175307B1F7C8
:1026B0008FEF90E099838883DF91CF911F910F91E5
:1026C000FF90EF900895FF920F931F93CF93DF93A6
:1026D000F82E8B010E949910EC01A8016F2D0E9429
:1026E000A810882361F40E943512A8016F2DCE0135
:1026F0000E94A810882319F482E00E948214CE015F
:10270000DF91CF911F910F91FF900895EF92FF926B
:102710000F931F937A018B010E94BE11EE0CFF1CD8
:10272000EE0CFF1CE80EF91EF701618172818381B6
:1027300094811F910F91FF90EF9008958F929F9237
:10274000AF92BF92CF92DF92EF92FF920F931F93BF
:102750006A017B01480159010E94BE11CC0CDD1CAD
:10276000CC0CDD1CC80ED91EF60181829282A38298
:10277000B4821F910F91FF90EF90DF90CF90BF90A8
:10278000AF909F908F900895EF92FF920F931F93B9
:102790007A018B010E94BE11EE0CFF1CEE0CFF1C97
:1027A000E80EF91EF70161817281838194811F9186
:1027B0000F91FF90EF9008958F929F92AF92BF92EA
:1027C000CF92DF92EF92FF920F931F936A017B01EA
:1027D000480159010E94BE11CC0CDD1CCC0CDD1C43
:1027E000C80ED91EF60181829282A382B4821F9103
:1027F0000F91FF90EF90DF90CF90BF90AF909F90A0
:102800008F900895EF92FF920F931F937A018B019F
:102810000E94BE11FC01EE0DFF1D8181992787FDED
:1028200090951F910F91FF90EF900895DF92EF9296
:10283000FF920F931F937A018B01D22E0E94BE113B
:10284000FC01EE0DFF1DD1821F910F91FF90EF90C3
:10285000DF900895982F8450823090F0983081F066
:10286000993019F482E090E008959A3019F484E0E8
:1028700090E0089586E00E94821480E090E0089540
:1028800081E090E00895EF92FF920F931F938C01E7
:102890000E94CD117C01C8010E94BE11FC01808103
:1028A0000E942A14682F7727C7010E94281C8827B6
:1028B00099271F910F91FF90EF900895DF92EF926B
:1028C000FF920F931F937B018C01D42E842F0E94C3
:1028D0002A14282F332744275527C801B7010E94FF
:1028E000091C6F5F7F4F80E00E9463138C010E9480
:1028F000BE11FC01D082C8011F910F91FF90EF9093
:10290000DF9008951F93182F85E40E94FA1882E53E
:102910000E94FA1882E50E94FA188AE30E94FA18C7
:10292000812F8F5B0E94FA188AE00E94FA18FFCF6D
:10293000AF92BF92DF92EF92FF920F931F93CF93CC
:10294000DF93CDB7DEB764970FB6F894DEBF0FBE46
:10295000CDBF0E94A0077C0185E10E94E91810E02C
:102960000BC080E090E00000019623E2863B9207D6
:10297000D1F71F5F1A3F21F00E94E018882389F3E6
:102980000E94E018882309F456C0570111E064E161
:10299000CE0101960E94E3198431D1F540E0FE0199
:1029A00034969E012C5E3F4F8191480FE217F3074A
:1029B000D9F789818130A9F5DA80D11691F52B817B
:1029C00033278D2D809599272817390751F58C8944
:1029D000841739F5C5018E010C5F1F4F7C010894E7
:1029E000E11CF11CF80161918F010E94A307CE0147
:1029F00044960817190711F0C701F0CF80E190E065
:102A0000A80EB91E86E00E94E9181D2D1F5F0CC09C
:102A1000882321F486E00E94E918B9CF89818A31A0
:102A200039F085E10E94E91889818A3109F0AFCF38
:102A300086E00E94E91864960FB6F894DEBF0FBED8
:102A4000CDBFDF91CF911F910F91FF90EF90DF905D
:102A5000BF90AF9008953F924F925F926F927F9296
:102A60008F929F92AF92BF92CF92DF92EF92FF929E
:102A70000F931F93CF93DF93EC017A018B0177FDC6
:102A80000BC0612C9AEC792E9AE9892E9BE3992E42
:102A900033244424552415C08DE289931095009564
:102AA000F094E094E11CF11C011D111DEACFC80156
:102AB000B701A40193010E943C1C7B018C013501EC
:102AC0004601C801B701A40193010E943C1C2115D5
:102AD00031054105510519F081E0382E08C0332039
:102AE00031F481E0681671048104910419F4822F95
:102AF000805D8993C401B3012AE030E040E050E0FA
:102B00000E943C1C59016A010894411C511C8AE036
:102B10004816510461F61882DF91CF911F910F91F1
:102B2000FF90EF90DF90CF90BF90AF909F908F90ED
:102B30007F906F905F904F903F900895AF92BF92BB
:102B4000CF92DF92EF92FF920F931F93CF93DF9379
:102B5000EC017A018B0120E030E040E050E0C80158
:102B6000B7010E947404882334F48DE2899317FB23
:102B7000109517F91095C801B7010E9413055B0164
:102B80006C01AB01BC01CE010E942B1501C0219646
:102B900088818823E1F761E070E080E090E06A19C5
:102BA0007B098C099D090E94AA049B01AC01C80104
:102BB000B7010E94CD0120E034E244E759E40E94CD
:102BC000FA010E941305AB01BC01CE010E942B1536
:102BD0008EE2888321968881882311F0FBCF1882AA
:102BE0008A918033E1F38E3209F41882DF91CF911C
:102BF0001F910F91FF90EF90DF90CF90BF90AF901B
:102C00000895AF92BF92CF92DF92EF92FF920F930F
:102C10001F93CF93DF93CDB7DEB72F970FB6F894FE
:102C2000DEBF0FBECDBF982F882329F40E94501815
:102C3000FC011082A4C0813019F580E00E9439188F
:102C40000E94111A8C0181E00E948817DC01CB01DF
:102C50000F5F1F4FB8010E940C1380E00E943918CB
:102C60008C0181E00E948817DC01CB010E94BE111B
:102C7000B8010E94341A0E947A170E947A177FC006
:102C80008250833020F0963009F059C02DC0923028
:102C9000E9F480E00E9439180E94111A8C0181E049
:102CA0000E9439180E94111A0F5F1F4F080F191F39
:102CB000B80180E00E9463136C0181E00E94391822
:102CC0005C0180E00E9439187C0123C0933051F4EC
:102CD00080E00E946018AB01BC01CE0101960E9409
:102CE0002B1511C0963051F480E00E941218AB01F0
:102CF000BC01CE0101960E949E1505C080E00E9495
:102D0000881769831A82FE01319680818823E1F752
:102D10001CC0C6010E94BE118C01B5010E94341A6C
:102D2000B701C8010E94501A0E947A170E947A17B0
:102D3000B6018827992790680E946B1720C09530AC
:102D4000F1F087E00E9482141AC07E010894E11C11
:102D5000F11C8F010E191F0981E00E9439180E9491
:102D6000111A0F5F1F4F080F191FB80180E00E9452
:102D700063136C0181E00E9439185C01CACF2F9661
:102D80000FB6F894DEBF0FBECDBFDF91CF911F917C
:102D90000F91FF90EF90DF90CF90BF90AF9008958C
:102DA0001F93182F0E947A17113019F40E94E0180F
:102DB00004C0123051F40E94ED189927AA27BB27AE
:102DC000BC01CD010E946B1703C087E00E948214F2
:102DD0001F910895FF920F931F93CF93DF93EC0100
:102DE000F62E97FF10C003C00E94FA18E8018E016A
:102DF0000F5F1F4FCE010E9441088823A9F706C02C
:102E000021960E94FA1888818823D1F7FF2019F0B3
:102E10008AE00E94FA18DF91CF911F910F91FF90E5
:102E200008950F931F93CF93DF93CDB7DEB7289705
:102E30000FB6F894DEBF0FBECDBF813021F40E94E3
:102E4000501861E00EC0823079F40E947718AB010F
:102E5000BC018E010F5F1F4FC8010E942B1561E05E
:102E6000C8010E94EA162AC0843021F40E9450183A
:102E700060E0F7CF853061F40E947718AB01BC01A8
:102E80008E010F5F1F4FC8010E942B1560E0E8CF35
:102E9000833041F40E947718DC01CB010E94FA18BC
:102EA0008AE006C0863039F40E947718DC01CB0135
:102EB0000E94FA1803C087E00E9482140E947A17C9
:102EC00028960FB6F894DEBF0FBECDBFDF91CF912D
:102ED0001F910F910895E0918400F0918500349640
:102EE000F0938500E0938400349764837583868330
:102EF00097830895E0918400F0918500608171814D
:102F0000828193813497F0938500E0938400089543
:102F100099272CEF3FEF829FF001839FF00D929F46
:102F2000F00D11248091840090918500E80FF91F25
:102F300060817181828193810895992787FD9095A1
:102F4000880F991F880F991F209184003091850068
:102F5000280F391F309385002093840008958091B5
:102F60008400909185000895880F991F880F991FFC
:102F7000E0918200F0918300E80FF91F6081718178
:102F8000828193810895880F991F880F991FE0917E
:102F90008200F0918300E80FF91F40835183628320
:102FA0007383089540E050E02091840030918500C3
:102FB00080918600909187002817390711F441E02D
:102FC00050E0CA010895CF93DF93AC0166277727BD
:102FD00070688091820090918300209184003091EC
:102FE0008500281B390B35952795359527952F5F3B
:102FF0003F4FEC01E0E0F0E00DC089919991A9917B
:10300000B99184179507A607B70719F481E090E0F6
:1030100006C03196E217F30781F780E090E0DF9178
:10302000CF91089599272CEF3FEF829FF001839F66
:10303000F00D929FF00D11248091840090918500F5
:10304000E80FF91F60817181828193810E946D096F
:103050000895E0918400F091850060817181828102
:1030600093813497F0938500E09384000E946D096A
:10307000089599272CEF3FEF829FF001839FF00D79
:10308000929FF00D11248091840090918500E80FAB
:10309000F91F60817181828193810E94B309089533
:1030A000E0918400F091850060817181828193813B
:1030B0003497F0938500E09384000E94B30908954B
:1030C00099272CEF3FEF829FF001839FF00D929F95
:1030D000F00D11248091840090918500E80FF91F74
:1030E00060817181828193810E9452090895E091EB
:1030F0008400F09185006081718182819381349791
:10310000F0938500E09384000E94520908950F9384
:103110001F93082F0E946210909383008093820077
:10312000049790938500809384001127000F111F4E
:10313000000F111FC80104960E94A51280918400FF
:1031400090918500800F911F90938500809384005B
:103150001F910F9108958091840090918500909324
:10316000870080938600089510928F071092B00711
:1031700010BC87E689B91BB888E98AB986E880BDA2
:10318000789408951F920F920FB60F9211248F9387
:103190009F93EF93FF9380918F079CB1E0E9F7E055
:1031A000E80FF11D90838F5F8F7180938F07FF91E0
:1031B000EF919F918F910F900FBE0F901F901895D8
:1031C00080918F072091B007821B99278F71907093
:1031D00008955D9BFECF8CB908959091B007E0E90A
:1031E000F7E0E90FF11D80819F5F9F719093B00719
:1031F00099270895982F8A3021F45D9BFECF8DE0AA
:103200008CB95D9BFECF9CB90895C39A80E090E095
:103210000000019686319105D9F70895C39880E0A2
:1032200090E00000019686319105D9F708951F932B
:10323000C2981FEF14BB85BB0E9405190E940E198E
:1032400014BA15BB1F910895C19814BA8FEF85BBAE
:10325000C29A02C00E940E190E9405199F99FACFC6
:103260000E940E1908951F93182F0E942419C198C7
:10327000812F0E9417191F9108951F93182F0E94E4
:103280002419C19A812F0E9417191F91089588B39C
:10329000817F88BB87B38E6087BB14BA8FEF85BBF5
:1032A00088E30E94331988E30E94331988E30E945F
:1032B00033198CE00E94331986E00E943319089577
:1032C0000F931F93CF93DF93EC0197FF10C003C0C0
:1032D0000E943D19E8018E010F5F1F4FCE010E9431
:1032E00041088823A9F706C021960E943D198881CC
:1032F0008823D1F7DF91CF911F910F910895EF921D
:10330000FF920F931F93CF93DF93CDB7DEB728972C
:103310000FB6F894DEBF0FBECDBF813099F40E9486
:1033200033198CE69EEBA1E0B0E000000197A10903
:10333000B1098F3F2FEF92072FEFA2072FEFB207B0
:10334000A9F1F3CF823089F40E947A177B018C01B6
:103350000E947A17DC01CB0128E2829FC001112470
:103360008E0D80680E94331921C0833019F40E94A9
:1033700050180DC0843071F40E947718AB01BC0165
:103380008E010F5F1F4FC8010E942B15C8010E94BC
:1033900060190CC0853039F40E947718DC01CB012C
:1033A0000E943D1903C087E00E94821428960FB640
:1033B000F894DEBF0FBECDBFDF91CF911F910F916B
:1033C000FF90EF900895DF92EF92FF920F931F937B
:1033D000CF93DF937C01062FEC0114C080E090E0D6
:1033E0000000019622EB82399207D1F7115010F4B8
:1033F0000EC01AE00E94E018882381F30E94ED18A5
:1034000089930150CE018E19D82E002391F78D2D6E
:103410009927DF91CF911F910F91FF90EF90DF904F
:1034200008950F931F93CF93DF93FC0197FD03C083
:1034300000E010E010C000E010E003C00F5F1F4F7D
:10344000FE01EF012196CF010E9441088823B1F7C8
:1034500005C00F5F1F4F81918823D9F7C801DF9105
:10346000CF911F910F9108950F931F93CF93DF93E7
:10347000EC01FB0177FF0BC08F010F5F1F4FCF01E6
:103480000E9441088993882331F0F801F5CF81919A
:1034900089938823E1F7DF91CF911F910F910895D0
:1034A000FC0101C0319680818823E1F7CF010E94A1
:1034B000341A08951F920F920FB60F9211248F9312
:1034C0009F93AF93BF931DBC1CBC809188009091CB
:1034D0008900A0918A00B0918B000196A11DB11DB9
:1034E0008093880090938900A0938A00B0938B000A
:1034F000BF91AF919F918F910F900FBE0F901F9032
:10350000189582E08EBD80E29EE49BBD8ABD89B79E
:10351000806189BF0895EF92FF920F931F938130CE
:1035200079F40E947A177B018C010E947A1761302E
:10353000D9F485B5887F9E2D9770892B85BD14C0E1
:10354000823079F40E947A177B018C010E947A17ED
:10355000613051F485B58770886685BD8F9AE3BC6C
:1035600003C087E00E9482141F910F91FF90EF909B
:103570000895EF92FF920F931F93813071F40E9490
:103580007A177B018C010E947A17DC01CB01992705
:10359000880F991F88599F4F3CC08230D9F40E94F0
:1035A0007A177B018C010E947A17DC01CB019927E5
:1035B000880F991F88599F4FDC01ED91FC91208164
:1035C00081E090E002C0880F991FEA94E2F7282B6F
:1035D000208330C0833071F40E947A177B018C0104
:1035E0000E947A17DC01CB019927880F991F805A16
:1035F0009F4FE2CF8430D9F40E947A177B018C016F
:103600000E947A17DC01CB019927880F991F805AF5
:103610009F4FDC01ED91FC91208181E090E002C0A0
:10362000880F991FEA94E2F780952823D1CF87E08D
:103630000E9482141F910F91FF90EF9008951F93A5
:10364000813031F40E9477186770606866B938C0BD
:10365000823029F40E947718607C67B931C08330CA
:10366000B9F417B10E947718107C6F70162B17B938
:10367000369A349BFECF349A24B165B17727762FE2
:103680006627620F711D882777FD8095982F12C0DD
:10369000843099F417B10E9477186F70107C106213
:1036A000612B67B9369A349BFECF349A65B1772780
:1036B000882799270E946B1703C087E00E94821415
:1036C0001F910895813029F40E9477187BBD6ABD4F
:1036D0000895823059F4609188007091890080913A
:1036E0008A0090918B000E946B1708958330D1F46B
:1036F0000E9477189B01AC011092880010928900FB
:1037000010928A0010928B0080918800909189001D
:10371000A0918A00B0918B0082179307A407B50788
:1037200054F4F2CF843021F40E9477186EBD0895CE
:1037300087E00E9482140895813039F460E87EE3C6
:1037400080E090E00E946B17089587E00E94821449
:103750000895892F9927449769F461E070E080E02B
:103760000E946313AA27BB27B068BC01CD010E9449
:103770006B17089588E00E9482140895882319F435
:103780000E947A17089587E00E9482140895292FD5
:1037900033272031310519F40E94BE1B08952231D0
:1037A000310519F40E94111708952331310519F4D8
:1037B0000E94D01608952431310519F40E94011693
:1037C00008952531310519F40E949C1B0895263176
:1037D000310519F40E94B91A08952731310519F4F9
:1037E0000E94621B08952A31310519F40E941F1BA3
:1037F00008952931310519F40E948B1A08952B314F
:10380000310519F40E947F19089588E00E948214FE
:103810000895629FD001739FF001829FE00DF11D1A
:10382000649FE00DF11D929FF00D839FF00D749F3A
:10383000F00D659FF00D9927729FB00DE11DF91FE6
:10384000639FB00DE11DF91FBD01CF011124089543
:10385000AA1BBB1B51E107C0AA1FBB1FA617B707B6
:1038600010F0A61BB70B881F991F5A95A9F78095D2
:103870009095BC01CD01089597FB092E05260ED029
:1038800057FD04D014D00AD0001C38F45095409550
:10389000309521953F4F4F4F5F4F0895F6F7909524
:1038A0008095709561957F4F8F4F9F4F0895A1E24E
:1038B0001A2EAA1BBB1BFD010DC0AA1FBB1FEE1FAA
:1038C000FF1FA217B307E407F50720F0A21BB30BF5
:1038D000E40BF50B661F771F881F991F1A9469F771
:1038E00060957095809590959B01AC01BD01CF01CD
:1038F00008952F923F924F925F926F927F928F9294
:103900009F92AF92BF92CF92DF92EF92FF920F936E
:103910001F93CF93DF93CDB7DEB7CA1BDB0B0FB678
:10392000F894DEBF0FBECDBF09942A883988488835
:103930005F846E847D848C849B84AA84B984C884CB
:10394000DF80EE80FD800C811B81AA81B981CE0FC2
:10395000D11D0FB6F894DEBF0FBECDBFED010895A7
:10396000E199FECFBFBBAEBBE09A11960DB20895B0
:10397000F7DF01921A94E1F70895E199FECFBFBBFA
:10398000AEBB0DBA11960FB6F894E29AE19A0FBE4B
:043990000895FFCFC8
:103994003B003800350032003A0037003400310073
:1039A4003900360033003000000000000000000041
:00000001FF
