:1000000012C02CC02BC02AC029C028C01DCC26C0BD
:1000100025C024C023C063CB21C020C01FC01EC088
:100020001DC01CC01BC011241FBECFE5D4E0DEBF25
:10003000CDBF10E0A0E6B0E0E4E5FBE102C0059032
:100040000D92A837B107D9F713E0A8E7B0E001C0D7
:100050001D92A73AB107E1F702D07BCDD1CFCFE512
:10006000D4E0DEBFCDBF2DDB08DC6BD837D1A2D109
:10007000A2D0FFCF80E090E00895DC01BF77062E8C
:100080005CDD0895CF93DF93CDB7DEB724970FB62D
:10009000F894DEBF0FBECDBFFE013196DC01BF7705
:1000A00084E0182E45DD69817A818B819C812496BC
:1000B0000FB6F894DEBF0FBECDBFDF91CF9108958C
:1000C000CF93DF93CDB7DEB722970FB6F894DEBF9C
:1000D0000FBECDBFFE013196DC01BF7782E0182E46
:1000E00027DD89819A8122960FB6F894DEBF0FBE74
:1000F000CDBFDF91CF910895EF92FF920F931F93A1
:100100008C0190E0E92E90E0F92EC7010A96D8DF25
:10011000E80EF91E000F111FC701800F911FD0DFDD
:100120008E0D9F1D1F910F91FF90EF900895EF92FC
:10013000FF920F931F938C0140E0E42E40E0F42ED9
:10014000C7010C96BDDF33E0000F111F3A95E1F7B0
:10015000080F191FC8018E0D9F1D1F910F91FF9051
:10016000EF900895CF93DF93CDB7DEB721970FB609
:10017000F894DEBF0FBECDBFDC01BF7781E0FE018A
:100180003196182ED5DC8981992721960FB6F894DF
:10019000DEBF0FBECDBFDF91CF9108958EE090E01E
:1001A000E1DF992708959927880F991F805F9F4F56
:1001B000D9DF99270895EF92FF921F93CF93DF9392
:1001C000EE24FF240DC0C12FDD27CE01B0DF049641
:1001D000C9DF80FF02C0CE01F4D00894E11CF11CFD
:1001E0001E2D85E090E0BEDFE81668F386E090E023
:1001F00067DFE7D0DF91CF911F91FF90EF900895D7
:10020000CF93DF93DB01BF77EA01FC0121971CF05C
:1002100087DC0192FBCFDF91CF910895CF92DF92DF
:10022000EF92FF920F931F93CF93DF93CDB7DEB77B
:1002300028970FB6F894DEBF0FBECDBFC82ED62EBE
:10024000EE24FF241EC0012F1127C80170DF48E0F3
:1002500050E0BC01CE010196D3DF4B815C81252F9C
:1002600033278C2D99272817390741F450708D2D8D
:1002700099274817590711F4C8010BC00894E11CCD
:10028000F11C1E2D85E090E06DDFE816E0F28FEFA7
:1002900090E028960FB6F894DEBF0FBECDBFDF9179
:1002A000CF911F910F91FF90EF90DF90CF90089525
:1002B0000F931F93182F062F602F812FAFDF8F3FD3
:1002C00049F4812F9927880F991F815F9F4F4ADF3B
:1002D000182FF2CF99271F910F9108950F931F9315
:1002E00080E090E0CFDE9B01AC015E6B63737070C9
:1002F00080709E7B621773078407950711F08AE070
:1003000006C084E090E02EDF823029F08BE009D730
:1003100080E090E011C08AE090E0D2DE8C0188E0BD
:1003200090E0CEDE081B190B1695079516950795DC
:100330000093820081E090E01F910F91089596FD57
:10034000906808951F93CF93DF93EC01892F99272D
:100350008031910590F427DF9927880F991F029625
:10036000BC0181E03ED6182F99279068C7D8812F0D
:10037000FBD4FC01D183C08302C0CE0162DBDF91DC
:10038000CF911F910895CF93DF93EC0197FD02C0A9
:100390008CE0C7D6CE018070907C8050904819F4D4
:1003A0008C2FE2D404C0CE019F73A6DE9068DF914B
:1003B000CF9108953CD4F2DE5BD980E090E09ED8E6
:1003C00008952F923F924F925F926F927F928F92F9
:1003D0009F92AF92BF92CF92DF92EF92FF920F93D4
:1003E0001F93CF93DF93CDB7DEB728970FB6F8945E
:1003F000DEBF0FBECDBF1C019ADE2C0148E050E0ED
:10040000BC01CE010196FCDEA980BA80A40CB51C0B
:100410008F812885820F912D911D2E81820F911D34
:10042000880F991F2ED59FD80296909384008093B1
:1004300083008F8188D83CD988249924C50192DE15
:10044000C82EC50101968EDE782EC50102968ADE81
:10045000682ECC2009F413C380E1C81629F4872D37
:10046000992787FD9095D2C291E1C91619F4C3016D
:100470009F77ADC28C2D8250873020F48C2D992728
:10048000039747C1E6E3CE1689F4072D112707FD30
:100490001095000F111F8091830090918400080F28
:1004A000191F39D8F80191838083B1C28C2D8B53E9
:1004B000843088F40C2D1127000F111F80918300C8
:1004C00090918400080F191F0657104024D8F80196
:1004D000918380832CC1F5E1CF1679F4E72DFF27B6
:1004E000E7FDF095EE0FFF1F80918300909184004F
:1004F000E80FF91F8081918189C28C2D8A51843047
:1005000070F4EC2DFF27EE0FFF1F80918300909178
:100510008400E80FF91FF49780819181FAC08C2D37
:1005200089598C3008F04EC0863028F486E0C80E19
:1005300000E010E002C08FD88C018DD84C0191EA08
:10054000C916F1F09C1538F0EFE9CE1669F0F0EA23
:10055000CF1681F50FC083EAC816F1F0C816B0F0C7
:1005600094EAC91639F51EC080E090E08016910625
:1005700001F51DC080E090E080169106D1F017C013
:1005800080E090E080169106A4F411C080E090E035
:100590008016910674F00BC080E090E008151905F4
:1005A00044F405C080E090E00815190514F081E0DE
:1005B00090E04C018114910409F463C2A60CB71CAD
:1005C00080E060C2E7EACE1639F4A60CB71C8DEFC6
:1005D0009FEFA80EB91E65C28C2D8056853208F09B
:1005E0009AC094E7C91641F436D888249924881A09
:1005F000990AC4019F773FC2E4E8CE16D1F4E72DF3
:10060000FF27E7FDF095EE0FFF1F8091830090918B
:100610008400E80FF91F2081318136FD3068862D76
:10062000992787FD9095280F391F3F7731832083C5
:1006300038C211D84C010FD88C01F8E7CF1609F455
:1006400049C0FC15A8F088E6C81661F18C1540F089
:1006500090E6C91609F1E4E6CE1609F058C01FC0AD
:10066000FCE6CF1641F180E7C81609F050C02DC056
:100670009EE7C916E9F19C1540F0EAE7CE1689F12C
:10068000FCE7CF1609F043C03CC080E8C81699F1DA
:1006900092E8C916E1F532C0080D191D38C00819D5
:1006A000190935C0F801E89D8001E99D100DF89DFC
:1006B000100D11242CC08114910411F48EE031D559
:1006C000C801B4011ADA8B0122C0C801B40115DADD
:1006D0008C011DC0082C02C0000F111F0A94E2F704
:1006E00016C0082C02C0159507950A94E2F70FC0B2
:1006F000082119210CC00829192909C00825192524
:1007000006C0082C02C0169507950A94E2F7C801A6
:100710009F77F4D60CC0FCEACF1621F081EBC81607
:10072000B1F502C0F8D64C0139D7882311F081E029
:10073000A9C1DF8008850D0D0D5F8E81080FEBD6F6
:100740007C01E9D61C01F3DC2C0148E050E0BC013F
:10075000CE01019655DDDFD65201A80EB91E8D2DB2
:100760008195F1D600D7EE0CFF1C8E199F0990934E
:100770008400809383001127C801880F991FAFD28E
:100780009CEAC91609F08CC1C401B8D689C1E8E554
:10079000CE1611F4C0D603C0F7E5CF1611F4BBD6C0
:1007A0006EC189E5C81611F480E007C09CE5C91642
:1007B00031F481E0BCD6A2D681E0B9D65CC1EAEAC8
:1007C000CE16C9F5C5010796CDDC082FC5010896E0
:1007D000C9DC1127902E88249927882A992AC501D7
:1007E0000B96C0DC082FC5010C96BCDC182F93D6E5
:1007F0003C0188159905A4F0802F9927982F882708
:10080000212F3327822B932B861597054CF0C3019C
:1008100088199909880F991F880F991F0F9602C090
:1008200083E090E08501080F191FC8019BDCE82ECA
:10083000C801019635C0FBEACF16E1F5C50108965F
:1008400091DCD82E08D74C0129E0E22EF12C85014D
:10085000055F1F4F14C0C80185DC292D332727FDF4
:100860003A95821729F4C80101967CDC881551F06D
:10087000DA9488E090E0E80EF91E085F1F4FDD2053
:1008800051F70AC114E0612E712C6E0C7F1C85019A
:10089000060D171DC801029665DCE82EC8010396F7
:1008A00061DCFF24FE2CEE249927E82AF92AAE0CFD
:1008B000BF1C7CC092EBC91619F4C30159D687C07E
:1008C000E3EBCE1629F427D6BC01C3015CD6E9C000
:1008D000F2E1CF1651F4872D992787FD909520914D
:1008E0008200821B9109906C91C08C2D865B8330B5
:1008F00008F061C08FE087150CF45AC045018418D8
:100900009508C30114DC2C0148E050E0BC018E01C5
:100910000F5F1F4FC80174DC96EBC916D9F480E055
:1009200006D622D2FC018181282F33276B817C815E
:10093000872F99272817390769F0822FB9DC682E8D
:10094000992787FD9095F3DB2C0148E050E0BC012E
:10095000C80156DC8E818195F6D505D6209183009D
:10096000309184008C01021B130B15950795FBD564
:10097000029690938400809383008F812885820F54
:10098000912D911D2E81820F911D880F991F069622
:1009900078D28F81D8D5C401B1D5C101AFD5C801F6
:1009A000ADD51301A980BA80A40CB51C80E06DC040
:1009B000C3015DD876C0F4EBCF1659F4ACD5D4D1D1
:1009C000F301EE0FFF1FE80FF91F8281938196D587
:1009D00068C085EBC81661F49ED54C019CD5C4D186
:1009E000F301EE0FFF1FE80FF91F9382828259C0B7
:1009F0009BEBC91619F4C301A5DC53C0ECEBCE1672
:100A000041F489D5672D70D39927906877D582E016
:100A10003CC0FEEBCF1619F47ED552D32CC084E532
:100A2000C81649F418D68C0116D64C0174D5402F3F
:100A3000B40123D324C09FE4C91649F40CD68C0119
:100A40000AD64C0168D5A801B401F6D218C0E3E378
:100A5000CE1649F400D64C015ED5B40100D39927D7
:100A600087FD909508C0FEE2CF1639F4F4D54C010D
:100A700052D5B401D3D242D502C08DE052D381E029
:100A800004C083E09CEAC91671F0A80EB11CE1EB2A
:100A9000CE1609F0D3CC07C051E0652E712CF7CEED
:100AA000CC2483E0F2CF8F8181954DD58F8128852D
:100AB000820F912D911D2E81820F911D880F991FFC
:100AC0000ED128960FB6F894DEBF0FBECDBFDF91D2
:100AD000CF911F910F91FF90EF90DF90CF90BF903B
:100AE000AF909F908F907F906F905F904F903F90CE
:100AF0002F90089585E890E00895FB01DC01A40F94
:100B0000B51FE40FF51F02C082918E9341505040F3
:100B10008FEF4F3F5807C1F70895582F6091780025
:100B20007091790014C0FB01EB57FF4F808185174E
:100B3000A1F0218126954281342F379533273795AF
:100B4000832F822B942F96950396680F791F83E04D
:100B50006030780740F3E0E0F0E0CF0108951F93A4
:100B600011E0812FDADF892B19F4812F992704C036
:100B70001F5FB9F780E090E01F910895EF92FF9218
:100B80000F931F93CF93DF93082F162FBA016D5F3A
:100B90007F4FE0907800F0907900D701AB57BF4FBE
:100BA000ED013981232F26959A81892F87958827F2
:100BB0008795E82FE22BF92FF695E617F70718F43B
:100BC00080E090E02DC0CF01861B970B282F220FCD
:100BD0003170322BFD013183292F220F881F882786
:100BE000881F822B82833695282F279522272795C9
:100BF000E22FE32BF82FF695EE0DFF1DE857FF4F80
:100C00000083842F880F1170812B8183952F990F7A
:100C1000842F881F8827881F892B828381E090E09A
:100C2000DF91CF911F910F91FF90EF900895109257
:100C300085008091860081708A6F8093860085E0B0
:100C4000809387000895CF93DF93C82FDD27D06866
:100C5000609178007091790039C0DB01AB57BF4FCC
:100C6000FD01418140FF23C046953281232F279506
:100C700022272795822F842B932F9695AC0156958A
:100C8000479520E030E00EC02F5F3F4FEE0FFF1F73
:100C9000EA0FFB1F838194818C179D0719F481E073
:100CA00090E01AC0E22FFF27E417F50768F3FD0173
:100CB000218126954281342F379533273795832F0D
:100CC000822B942F96950396680F791FF3E060307E
:100CD0007F0718F280E090E0DF91CF9108950F93A5
:100CE0001F93CF93DF938C01C0917800D09179004E
:100CF000CB57DF4F8881882311F081E012D2809199
:100D00007800909179008017910710F485E009D25E
:100D1000898186954A81942F979599279795292FB0
:100D2000282B342F3695E0917800F0917900E01B64
:100D3000F10BF0937900E0937800EB57FF4F1082AE
:100D4000200F311F922F990F81818170892B818310
:100D5000832F880F221F2227221F282B2283DF9117
:100D6000CF911F910F910895CF93DF93D6DEEC01C1
:100D7000892B11F483E0D5D1CE010396DF91CF9179
:100D80000895CF93DF93C9DEEC01892B11F483E042
:100D9000C8D1298126954A81342F37953327379535
:100DA000832F822B942F9695DF91CF910895EF9208
:100DB000FF920F931F93CF93DF93009178001091D0
:100DC00079004EC0E801CB57DF4F298126954A8133
:100DD000342F379533273795832F822B942F969571
:100DE00023E0E22EF12CE80EF91E88818823B1F170
:100DF000E6D3882399F5888126DF882379F56091E9
:100E0000780070917900A801461B570BCB018E0D1D
:100E10009F1D6B577F4F8B579F4F6FDEE091780080
:100E2000F0917900EB57FF4F3181532F5695428156
:100E3000242F279522272795822F852B942F96954F
:100E40008E0D9F1D282F220F3170322B3183292FB9
:100E5000220F881F8827881F822B82830E0D1F1D5B
:100E600083E00030180708F4ADCF0050134011F0B4
:100E700081E057D1DF91CF911F910F91FF90EF90BB
:100E80000895CF92DF92EF92FF920F931F93CF932B
:100E9000DF937C0100917800109179000B571F4F70
:100EA000F8018081882311F081E03BD1F801818134
:100EB00086952281922F979599279795C82EC92AB2
:100EC000E6016E012695D22EE601CE14DF04A8F4C9
:100ED0006EDFF801818186952281922F979599275F
:100EE0009795C82EC92AE6016E012695D22EE601F5
:100EF000CE14DF0410F484E014D1E0917800F09176
:100F00007900EE0DFF1DF0937900E0937800EB5728
:100F1000FF4F1082CE018E199F09382F330F218188
:100F20002170232B2183292F220F881F8827881FB8
:100F3000822B8283DF91CF911F910F91FF90EF90D1
:100F4000DF90CF900895FF920F931F93CF93DF937D
:100F5000F82E8B01E0917800F0917900EB57FF4F6C
:100F6000818186954281942F979599279795292F6E
:100F7000282B342F3695CB0103962817390708F014
:100F800016DF8F2DCADDEC0169816170A8018F2DFC
:100F9000F5DD882311F482E0C4D08F2DBEDD4981B8
:100FA00046956A81562F579555275795252F242BFF
:100FB000362F3695AE01DC012C0F3D1F06C0FA011D
:100FC0008381FD0182834F5F5F4F11964217530764
:100FD000B1F78FEF8883DF91CF911F910F91FF9031
:100FE00008950F931F93CF93DF93082FEB01B7DD85
:100FF000182FAE01602FC2DD882349F4D8DEAE0180
:10100000602F812FBBDD882311F482E08AD0812FED
:101010009927DF91CF911F910F9108950F931F93FF
:101020008B01A2DE000F111F080F191FF80181812B
:1010300092811F910F910895EF92FF920F931F934A
:101040008B017A0191DE000F111F080F191FF801A3
:10105000F282E1821F910F91FF90EF9008950F931C
:101060001F938B0181DE080F191FF80181819927D9
:1010700087FD90951F910F910895FF920F931F93F5
:101080008B01F42E71DE080F191FF801F1821F91F8
:101090000F91FF900895982F8450823058F0983027
:1010A00049F0993051F09A3041F086E03AD080E032
:1010B00090E0089581E090E0089582E090E0089546
:1010C000EF92FF921F93182F5CDE7C01812F4CDE84
:1010D000FC018081E0DF682F7727C701FAD4CB01BC
:1010E0001F91FF90EF900895FF920F931F938C0133
:1010F000F62E862FD0DF9927089FB001099F700D2B
:10110000189F700D11246F5F7F4F80E06ADF182FEA
:101110002BDEFC01F082812F99271F910F91FF9008
:1011200008951F93182F85E412D382E510D382E52A
:101130000ED38AE30CD3812F8F5B09D38AE007D3C8
:10114000FFCFAF92BF92DF92EF92FF920F931F9368
:10115000CF93DF93CDB7DEB764970FB6F894DEBFB9
:101160000FBECDBF87D77C0185E1E0D210E00BC078
:1011700080E090E00000019621E18B3D9207D1F7DD
:101180001F5F1A3F19F0C9D2882391F3C6D2882372
:1011900009F450C0570111E064E1CE010196E2D29A
:1011A0008431C1F540E0FE0134969E012C5E3F4F34
:1011B0008191480FE217F307D9F78981813091F5C2
:1011C000DA80D11679F52B8133278D2D80959927DB
:1011D0002817390739F58C89841721F5C5018E0147
:1011E0000C5F1F4F7C010894E11CF11CF801619118
:1011F0008F0143D7CE0144960817190711F0C70194
:10120000F1CF80E190E0A80EB91E86E08FD21D2DAF
:101210001F5F0AC0882319F486E088D2BDCF898178
:101220008A3131F085E182D289818A3109F0B4CFE7
:1012300086E07CD264960FB6F894DEBF0FBECDBFB9
:10124000DF91CF911F910F91FF90EF90DF90BF90B2
:10125000AF900895EF92FF920F931F93CF93DF9378
:10126000FC019B0177FD06C000E117E240E0EE249F
:10127000FF240BC08DE28193309521953F4FF4CF31
:10128000C901B8013AD49C018E01C901B80135D415
:101290006115710511F041E005C0442319F40130D6
:1012A000110519F4862F805D8193C8016AE070E012
:1012B00024D4EB010894E11CF11C85E0E816F1044C
:1012C000F9F61082DF91CF911F910F91FF90EF906F
:1012D0000895BF92CF92DF92EF92FF920F931F93E8
:1012E000CF93DF93CDB7DEB725970FB6F894DEBF67
:1012F0000FBECDBF982F882321F493D1FC0110821B
:1013000072C08130A9F480E07FD158D28C0181E095
:101310000ED10F5F1F4FB80116DE80E075D18C0132
:1013200081E005D121DDB8016BD2F5D0F4D05BC0EE
:101330008250833018F09630D9F521C09230B1F444
:1013400080E062D13BD28C0181E05ED137D20F5F69
:101350001F4F080F191FB80180E043DEB82E81E04F
:1013600053D16C0180E050D17C0113C0933039F42B
:1013700080E064D1BC01CE0101966CDF04C080E046
:10138000D6D089831A82FE01319680818823E1F7C5
:1013900014C08B2DE9DC8C01B60132D2B701C80133
:1013A0004AD2B9D0B8D08B2D99279068A7D01BC04E
:1013B0009530C9F087E0B5DE16C07E010894E11CC7
:1013C000F11C8F010E191F0981E01ED1F7D10F5FAB
:1013D0001F4F080F191FB80180E003DEB82E81E00F
:1013E00013D16C01D6CF25960FB6F894DEBF0FBE91
:1013F000CDBFDF91CF911F910F91FF90EF90DF90C4
:10140000CF90BF9008951F93182F85D0113011F4FD
:1014100084D103C0123021F48DD199276FD002C03E
:1014200087E07FDE1F910895FF920F931F93CF9364
:10143000DF93EC01F62E97FF0DC002C088D1E801C2
:101440008E010F5F1F4FCE018DD68823B9F705C0DF
:1014500021967DD188818823D9F7FF2011F08AE079
:1014600076D1DF91CF911F910F91FF9008950F9347
:101470001F93CF93DF93CDB7DEB728970FB6F894BD
:10148000DEBF0FBECDBF813019F4CBD061E00BC001
:10149000823059F4E0D0BC018E010F5F1F4FC801AC
:1014A000D9DE61E0C801C0DF1DC0843019F4B9D0B5
:1014B00060E0F9CF853049F4CED0BC018E010F5FDA
:1014C0001F4FC801C7DE60E0EDCF833021F4C3D0E9
:1014D0003ED18AE003C0863019F4BDD038D102C0B5
:1014E00087E01FDE18D028960FB6F894DEBF0FBE37
:1014F000CDBFDF91CF911F910F910895E0917C00B6
:10150000F0917D003296F0937D00E0937C0032975D
:10151000938382830895E0917C00F0917D00808127
:1015200091813297F0937D00E0937C000895992794
:10153000880F991FE0917C00F0917D00E81BF90B6A
:10154000808191810895992787FD9095880F991F33
:1015500020917C0030917D00280F391F30937D0051
:1015600020937C00089580917C0090917D000895E7
:10157000880F991FE0917A00F0917B00E80FF91F26
:10158000808191810895880F991FE0917A00F091F0
:101590007B00E80FF91F71836083089540E050E0FD
:1015A00020917C0030917D0080917E0090917F00A1
:1015B0002817390711F441E050E0CA010895482F77
:1015C0005527506880917A0090917B0020917C0093
:1015D00030917D00281B390B359527952F5F3F4FA4
:1015E000FC0160E070E00AC0819191918417950739
:1015F00019F481E090E008956F5F7F4F62177307E1
:1016000099F780E090E008959927880F991FE0915D
:101610007C00F0917D00E81BF90B80819181B3D6AD
:101620000895E0917C00F0917D0080819181329756
:10163000F0937D00E0937C00A6D608959927880F4B
:10164000991FE0917C00F0917D00E81BF90B8081EF
:10165000918175D60895E0917C00F0917D008081A4
:1016600091813297F0937D00E0937C0068D60895D5
:101670000F931F93082F3EDA90937B0080937A009C
:10168000029790937D0080937C001127000F111F1B
:10169000C8010296F6DB80917C0090917D00800F5E
:1016A000911F90937D0080937C001F910F9108956E
:1016B00080917C0090917D0090937F0080937E00CC
:1016C0000895109285031092A60310BC83E389B994
:1016D0001BB888E98AB986E880BD789408951F927E
:1016E0000F920FB60F9211248F939F93EF93FF9356
:1016F000809185039CB1E6E8F3E0E80FF11D90834B
:101700008F5F8F7180938503FF91EF919F918F91F0
:101710000F900FBE0F901F90189580918503209118
:10172000A603821B99278F71907008955D9BFECF51
:101730008CB908959091A603E6E8F3E0E90FF11D56
:1017400080819F5F9F719093A60399270895982F9A
:101750008A3021F45D9BFECF8DE08CB95D9BFECF7E
:101760009CB90895DF92EF92FF920F931F93CF934E
:10177000DF937C01062FEC0112C080E090E00000B6
:10178000019629E589349207D1F7115010F40CC065
:101790001AE0C3DF882389F3CDDF89930150CE019E
:1017A0008E19D82E0023A1F78D2D9927DF91CF9187
:1017B0001F910F91FF90EF90DF9008950F931F936B
:1017C000CF93DF93FC0197FD03C000E010E00FC052
:1017D00000E010E003C00F5F1F4FFE01EF012196F4
:1017E000CF01C0D48823B9F705C00F5F1F4F819187
:1017F0008823D9F7C801DF91CF911F910F910895E8
:101800000F931F93CF93DF93EC01FB0177FF0AC087
:101810008F010F5F1F4FCF01A5D48993882331F02B
:10182000F801F6CF819189938823E1F7DF91CF9179
:101830001F910F910895FC0101C03196808188238A
:10184000E1F7CF01DDDF08951F920F920FB60F92DF
:1018500011248F939F931DBC1CBC8091800090919C
:101860008100019690938100809380009F918F91D9
:101870000F900FBE0F901F90189582E08EBD80E1F3
:1018800097E29BBD8ABD89B7806189BF0895CF93D8
:10189000DF93813061F43FDEEC013DDE8130B9F44D
:1018A00085B5887F9E012770822B85BD10C0823050
:1018B00061F431DEEC012FDE813049F485B58770AB
:1018C000886685BDBB9AC3BD02C087E02ADCDF9174
:1018D000CF9108950F931F93813051F41CDE8C013A
:1018E0001ADEE82FFF27EE0FFF1FE859FF4F30C029
:1018F0008230B9F410DE8C010EDEE82FFF27EE0FE8
:10190000FF1FE859FF4F0190F081E02D208181E019
:1019100090E002C0880F991F0A95E2F7282B2083D8
:1019200027C0833051F4F7DD8C01F5DDE82FFF2768
:10193000EE0FFF1FE05AFF4FE6CF8430B9F4EBDD26
:101940008C01E9DDE82FFF27EE0FFF1FE05AFF4F64
:101950000190F081E02D208181E090E002C0880FAD
:10196000991F0A95E2F780952823D9CF87E0D9DB24
:101970001F910F9108951F93813029F46CDE8770B9
:10198000806886B92DC0823021F465DE807C87B9FD
:1019900027C0833091F417B15EDE107C8F70182B56
:1019A00017B9369A349BFECF349A24B185B1992762
:1019B000982F8827820F911D0FC0843079F417B1BA
:1019C0004ADE8F70107C1062812B87B9369A349B67
:1019D000FECF349A85B1992791DD02C087E0A1DB63
:1019E0001F910895813021F436DE9BBD8ABD089594
:1019F000823031F480918000909181007FDD0895E4
:101A0000833071F428DE9C011092810010928000D6
:101A100080918000909181008217930744F4F8CF61
:101A2000843019F418DE8EBD089587E07ADB0895BE
:101A3000813021F480E49FE161DD089587E071DB6E
:101A40000895892F9927449741F461E070E080E080
:101A5000C8DA9927906852DD089588E062DB08951E
:101A6000882311F458DD089587E05BDB0895292F62
:101A700033272031310511F4F3DF08952231310588
:101A800011F4F5DC08952331310511F4BCDC08951F
:101A90002431310511F41DDC08952531310511F48F
:101AA000C7DF08952631310511F414DF0895273179
:101AB000310511F497DF08952A31310511F45BDF08
:101AC00008952931310511F4E2DE089588E029DB1B
:101AD0000895AA1BBB1B51E107C0AA1FBB1FA61775
:101AE000B70710F0A61BB70B881F991F5A95A9F7C7
:101AF00080959095BC01CD01089597FB092E07268E
:101B00000AD077FD04D0E5DF06D000201AF47095E6
:101B100061957F4F0895F6F7909581959F4F0895B1
:101B2000E199FECFBFBBAEBBE09A11960DB208950E
:101B3000F7DF01921A94E1F70895E199FECFBFBB58
:101B4000AEBB0DBA11960FB6F894E29AE19A0FBEA9
:041B50000895FFCF26
:101B54000000380035003200000037003400310046
:081B64000000360033003000E0
:00000001FF
