:1000000012C02CC02BC04ACC29C028C027C026C093
:1000100025C024C023C07DCB21C020C01FC01EC06E
:100020001DC01CC01BC011241FBECFE5D4E0DEBF25
:10003000CDBF10E0A0E6B0E0E0E6FCE102C0059034
:100040000D92A036B107D9F713E0A0E6B0E001C0E9
:100050001D92A039B107E1F702D001CED1CFCFE593
:10006000D4E0DEBFCDBF47DB39DC80D837D1A2D1A9
:10007000A2D0FFCF80E090E00895DC01BF77062E8C
:10008000E2DD0895CF93DF93CDB7DEB724970FB6A7
:10009000F894DEBF0FBECDBFFE013196DC01BF7705
:1000A00084E0182ECBDD69817A818B819C81249636
:1000B0000FB6F894DEBF0FBECDBFDF91CF9108958C
:1000C000CF93DF93CDB7DEB722970FB6F894DEBF9C
:1000D0000FBECDBFFE013196DC01BF7782E0182E46
:1000E000ADDD89819A8122960FB6F894DEBF0FBEEE
:1000F000CDBFDF91CF910895EF92FF920F931F93A1
:100100008C0190E0E92E90E0F92EC7010A96D8DF25
:10011000E80EF91E000F111FC701800F911FD0DFDD
:100120008E0D9F1D1F910F91FF90EF900895EF92FC
:10013000FF920F931F938C0140E0E42E40E0F42ED9
:10014000C7010C96BDDF33E0000F111F3A95E1F7B0
:10015000080F191FC8018E0D9F1D1F910F91FF9051
:10016000EF900895CF93DF93CDB7DEB721970FB609
:10017000F894DEBF0FBECDBFDC01BF7781E0FE018A
:100180003196182E5BDD8981992721960FB6F89458
:10019000DEBF0FBECDBFDF91CF9108958EE090E01E
:1001A000E1DF992708959927880F991F805F9F4F56
:1001B000D9DF99270895EF92FF921F93CF93DF9392
:1001C000EE24FF240DC0C12FDD27CE01B0DF049641
:1001D000C9DF80FF02C0CE01F4D00894E11CF11CFD
:1001E0001E2D85E090E0BEDFE81668F386E090E023
:1001F00067DFE7D0DF91CF911F91FF90EF900895D7
:10020000CF93DF93DB01BF77EA01FC0121971CF05C
:100210000DDD0192FBCFDF91CF910895CF92DF9258
:10022000EF92FF920F931F93CF93DF93CDB7DEB77B
:1002300028970FB6F894DEBF0FBECDBFC82ED62EBE
:10024000EE24FF241EC0012F1127C80170DF48E0F3
:1002500050E0BC01CE010196D3DF4B815C81252F9C
:1002600033278C2D99272817390741F450708D2D8D
:1002700099274817590711F4C8010BC00894E11CCD
:10028000F11C1E2D85E090E06DDFE816E0F28FEFA7
:1002900090E028960FB6F894DEBF0FBECDBFDF9179
:1002A000CF911F910F91FF90EF90DF90CF90089525
:1002B0000F931F93182F062F602F812FAFDF8F3FD3
:1002C00049F4812F9927880F991F815F9F4F4ADF3B
:1002D000182FF2CF99271F910F9108950F931F9315
:1002E00080E090E0CFDE9B01AC015E6B63737070C9
:1002F00080709E7B621773078407950711F08AE070
:1003000006C084E090E02EDF823029F08BE009D730
:1003100080E090E011C08AE090E0D2DE8C0188E0BD
:1003200090E0CEDE081B190B1695079516950795DC
:1003300000936B0081E090E01F910F91089596FD6E
:10034000906808951F93CF93DF93EC01892F99272D
:100350008031910590F427DF9927880F991F029625
:10036000BC0181E03ED6182F99279068E1D8812FF3
:10037000FBD4FC01D183C08302C0CE01BFDBDF917F
:10038000CF911F910895CF93DF93EC0197FD02C0A9
:100390008CE0C7D6CE018070907C8050904819F4D4
:1003A0008C2FE2D404C0CE019F73A6DE9068DF914B
:1003B000CF9108953CD4F2DE75D980E090E0B8D8B2
:1003C00008952F923F924F925F926F927F928F92F9
:1003D0009F92AF92BF92CF92DF92EF92FF920F93D4
:1003E0001F93CF93DF93CDB7DEB728970FB6F8945E
:1003F000DEBF0FBECDBF1C019ADE2C0148E050E0ED
:10040000BC01CE010196FCDEA980BA80A40CB51C0B
:100410008F812885820F912D911D2E81820F911D34
:10042000880F991F2ED5B9D8029690936D008093AE
:100430006C008F81A2D856D988249924C50192DEF8
:10044000C82EC50101968EDE782EC50102968ADE81
:10045000682ECC2009F413C380E1C81629F4872D37
:10046000992787FD9095D2C291E1C91619F4C3016D
:100470009F77ADC28C2D8250873020F48C2D992728
:10048000039747C1E6E3CE1689F4072D112707FD30
:100490001095000F111F80916C0090916D00080F56
:1004A000191F53D8F80191838083B1C28C2D8B53CF
:1004B000843088F40C2D1127000F111F80916C00DF
:1004C00090916D00080F191F065710403ED8F80193
:1004D000918380832CC1F5E1CF1679F4E72DFF27B6
:1004E000E7FDF095EE0FFF1F80916C0090916D007D
:1004F000E80FF91F8081918189C28C2D8A51843047
:1005000070F4EC2DFF27EE0FFF1F80916C0090918F
:100510006D00E80FF91FF49780819181FAC08C2D4E
:1005200089598C3008F04EC0863028F486E0C80E19
:1005300000E010E002C0A9D88C01A7D84C0191EAD4
:10054000C916F1F09C1538F0EFE9CE1669F0F0EA23
:10055000CF1681F50FC083EAC816F1F0C816B0F0C7
:1005600094EAC91639F51EC080E090E08016910625
:1005700001F51DC080E090E080169106D1F017C013
:1005800080E090E080169106A4F411C080E090E035
:100590008016910674F00BC080E090E008151905F4
:1005A00044F405C080E090E00815190514F081E0DE
:1005B00090E04C018114910409F463C2A60CB71CAD
:1005C00080E060C2E7EACE1639F4A60CB71C8DEFC6
:1005D0009FEFA80EB91E65C28C2D8056853208F09B
:1005E0009AC094E7C91641F450D888249924881AEF
:1005F000990AC4019F773FC2E4E8CE16D1F4E72DF3
:10060000FF27E7FDF095EE0FFF1F80916C009091A2
:100610006D00E80FF91F2081318136FD3068862D8D
:10062000992787FD9095280F391F3F7731832083C5
:1006300038C22BD84C0129D88C01F8E7CF1609F421
:1006400049C0FC15A8F088E6C81661F18C1540F089
:1006500090E6C91609F1E4E6CE1609F058C01FC0AD
:10066000FCE6CF1641F180E7C81609F050C02DC056
:100670009EE7C916E9F19C1540F0EAE7CE1689F12C
:10068000FCE7CF1609F043C03CC080E8C81699F1DA
:1006900092E8C916E1F532C0080D191D38C00819D5
:1006A000190935C0F801E89D8001E99D100DF89DFC
:1006B000100D11242CC08114910411F48EE031D559
:1006C000C801B40163DA8B0122C0C801B4015EDA4B
:1006D0008C011DC0082C02C0000F111F0A94E2F704
:1006E00016C0082C02C0159507950A94E2F70FC0B2
:1006F000082119210CC00829192909C00825192524
:1007000006C0082C02C0169507950A94E2F7C801A6
:100710009F770ED70CC0FCEACF1621F081EBC816EC
:10072000B1F502C012D74C0153D7882311F081E0F4
:10073000A9C1DF8008850D0D0D5F8E81080F05D7DB
:100740007C0103D71C01F3DC2C0148E050E0BC0124
:10075000CE01019655DDF9D65201A80EB91E8D2D98
:1007600081950BD71AD7EE0CFF1C8E199F09909319
:100770006D0080936C001127C801880F991FAFD2BC
:100780009CEAC91609F08CC1C401D2D689C1E8E53A
:10079000CE1611F4DAD603C0F7E5CF1611F4D5D68C
:1007A0006EC189E5C81611F480E007C09CE5C91642
:1007B00031F481E0D6D6BCD681E0D3D65CC1EAEA7A
:1007C000CE16C9F5C5010796CDDC082FC5010896E0
:1007D000C9DC1127902E88249927882A992AC501D7
:1007E0000B96C0DC082FC5010C96BCDC182FADD6CB
:1007F0003C0188159905A4F0802F9927982F882708
:10080000212F3327822B932B861597054CF0C3019C
:1008100088199909880F991F880F991F0F9602C090
:1008200083E090E08501080F191FC8019BDCE82ECA
:10083000C801019635C0FBEACF16E1F5C50108965F
:1008400091DCD82E22D74C0129E0E22EF12C850133
:10085000055F1F4F14C0C80185DC292D332727FDF4
:100860003A95821729F4C80101967CDC881551F06D
:10087000DA9488E090E0E80EF91E085F1F4FDD2053
:1008800051F70AC114E0612E712C6E0C7F1C85019A
:10089000060D171DC801029665DCE82EC8010396F7
:1008A00061DCFF24FE2CEE249927E82AF92AAE0CFD
:1008B000BF1C7CC092EBC91619F4C30173D687C064
:1008C000E3EBCE1629F441D6BC01C30176D6E9C0CC
:1008D000F2E1CF1651F4872D992787FD909520914D
:1008E0006B00821B9109906C91C08C2D865B8330CC
:1008F00008F061C08FE087150CF45AC045018418D8
:100900009508C30114DC2C0148E050E0BC018E01C5
:100910000F5F1F4FC80174DC96EBC916D9F480E055
:1009200020D622D2FC018181282F33276B817C8144
:10093000872F99272817390769F0822FB9DC682E8D
:10094000992787FD9095F3DB2C0148E050E0BC012E
:10095000C80156DC8E81819510D61FD620916C007F
:1009600030916D008C01021B130B1595079515D660
:10097000029690936D0080936C008F812885820F82
:10098000912D911D2E81820F911D880F991F069622
:1009900078D28F81F2D5C401CBD5C101C9D5C801A8
:1009A000C7D51301A980BA80A40CB51C80E06DC026
:1009B000C301BAD876C0F4EBCF1659F4C6D5D4D15A
:1009C000F301EE0FFF1FE80FF91F82819381B0D56D
:1009D00068C085EBC81661F4B8D54C01B6D5C4D152
:1009E000F301EE0FFF1FE80FF91F9382828259C0B7
:1009F0009BEBC91619F4C301A5DC53C0ECEBCE1672
:100A000041F4A3D5672D70D39927906891D582E0E2
:100A10003CC0FEEBCF1619F498D552D32CC084E518
:100A2000C81649F432D68C0130D64C018ED5402FF1
:100A3000B40123D324C09FE4C91649F426D68C01FF
:100A400024D64C0182D5A801B401F6D218C0E3E344
:100A5000CE1649F41AD64C0178D5B40100D39927A3
:100A600087FD909508C0FEE2CF1639F40ED64C01F2
:100A70006CD5B401D3D25CD502C08DE052D381E0F5
:100A800004C083E09CEAC91671F0A80EB11CE1EB2A
:100A9000CE1609F0D3CC07C051E0652E712CF7CEED
:100AA000CC2483E0F2CF8F81819567D58F81288513
:100AB000820F912D911D2E81820F911D880F991FFC
:100AC0000ED128960FB6F894DEBF0FBECDBFDF91D2
:100AD000CF911F910F91FF90EF90DF90CF90BF903B
:100AE000AF909F908F907F906F905F904F903F90CE
:100AF0002F9008958EE690E00895FB01DC01A40F8D
:100B0000B51FE40FF51F02C082918E9341505040F3
:100B10008FEF4F3F5807C1F70895582F609160003D
:100B20007091610014C0FB01E259FF4F808185176D
:100B3000A1F0218126954281342F379533273795AF
:100B4000832F822B942F96950396680F791F83E04D
:100B50006030780740F3E0E0F0E0CF0108951F93A4
:100B600011E0812FDADF892B19F4812F992704C036
:100B70001F5FB9F780E090E01F910895EF92FF9218
:100B80000F931F93CF93DF93082F162FBA016D5F3A
:100B90007F4FE0906000F0906100D701A259BF4FF5
:100BA000ED013981232F26959A81892F87958827F2
:100BB0008795E82FE22BF92FF695E617F70718F43B
:100BC00080E090E02DC0CF01861B970B282F220FCD
:100BD0003170322BFD013183292F220F881F882786
:100BE000881F822B82833695282F279522272795C9
:100BF000E22FE32BF82FF695EE0DFF1DEF58FF4F78
:100C00000083842F880F1170812B8183952F990F7A
:100C1000842F881F8827881F892B828381E090E09A
:100C2000DF91CF911F910F91FF90EF900895109257
:100C30006E0080916F0081708A6F80936F0085E0F5
:100C4000809370000895CF93DF93C82FDD27D0687D
:100C5000609160007091610039C0DB01A259BF4F03
:100C6000FD01418140FF23C046953281232F279506
:100C700022272795822F842B932F9695AC0156958A
:100C8000479520E030E00EC02F5F3F4FEE0FFF1F73
:100C9000EA0FFB1F838194818C179D0719F481E073
:100CA00090E01AC0E22FFF27E417F50768F3FD0173
:100CB000218126954281342F379533273795832F0D
:100CC000822B942F96950396680F791FF3E060307E
:100CD0007F0718F280E090E0DF91CF9108950F93A5
:100CE0001F93CF93DF938C01C0916000D09161007E
:100CF000C259DF4F8881882311F081E012D28091A0
:100D00006000909161008017910710F485E009D28E
:100D1000898186954A81942F979599279795292FB0
:100D2000282B342F3695E0916000F0916100E01B94
:100D3000F10BF0936100E0936000E259FF4F1082E5
:100D4000200F311F922F990F81818170892B818310
:100D5000832F880F221F2227221F282B2283DF9117
:100D6000CF911F910F910895CF93DF93D6DEEC01C1
:100D7000892B11F483E0D5D1CE010396DF91CF9179
:100D80000895CF93DF93C9DEEC01892B11F483E042
:100D9000C8D1298126954A81342F37953327379535
:100DA000832F822B942F9695DF91CF910895EF9208
:100DB000FF920F931F93CF93DF93009160001091E8
:100DC00061004EC0E801C259DF4F298126954A8152
:100DD000342F379533273795832F822B942F969571
:100DE00023E0E22EF12CE80EF91E88818823B1F170
:100DF00000D4882399F5888126DF882379F56091CE
:100E0000600070916100A801461B570BCB018E0D4D
:100E10009F1D62597F4F82599F4F6FDEE0916000A6
:100E2000F0916100E259FF4F3181532F5695428175
:100E3000242F279522272795822F852B942F96954F
:100E40008E0D9F1D282F220F3170322B3183292FB9
:100E5000220F881F8827881F822B82830E0D1F1D5B
:100E600083E00030180708F4ADCF0050134011F0B4
:100E700081E057D1DF91CF911F910F91FF90EF90BB
:100E80000895CF92DF92EF92FF920F931F93CF932B
:100E9000DF937C01009160001091610002591F4FA7
:100EA000F8018081882311F081E03BD1F801818134
:100EB00086952281922F979599279795C82EC92AB2
:100EC000E6016E012695D22EE601CE14DF04A8F4C9
:100ED0006EDFF801818186952281922F979599275F
:100EE0009795C82EC92AE6016E012695D22EE601F5
:100EF000CE14DF0410F484E014D1E0916000F0918E
:100F00006100EE0DFF1DF0936100E0936000E25977
:100F1000FF4F1082CE018E199F09382F330F218188
:100F20002170232B2183292F220F881F8827881FB8
:100F3000822B8283DF91CF911F910F91FF90EF90D1
:100F4000DF90CF900895FF920F931F93CF93DF937D
:100F5000F82E8B01E0916000F0916100E259FF4FA3
:100F6000818186954281942F979599279795292F6E
:100F7000282B342F3695CB0103962817390708F014
:100F800016DF8F2DCADDEC0169816170A8018F2DFC
:100F9000F5DD882311F482E0C4D08F2DBEDD4981B8
:100FA00046956A81562F579555275795252F242BFF
:100FB000362F3695AE01DC012C0F3D1F06C0FA011D
:100FC0008381FD0182834F5F5F4F11964217530764
:100FD000B1F78FEF8883DF91CF911F910F91FF9031
:100FE00008950F931F93CF93DF93082FEB01B7DD85
:100FF000182FAE01602FC2DD882349F4D8DEAE0180
:10100000602F812FBBDD882311F482E08AD0812FED
:101010009927DF91CF911F910F9108950F931F93FF
:101020008B01A2DE000F111F080F191FF80181812B
:1010300092811F910F910895EF92FF920F931F934A
:101040008B017A0191DE000F111F080F191FF801A3
:10105000F282E1821F910F91FF90EF9008950F931C
:101060001F938B0181DE080F191FF80181819927D9
:1010700087FD90951F910F910895FF920F931F93F5
:101080008B01F42E71DE080F191FF801F1821F91F8
:101090000F91FF900895982F8450823058F0983027
:1010A00049F0993051F09A3041F086E03AD080E032
:1010B00090E0089581E090E0089582E090E0089546
:1010C000EF92FF921F93182F5CDE7C01812F4CDE84
:1010D000FC018081E0DF682F7727C70143D5CB0172
:1010E0001F91FF90EF900895FF920F931F938C0133
:1010F000F62E862FD0DF9927089FB001099F700D2B
:10110000189F700D11246F5F7F4F80E06ADF182FEA
:101110002BDEFC01F082812F99271F910F91FF9008
:1011200008951F93182F85E43DD382E53BD382E5D4
:1011300039D38AE337D3812F8F5B34D38AE032D31C
:10114000929AC09A81E19CE5A4E0B0E0000001978A
:10115000A109B109D8F7C09881E19CE5A4E0B0E00D
:1011600000000197A109B109D8F7EACFAF92BF9269
:10117000DF92EF92FF920F931F93CF93DF93CDB740
:10118000DEB764970FB6F894DEBF0FBECDBF72D73F
:101190007C01929AC09A85E1E3D210E00BC080E016
:1011A00090E00000019621E18B3D9207D1F71F5F8F
:1011B0001A3F19F0CCD2882391F3C9D2882309F4BD
:1011C00052C0570111E064E1CE010196F5D284319D
:1011D000C1F540E0FE0134969E012C5E3F4F8191A7
:1011E000480FE217F307D9F78981813091F5DA804A
:1011F000D11679F52B8133278D2D809599272817C6
:10120000390739F58C89841721F5C5018E010C5FEA
:101210001F4F7C010894E11CF11CF80161918F01C2
:101220002CD7CE0144960817190711F0C701F1CF4A
:1012300080E190E0A80EB91E86E092D21D2D1F5FBE
:101240000AC0882319F486E08BD2BDCF89818A3108
:1012500031F085E185D289818A3109F0B4CF86E009
:101260007FD2C098FFCF929864960FB6F894DEBFF5
:101270000FBECDBFDF91CF911F910F91FF90EF90E7
:10128000DF90BF90AF900895EF92FF920F931F935E
:10129000CF93DF93FC019B0177FD06C000E117E2CD
:1012A00040E0EE24FF240BC08DE281933095219520
:1012B0003F4FF4CFC901B80169D49C018E01C90127
:1012C000B80164D46115710511F041E005C04423F3
:1012D00019F40130110519F4862F805D8193C8013E
:1012E0006AE070E053D4EB010894E11CF11C85E046
:1012F000E816F104F9F61082DF91CF911F910F915A
:10130000FF90EF900895BF92CF92DF92EF92FF92FD
:101310000F931F93CF93DF93CDB7DEB725970FB60B
:10132000F894DEBF0FBECDBF982F882321F493D150
:10133000FC01108272C08130A9F480E07FD168D2B4
:101340008C0181E00ED10F5F1F4FB801FCDD80E002
:1013500075D18C0181E005D107DDB8017BD2F5D0D4
:10136000F4D05BC08250833018F09630D9F521C09C
:101370009230B1F480E062D14BD28C0181E05ED139
:1013800047D20F5F1F4F080F191FB80180E029DEF9
:10139000B82E81E053D16C0180E050D17C0113C0A4
:1013A000933039F480E064D1BC01CE0101966CDF4A
:1013B00004C080E0D6D089831A82FE0131968081F4
:1013C0008823E1F714C08B2DCFDC8C01B60142D20B
:1013D000B701C8015AD2B9D0B8D08B2D99279068DF
:1013E000A7D01BC09530C9F087E09BDE16C07E01F8
:1013F0000894E11CF11C8F010E191F0981E01ED118
:1014000007D20F5F1F4F080F191FB80180E0E9DDF9
:10141000B82E81E013D16C01D6CF25960FB6F89483
:10142000DEBF0FBECDBFDF91CF911F910F91FF9017
:10143000EF90DF90CF90BF9008951F93182F85D025
:10144000113011F484D103C0123021F49ED19927B8
:101450006FD002C087E065DE1F910895FF920F9361
:101460001F93CF93DF93EC01F62E97FF0DC002C0C0
:1014700099D1E8018E010F5F1F4FCE0173D68823EB
:10148000B9F705C021968ED188818823D9F7FF202E
:1014900011F08AE087D1DF91CF911F910F91FF90DA
:1014A00008950F931F93CF93DF93CDB7DEB728979F
:1014B0000FB6F894DEBF0FBECDBF813019F4CBD08C
:1014C00061E00BC0823059F4E0D0BC018E010F5FA7
:1014D0001F4FC801D9DE61E0C801C0DF1DC08430E4
:1014E00019F4B9D060E0F9CF853049F4CED0BC0111
:1014F0008E010F5F1F4FC801C7DE60E0EDCF833064
:1015000021F4C3D04FD18AE003C0863019F4BDD096
:1015100049D102C087E005DE18D028960FB6F894AE
:10152000DEBF0FBECDBFDF91CF911F910F91089508
:10153000E0916400F09165003296F0936500E093CD
:1015400064003297938382830895E0916400F09160
:101550006500808191813297F0936500E09364008B
:1015600008959927880F991FE0916400F091650014
:10157000E81BF90B808191810895992787FD90954B
:10158000880F991F2091640030916500280F391F42
:1015900030936500209364000895809164009091D9
:1015A00065000895880F991FE0916200F091630033
:1015B000E80FF91F808191810895880F991FE091AC
:1015C0006200F0916300E80FF91F71836083089552
:1015D00040E050E020916400309165008091660009
:1015E000909167002817390711F441E050E0CA01D3
:1015F0000895482F552750688091620090916300AC
:101600002091640030916500281B390B3595279592
:101610002F5F3F4FFC0160E070E00AC08191919123
:101620008417950719F481E090E008956F5F7F4F6C
:101630006217730799F780E090E008959927880F63
:10164000991FE0916400F0916500E81BF90B80811F
:10165000918199D60895E0916400F09165008081B0
:1016600091813297F0936500E09364008CD60895E1
:101670009927880F991FE0916400F0916500E81B9D
:10168000F90B808191815BD60895E0916400F0911F
:101690006500808191813297F0936500E09364004A
:1016A0004ED608950F931F93082F24DA909363006A
:1016B00080936200029790936500809364001127E5
:1016C000000F111FC8010296DCDB8091640090912D
:1016D0006500800F911F90936500809364001F91B7
:1016E0000F91089580916400909165009093670038
:1016F00080936600089510926E0310928F0310BCC1
:101700008FEC89B91BB888E98AB986E880BD7894DE
:1017100008951F920F920FB60F9211248F939F93EB
:10172000EF93FF9380916E039CB1EFE6F3E0E80F37
:10173000F11D90838F5F8F7180936E03FF91EF9106
:101740009F918F910F900FBE0F901F9018958091D1
:101750006E0320918F03821B99278F7190700895DB
:10176000982F5D9BFECF8AB18F768AB99CB95D9B1D
:10177000FECF80E090E00000019626E182359207DE
:10178000D1F78AB180698AB9089590918F03EFE605
:10179000F3E0E90FF11D80819F5F9F7190938F03AC
:1017A000992708951F93182F8A3011F48DE0D8DF00
:1017B000812FD6DF1F910895DF92EF92FF920F9352
:1017C0001F93CF93DF937C01062FEC0112C080E0C2
:1017D00090E00000019629E589349207D1F7115075
:1017E00010F40CC01AE0B3DF882389F3CEDF8993AD
:1017F0000150CE018E19D82E0023A1F78D2D9927E7
:10180000DF91CF911F910F91FF90EF90DF9008959E
:101810000F931F93CF93DF93FC0197FD03C000E06C
:1018200010E00FC000E010E003C00F5F1F4FFE018B
:10183000EF012196CF0196D48823B9F705C00F5F39
:101840001F4F81918823D9F7C801DF91CF911F9154
:101850000F9108950F931F93CF93DF93EC01FB013A
:1018600077FF0AC08F010F5F1F4FCF017BD4899391
:10187000882331F0F801F6CF819189938823E1F72D
:10188000DF91CF911F910F910895FC0101C0319616
:1018900080818823E1F7CF01DDDF08951F920F9249
:1018A0000FB60F9211248F939F93809168008F5FE2
:1018B00080936800893459F410926800809169001F
:1018C00090916A00019690936A00809369009F91BD
:1018D0008F910F900FBE0F901F9018958FE387BBCD
:1018E00084EF81BB89E185BD8FE683BD89B78068C0
:1018F00089BF81EA8FBD82E08EBD86E886B9979860
:10190000979884B3836084BB85B38C7F85BB7894C0
:101910000895EF92FF920F931F93CF93DF9381303F
:1019200061F413DE80FF02C0929A01C0929881FF99
:1019300002C0C09ADCC0C098DAC0823079F405DEFB
:101940009C0110926A001092690080916900909148
:101950006A008217930708F0CAC0F7CF833089F571
:1019600094DEEC0192DE9C0188B38F7C88BBD7FFAC
:1019700005C0C49AD095C195DF4F03C0209709F0E8
:10198000C59A82B38F7C82BB37FF05C0949A30958D
:1019900021953F4F04C02115310539F0959A2F3F0D
:1019A000310519F014F02FEF30E03BBD2ABDCE0118
:1019B000CF3FD10519F014F08FEF90E099BD88BDAD
:1019C00096C0843039F4C1DD892B11F0969A8FC00E
:1019D00096988DC08530B9F4B8DDEC01B6DD892B61
:1019E00021F4209709F07BC008C0979884B38360E6
:1019F00084BB85B3836085BB01C0A998CD2B09F05A
:101A000076C0A89874C0863059F49FDD892B11F0F8
:101A100082E401C083E487B9369A349BFECF10C0BC
:101A20008730B9F484B38C7F84BB979A8EDD892B81
:101A300011F080E401C081E487B9369A349BFECF6F
:101A4000349A24B185B19927982F8827820F911D48
:101A500044C0883009F04BC078DD892B59F18B9A4E
:101A6000939A84E487B980E090E000000196843E78
:101A70009105D9F7369A349BFECF349A84B125B1BB
:101A80003327322F2227280F311D93987901F6949E
:101A9000E7940027112760E07CEF80E090E06E196A
:101AA0007F09800B910B4427552783D0DA01C901A8
:101AB000CE9713C08B9880E090E000000196843EA2
:101AC0009105D9F780B3992723E0969587952A95B4
:101AD000E1F780959095817090702ADD08C0979805
:101AE00084B3836084BB85B3836085BB86CFDF917D
:101AF000CF911F910F91FF90EF900895892F992713
:101B0000449741F461E070E080E06BDA99279068D7
:101B10000FDD089588E005DB0895882311F415DDB5
:101B2000089587E0FEDA0895292F33272031310503
:101B300011F4F3DF08952231310511F4B2DC089578
:101B40002331310511F479DC08952431310511F484
:101B5000DADB08952C31310511F4DBDE089588E0DD
:101B6000E0DA0895AA1BBB1B51E107C0AA1FBB1FE7
:101B7000A617B70710F0A61BB70B881F991F5A9519
:101B8000A9F780959095BC01CD01089597FB092E8A
:101B900007260AD077FD04D0E5DF06D000201AF42E
:101BA000709561957F4F0895F6F7909581959F4FB9
:101BB000089597FB092E05260ED057FD04D014D0AA
:101BC0000AD0001C38F450954095309521953F4F30
:101BD0004F4F5F4F0895F6F79095809570956195FA
:101BE0007F4F8F4F9F4F0895A1E21A2EAA1BBB1B58
:101BF000FD010DC0AA1FBB1FEE1FFF1FA217B307D9
:101C0000E407F50720F0A21BB30BE40BF50B661FEE
:101C1000771F881F991F1A9469F7609570958095B2
:101C200090959B01AC01BD01CF010895E199FECFD4
:101C3000BFBBAEBBE09A11960DB20895F7DF0192DB
:101C40001A94E1F70895E199FECFBFBBAEBB0DBA80
:101C500011960FB6F894E29AE19A0FBE0895FFCF5D
:00000001FF
