:100000000C949A100C94B7100C94B7100C94B71071
:100010000C94EB2E0C94B7100C94B7100C94B710F2
:100020000C94B7100C94B7100C949A2A0C94B71037
:100030000C94B7100C944B230C94B7100C94B7107D
:100040000C94B7100C94B7100C94B7100C94B71014
:100050000C94B71007BAA57A2C3BDA90C5BC8BFC80
:10006000663CFD10F8BD4D83923DB63A9EBE5BBF27
:10007000CA3FC90FDA00083B3BD74ABC846E023D39
:100080002FC1FEBD9A31743DDA3D83BE117FC73E5C
:100090004CBBE5BEAAAA6C3F800000000639652C67
:1000A000033AA23B593C1EBAE03D633BF43E75FF68
:1000B0004E3F3172113F800000000829573F9F2DAD
:1000C00049CBA5310F76C73493F27E37D00D013A74
:1000D000B60B613D2AAAAB3F0000003F8000000044
:1000E0000540B504F441A0000141E2463241A000C0
:1000F0000040E246303F8000000541778C4F40C30E
:100100002CE24117BF24C1A48DD9C0E1D8A1C05BA6
:10011000678203398527603CC8DE923EEDB0CA3F56
:1001200080000003373700F33B4B9FB83E060C3E80
:100130003F800000080000BE0202010011002D00F7
:100140009A00021000F675E01CDB0F4920DB0FC996
:1001500020DB0F49609291B31A9291331BCDCCCC26
:100160001D1600220027002C00310038003D0044FD
:100170000051005A006400466F6C6C6F77204C6928
:100180006E6500202020200045534320005452413A
:1001900050006C3A2534642C002534642000733AF6
:1001A0002534642C00706F733D28252B362E336662
:1001B0002C00252B362E33662920006F3D252B344D
:1001C0002E30662000643D25362E32662000100059
:1001D0000000000101010D000100000113031AB726
:1001E0001000B1110080B82301B81E010303B81E2E
:1001F000021207B81E03033C033D033E0B38040BF9
:1002000038050B38060B3807B82A013608B82A0219
:10021000360915081509648612006A380A1704178A
:100220000A62380417041201959E000A170412028C
:1002300066380417041203969C000A17041202621F
:10024000380415081509608612046A380B17071759
:100250000BB82B016238071705170B1704B82B08CA
:100260006A6238051706170B1704B82B146A623830
:100270000604B825051064B81D04B82501B8250288
:10028000B82503360CB82504360D03B82505150C22
:10029000150D64360E150C150D60360F150C150D69
:1002A000A20008150CA70005150D3610150F11003A
:1002B000B4A40062151010286C3610150E10286CAE
:1002C000360E15109C00060336101510150E6436F8
:1002D000111510150E6036121511B826051512B835
:1002E000260615113C15123D033E100F03B81E02E1
:1002F0001208B81E03102015119C000705A7000462
:10030000038015129C000704A700040380B8230192
:10031000A700531D8403019A002F1B1CA40010107A
:1003200006B8260510F2B82606A7000D10F2B8266A
:10033000051006B82606100F03B81E021010B823C9
:10034000011209B81E031D1032A4001A03B82601B9
:1003500003B82602100F03B81E0207B82301120AC1
:10036000B81E030304B81E02150C120BB82C01B8FA
:100370001E03150D120CB82C01B81E030305B81E80
:10038000021B120DB82C01B81E031C120CB82C0154
:10039000B81E030306B81E021705120EB82C03B8C8
:1003A0001E031706120FB82C03B81E03100C05B855
:1003B0001E021704B82B171210B82C03B81E031016
:1003C0000C04B81E0217071211B82C03B81E031034
:1003D00014B81D03A7FE3400000000000000000058
:1003E000000000000000000000000000000000000D
:1003F00000000000000000000000000000000000FD
:1004000000000000000000000000000000000000EC
:1004100000000000000000000000000000000000DC
:102130000000000011241FBECFE5D8E0DEBFCDBFF8
:1021400010E0A0E6B0E0EEEBF2E702C005900D92E1
:10215000A83AB107D9F715E0A8EAB0E001C01D928E
:10216000A233B107E1F70E9431110C945E390C944F
:102170000000AF92BF92CF92DF92EF92FF920F9347
:102180001F93CF93DF93EC01A880B980CA80DB80D6
:10219000A114B104C104D10449F482E4E82E8EEC08
:1021A000F82E8CE0082F8FE1182F2EC0C601B50144
:1021B0002DE133EF41E050E00E94373927EA31E466
:1021C00040E050E00E94C3387B018C01C601B5019C
:1021D0002DE133EF41E050E00E943739CA01B901E7
:1021E00024E13BE040E050E00E94C338E61AF70AE1
:1021F000080B190B17FF08C08FEF9FEFAFEFBFE77A
:10220000E80EF91E0A1F1B1FE882F9820A831B834E
:10221000C7019F77DF91CF911F910F91FF90EF90B2
:10222000DF90CF90BF90AF9008950E94B9100895AD
:1022300084EA90E00E94B9100895AA27BB278093F2
:10224000A4009093A500A093A600B093A7000895C2
:10225000FB01DC0102C005900D9241505040D8F7BF
:102260000895CFE5D8E0DEBFCDBF0E94742F0E9455
:1022700043120E9465130E941812FFCF84E391E07D
:102280000895089508950895CF93DF93EA01DC013E
:10229000AC5CBE4FFB01219724F001900E945239A3
:1022A000FACFDF91CF910895CF93DF93CDB7DEB70B
:1022B00024970FB6F894DEBF0FBECDBF9F7744E0E2
:1022C00050E0BC01CE0101960E94281169817A81FB
:1022D0008B819C8124960FB6F894DEBF0FBECDBFD4
:1022E000DF91CF910895CF93DF93CDB7DEB72297DB
:1022F0000FB6F894DEBF0FBECDBF9F7742E050E02F
:10230000BC01CE0101960E94281189819A812296F2
:102310000FB6F894DEBF0FBECDBFDF91CF91089509
:10232000EF92FF920F931F938C0194E3E92E91E0BB
:10233000F92EC7010A960E947311E80EF91E000FCC
:10234000111FC701800F911F0E9473118E0D9F1DD9
:102350001F910F91FF90EF900895CF93DF9390918D
:10236000DA00C82FDD27891780F48CE391E00E9402
:102370007311CC0FDD1FCC0FDD1FC80FD91FCE018D
:102380008C5C9E4F0E94541108C0C91BD109BE012C
:10239000882777FD8095982F906CDF91CF910895D5
:1023A000EF92FF920F931F938C0144E3E42E41E0E0
:1023B000F42EC7010C960E94731133E0000F111F19
:1023C0003A95E1F7080F191FC8018E0D9F1D1F9147
:1023D0000F91FF90EF900895CF93DF93CDB7DEB7C5
:1023E00021970FB6F894DEBF0FBECDBF9F7741E0B7
:1023F00050E0BC01CE0101960E94281189819927E5
:1024000021960FB6F894DEBF0FBECDBFDF91CF91FE
:10241000089582E491E00E94EC119927089599278C
:10242000880F991F8C5B9E4F0E94EC11992708958D
:10243000EF92FF921F93CF93DF93EE24FF2410C0FF
:10244000C12FDD27CE010E94D01104960E94EC110D
:1024500080FF03C0CE010E9472130894E11CF11C9E
:102460001E2D89E391E00E94EC11E81648F38AE3FF
:1024700091E00E9473110E947213DF91CF911F911E
:10248000FF90EF9008950F931F9384E391E00E94D3
:1024900054119B01AC015E6B6F73707080709E7BFA
:1024A000621773078407950711F08AE007C088E375
:1024B00091E00E94EC11823031F08BE00E94061F07
:1024C00080E090E013C08EE391E00E9473118C01D4
:1024D0008CE391E00E947311081B190B1695079568
:1024E000169507950093DA0081E090E01F910F9117
:1024F00008957F770E9428110895CF92DF92EF927E
:10250000FF920F931F93CF93DF93CDB7DEB728973A
:102510000FB6F894DEBF0FBECDBFC82ED62EEE2468
:10252000FF2420C0012F1127C8010E94D01148E0CC
:1025300050E0BC01CE0101960E9479124B815C8172
:10254000252F33278C2D99272817390741F45070F0
:102550008D2D99274817590711F4C8010CC008940C
:10256000E11CF11C1E2D89E391E00E94EC11E8169C
:10257000C8F28FEF90E028960FB6F894DEBF0FBE3A
:10258000CDBFDF91CF911F910F91FF90EF90DF9022
:10259000CF9008950F931F93182F062F602F812F30
:1025A0000E947D128F3F51F4812F9927880F991F28
:1025B0008D5B9E4F0E94EC11182FF0CF99271F9131
:1025C0000F91089596FD90680895292F221F2227C4
:1025D000221F2295220F220F207C392F3F773F3771
:1025E00021F487FF06C02F6306C0332311F487FF51
:1025F00002C03052232B922F0895292F96FF02C03C
:1026000030E801C030E02F732F3321F487FF06C07C
:102610003F6706C0222311F487FF02C0205E322BE1
:10262000932F08951F93CF93DF93EC01892F992760
:102630008031910500F50E940F129927880F991F8C
:10264000880F991F0496BC0181E00E94E91D182F94
:10265000682F77278827992790680E94F221812F79
:102660000E944D1CFC01CE01AA27BB2780839183C9
:10267000A283B38303C0CE010E949F2FDF91CF912D
:102680001F910895EF92FF920F931F937B018C018E
:1026900097FD03C08CE00E94061FD801C70180701F
:1026A0009070A070B07C80509040A040B04821F461
:1026B0008E2D0E944D1C04C0C7010E94901190688D
:1026C0001F910F91FF90EF9008950E94961B0E941A
:1026D00009120E940F2360E070E080E090E00E9409
:1026E000F22108952F923F924F925F926F927F92C4
:1026F0008F929F92AF92BF92CF92DF92EF92FF9212
:102700000F931F93CF93DF93CDB7DEB767970FB6C5
:10271000F894DEBF0FBECDBF1A8A1B8A1C8A1D8AA1
:102720009F8B8E8B0E94D0119A87898748E050E05A
:10273000BC01CE0101960E94791269807A80898459
:102740009A84860C971C988A8F868F812885820FA1
:10275000912D911D2E81820F911D880F991F880F39
:10276000991F0E94311D0E94362204969093DC002E
:102770008093DB008F810E9424220E9433231B86DA
:102780001C861D861E868F8598890E94EC11898B78
:102790008F85988901960E94EC118B8B8F85988983
:1027A00002960E94EC118A8B9988992009F4CDC673
:1027B0002989203141F43B89632F772767FD709584
:1027C000872F972F6CC64989413149F4AA89BB8963
:1027D000BD01882777FD8095982F9F770EC5898941
:1027E0008250873050F4B9896B2F7727635070403F
:1027F000882777FD8095982F2FC2E989E63309F461
:1028000005C689898B538430B8F4B9890B2F1127F9
:10281000000F111F000F111F8091DB009091DC0051
:10282000080F191F0C5E10400E940122F8016083FE
:1028300071838283938326C2F989F53109F41CC61A
:1028400089898A518430A0F47988E72DFF27EE0F1B
:10285000FF1FEE0FFF1F8091DB009091DC00E80F5F
:10286000F91FE856F0406081718182819381F4C143
:10287000898989598C3008F097C0863038F42989C5
:102880002A5F298BEE24FF24870104C00E94FF22C7
:102890007B018C010E94FF226B877C878D879E873E
:1028A0003989313A79F1323A30F43F3971F0303ABE
:1028B00009F067C019C04989433A09F43FC0433A57
:1028C00078F1443A09F05DC047C080E090E0A0E0B4
:1028D000B0E06B847C848D849E846E147F048006BB
:1028E000910609F04AC045C080E090E0A0E0B0E069
:1028F0002B853C854D855E852E153F05400751078C
:10290000E1F137C080E090E0A0E0B0E06B847C842F
:102910008D849E846E147F048006910674F529C010
:1029200080E090E0A0E0B0E02B853C854D855E85A1
:102930002E153F054007510704F11BC080E090E0D1
:10294000A0E0B0E06B847C848D849E84E614F70460
:102950000805190594F40DC080E090E0A0E0B0E017
:102960002B853C854D855E85E216F3060407150729
:1029700024F081E090E0A0E0B0E08B879C87AD87F9
:10298000BE878B859C85AD85BE850097A105B10569
:1029900009F4DDC5AF85B889EA89FB89AE0FBF1F91
:1029A000B88BAF8780E0D4C5F989F73A61F46F84BA
:1029B00078888A889B88680C791C93012350304062
:1029C000388B2F87D9C589898056853208F047C151
:1029D0003989343781F40E94FF2266247724430129
:1029E000661A770A880A990A6B867C868D869E8687
:1029F000C401B301A3C52989243831F53B89E32FEC
:102A0000FF27E7FDF095EE0FFF1FEE0FFF1F8091F0
:102A1000DB009091DC00E80FF91F208131814281B9
:102A2000538156FD50686A89862F992787FD9095B6
:102A3000A92FB92F280F391F4A1F5B1F5F772083EB
:102A400031834283538398C589898370823009F02A
:102A500055C08989873708F051C0863721F40E9414
:102A6000B122905848C00E94B1225B016C010E94C3
:102A7000B1227B018C0199899A36D9F09B3628F4D2
:102A8000923649F09636A9F50DC0A989AE36C1F047
:102A9000A03779F52BC0A6019501C801B7010E94A6
:102AA0007F3421C0A6019501C801B7010E947E3480
:102AB0001AC0A6019501C801B7010E948F3713C043
:102AC00020E030E040E050E0C601B5010E945B36F6
:102AD000882319F48EE00E94061FA6019501C80103
:102AE000B7010E947E357B018C0103C08DE00E94FE
:102AF000061FC801B7010E94E51221C50E94FF22EE
:102B00006B877C878D879E870E94FF227B018C01CB
:102B1000B989B83709F461C0B93788F4B836B1F16A
:102B2000B93630F4B03601F1B43609F08BC025C0A7
:102B3000E989EC3691F1E03709F084C045C0F989A4
:102B4000FE3709F45CC0FF3738F4FA3709F44EC099
:102B5000FC3709F077C06EC02989203809F458C0C5
:102B6000223809F06FC05DC08B859C85AD85BE8520
:102B7000E80EF91E0A1F1B1F65C06B847C848D84C0
:102B80009E84E618F708080919095CC02B853C8566
:102B90004D855E850E94C3381DC02B853C854D85C3
:102BA0005E85211531054105510519F48EE00E941D
:102BB000061FC801B7012B853C854D855E850E94A7
:102BC000373979018A013EC02B853C854D855E856C
:102BD0000E9437397B018C0135C00B8404C0EE0C98
:102BE000FF1C001F111F0A94D2F72CC00B8404C0D5
:102BF00015950795F794E7940A94D2F723C08B852F
:102C00009C85AD85BE85E822F9220A231B231AC0C4
:102C10006B847C848D849E84E628F72808291929F2
:102C200011C02B853C854D855E85E226F326042761
:102C3000152708C00B8404C016950795F794E794F0
:102C40000A94D2F78FEF9FEFAFEFBFE7E822F922A8
:102C50000A231B23C801B7010E94F22113C09989DE
:102C60009C3A31F09E3A21F0913B09F056C006C0E3
:102C70000E9401226B877C878D879E870E94592244
:102C8000882311F081E064C4BF8008850B0D0D5FBF
:102C90008E81080F0E9401226B017C010E9401229B
:102CA000DC01CB019F8B8E8B0E94D0119A87898784
:102CB00048E050E0BC01CE0101960E9479120E94CA
:102CC0000122A985BA85A60FB71FB88BAF878B2DB8
:102CD00081950E9424220E943622CC0CDD1CCC0C53
:102CE000DD1C8C199D099093DC008093DB0011277B
:102CF000C801880F991F880F991F0E94061CB98967
:102D0000BC3A21F0E989EE3A09F035C46B857C853F
:102D10008D859E850E94F2212EC4F989F83519F41B
:102D20000E94012203C02989273519F40E9401223B
:102D30000CC43989393511F480E009C049894C3512
:102D400049F481E00E940F220E94F22181E00E945A
:102D50000F22F5C359895A3569F40E9401225B019B
:102D60006C010E9401227B018C01C601B5010E9409
:102D7000F22175C069896B35D9F40E9401227B016B
:102D80008C010E9401225B016C010E9401223B0127
:102D90004C01C801B7010E94F221C601B5010E9491
:102DA000F221C401B3010E94F221C801B701C7C3D7
:102DB00089898D35F9F40E9401227B018C010E94E2
:102DC00001223B014C010E9401225B016C01C80100
:102DD000B7010E94F221C401B3010E94F221C60191
:102DE000B5010E94F221C801B7010E94F221C4017D
:102DF000B301A5C399899E3539F50E9401223B0193
:102E00004C010E9401221B012C010E9401227B0126
:102E10008C010E9401225B016C01C401B3010E947C
:102E2000F221C201B1010E94F221C801B7010E9442
:102E3000F221C601B5010E94F221C401B3010E9432
:102E4000F221C201B1017BC3A989AF3579F40E9497
:102E500001227B018C010E9401225B016C01C801EF
:102E6000B7010E94F221C601B50169C3B989BA3A16
:102E700009F074C08F85988907960E94EC11082F7D
:102E80008F85988908960E94EC111127102F002732
:102E90009927082B192B3801882477FC8094982CCB
:102EA0006B867C868D869E868F8598890B960E9480
:102EB000EC11082F8F8598890C960E94EC11182F21
:102EC0000E9401226A8B7B8B8C8B9D8B661577050C
:102ED0008805990534F1802F9927982F8827212F6D
:102EE0003327822B932BAA2797FDA095BA2F2A89E7
:102EF0003B894C895D8982179307A407B5078CF03D
:102F0000DA01C90186199709A809B90952E0880FA1
:102F1000991FAA1FBB1F5A95D1F70F96A11DB11D6E
:102F200004C083E090E0A0E0B0E00F851889080FAE
:102F3000191FC8010E94EC11E82EC80101960E94D9
:102F4000EC11FF24FE2CEE249927E82AF92A4F855C
:102F500058894E0D5F1D588B4F8733C159895B3A95
:102F600009F073C08F85988908960E94EC11B82EDD
:102F70000E94FF226B877C878D879E8739E0C32E56
:102F8000D12CE12CF12C0F851889075F1F4F37C01A
:102F9000C8010E94EC116B847C848D849E84292D51
:102FA000552727FD5095352F452F8217E9F4C80185
:102FB00001960E94EC119401552737FD5095452F3D
:102FC000821791F4C80102960E94EC11552797FCD4
:102FD0005A95492D382D272D821731F4C8010396B3
:102FE0000E94EC11861571F0BA9428E030E040E0C0
:102FF00050E0C20ED31EE41EF51E085F1F4FBB201B
:1030000039F6B4C2D701C6010496A11DB11D8A8B41
:103010009B8BAC8BBD8B0F851889AA89BB890A0F46
:103020001B1FC80102960E94EC11E82EC8010396EE
:103030000E94EC11FF24FE2CEE249927E82AF92A9D
:10304000EF85F889EE0DFF1DBAC0F989F23B29F42E
:103050008A899B890E943B22D0C02989233B49F45D
:103060000E940122AB01BC018A899B890E944A22ED
:1030700083C23989323121F48B890E94AD110FC28C
:103080008989865B833008F0A3C04B8940310CF0FE
:103090009AC08F859889A985BA858A1B9B0B3C01AC
:1030A000882477FC8094982C6B867C868D869E86FF
:1030B0008A899B890E94D0119A87898748E050E0CD
:1030C000BC018E010F5F1F4FC8010E947912298930
:1030D000263B61F580E00E940F22DC01CB010E94BB
:1030E0004D1CFC0180819181A281B381292F3A2F4F
:1030F0004B2F55276B817C81872F9927AA27BB27C8
:10310000281739074A075B0789F0822F0E94CA12E5
:103110008A8B992787FD90950E94D0119A8789877D
:1031200048E050E0BC01C8010E9479128E8181956F
:103130000E9424220E9436222091DB003091DC0084
:103140007C01E21AF30AF594E794F594E7940027DA
:10315000F7FC0095102F0E94362204969093DC0015
:103160008093DB008F812885820F912D911D2E8108
:10317000820F911D880F991F880F991F0C960E942E
:10318000311D8F810E9424226B857C858D859E85D3
:103190000E94F2214E895F89BA01882799270E94EF
:1031A000F221C801B7010E94F2218A899B899F8B75
:1031B0008E8BA981BA81E985FA85EA0FFB1FF88B0E
:1031C000EF8780E0DAC18A899B890E94BE2FD4C133
:1031D000F989F43BA9F40E940122DC01CB010E9491
:1031E0004D1CEA89FB89EE0FFF1FEE0FFF1FE80F52
:1031F000F91F64817581868197810E94F221BCC18B
:103200002989253BE9F40E9401226B877C878D8701
:103210009E870E940122DC01CB010E944D1CEA899D
:10322000FB89EE0FFF1FEE0FFF1FE80FF91F8B85C5
:103230009C85AD85BE8584839583A683B7839CC119
:1032400099899B3B29F48A899B890E94121394C116
:10325000A989AC3B61F40E9401224B890E94E11EC6
:103260009927AA27BB27B068BC01CD0118C1B9892D
:10327000BE3B39F40E940122DC01CB010E94C81E32
:103280005EC1E989E435B1F40E94FF227B018C0123
:103290000E94FF226B877C878D879E870E94012278
:1032A000DC01CB012E2D4B855C856D857E850E94D2
:1032B0009B1E4BC1F989FF34B9F40E94FF227B01A8
:1032C0008C010E94FF226B877C878D879E870E94DE
:1032D0000122DC01CB01980187014B855C856D855E
:1032E0007E850E94611E31C129892333C1F40E9469
:1032F000FF226B877C878D879E870E940122DC01DD
:10330000CB014B855C856D857E850E94871E992744
:1033100087FD9095A92FB92FBC01CD0110C1398926
:103320003E3289F40E94FF226B877C878D879E87BF
:103330000E940122DC01CB014B855C856D857E8579
:103340000E94491EFCC04989403399F40E94FF2223
:103350006B877C878D879E870E940122DC01CB01D1
:103360004B855C856D857E850E940B1E0E9408360C
:10337000E6C059895135B9F40E94B1227B018C0114
:103380000E94FF226B877C878D879E870E94012287
:10339000DC01CB01980187014B855C856D857E85BD
:1033A0000E94231ED2C069896B3029F460E070E06E
:1033B00080E090E0A0CB89898C3029F460E070E057
:1033C00080E89FE398CB99899D3029F460E070E014
:1033D00080E090E490CBA989A63849F40E94FF22AE
:1033E0006B877C878D879E870E94253684CBB98921
:1033F000BB3849F40E94B1220E9408366B877C8753
:103400008D879E879BC0E989E833C1F4FB890F2F24
:10341000112707FD1095000F111F000F111F80913C
:10342000DB009091DC00080F191F0E940122D801D7
:103430006D937D938D939C93139733C089898354A7
:103440008430B8F4B9890B2F1127000F111F000F1A
:10345000111F8091DB009091DC00080F191F0C50A8
:1034600011400E940122F80160837183828393835B
:103470006CC0F989F731B9F46B88E62DFF27E7FDB9
:10348000F095EE0FFF1FEE0FFF1F8091DB00909174
:10349000DC00E80FF91F60817181828193810E94B5
:1034A000F22182E06AC0898982528430A0F479884E
:1034B000E72DFF27EE0FFF1FEE0FFF1F8091DB00B0
:1034C0009091DC00E80FF91FE858F04060817181AD
:1034D0008281938134C089898559823098F50E9410
:1034E000B1224B015C010E94B1226B017C01A5015C
:1034F00094010E945B3688234CF42FEF3FEF4FEF8F
:103500005FEF2B873C874D875E8714C0442455248A
:103510003201A5019401C701B6010E945E3618165A
:103520002CF451E0452E512C612C712C4B865C867D
:103530006D867E866B857C858D859E859F770E94B6
:10354000F22103C08DE00E94061F81E016C083E0D7
:1035500039893C3AC9F04F855889480F511D588B1D
:103560004F875989513B09F00EC90EC081E090E0A8
:10357000A0E0B0E04CCD198A83E0AF85B889A80FF0
:10358000B11DB88BAF87EDCF8F8181950E9424222A
:103590008F812885820F912D911D2E81820F911D83
:1035A000880F991F880F991F0E94061C67960FB6F7
:1035B000F894DEBF0FBECDBFDF91CF911F910F9169
:1035C000FF90EF90DF90CF90BF90AF909F908F9043
:1035D0007F906F905F904F903F902F9008958DED6A
:1035E00090E00895FB01DC01A40FB51FE40FF51F67
:1035F00002C082918E93415050408FEF4F3F580749
:10360000C1F70895582F6091A8007091A90014C0C7
:10361000FB01E352FF4F80818517A1F021812695A0
:103620004281342F379533273795832F822B942F60
:1036300096950396680F791F84E06030780740F311
:10364000E0E0F0E0CF0108951F9311E0812F0E9488
:10365000021B892B19F4812F992704C01F5FB1F732
:1036600080E090E01F910895EF92FF920F931F93D7
:10367000CF93DF93082F162FBA016D5F7F4FE09035
:10368000A800F090A900D701A352BF4FED013981E6
:10369000232F26959A81892F879588278795E82F4C
:1036A000E22BF92FF695E617F70718F480E090E083
:1036B00036C0CF01861B970B282F220F3170322B7B
:1036C000FD013183292F220F881F8827881F822B15
:1036D00082833695282F279522272795E22FE32BE3
:1036E000F82FF695EE0DFF1DE052FF4F0083842F5B
:1036F000880F1170812B8183952F990F842F881F3C
:103700008827881F892B8283339601C011924150EC
:1037100050408FEF4F3F5807C9F781E090E0DF91AD
:10372000CF911F910F91FF90EF9008951092DD00BF
:103730008091DE0081708A6F8093DE0087E0809345
:10374000DF000895EF92FF920F931F93CF93DF93C3
:10375000E82EFF240027112780E090E0A0E0B0E8E9
:10376000E82AF92A0A2B1B2B6091A8007091A90066
:103770003FC0EB01C352DF4F498140FF2BC046954C
:103780003A81232F279522272795822F842B932F49
:103790009695AC01569547955695479520E030E0B3
:1037A00014C02F5F3F4FEE0FFF1FEE0FFF1FEC0FF8
:1037B000FD1F83819481A581B6818E159F05A00789
:1037C000B10719F481E090E01AC0E22FFF27E41757
:1037D000F50738F3298126954A81342F3795332709
:1037E0003795832F822B942F96950396680F791F18
:1037F00094E06030790708F4BCCF80E090E0DF917E
:10380000CF911F910F91FF90EF9008950F931F9309
:10381000CF93DF938C01C091A800D091A900C3522F
:10382000DF4F8881882319F081E00E94061F809174
:10383000A8009091A9008017910718F485E00E94D4
:10384000061F898186954A81942F97959927979588
:10385000292F282B342F3695E091A800F091A9004C
:10386000E01BF10BF093A900E093A800E352FF4F97
:103870001082200F311F922F990F81818170892B27
:103880008183832F880F221F2227221F282B228328
:10389000DF91CF911F910F910895CF93DF930E94F5
:1038A000021BEC01892B19F483E00E94061FCE0154
:1038B0000396DF91CF910895CF93DF930E94021B6F
:1038C000EC01892B19F483E00E94061F29812695BB
:1038D0004A81342F379533273795832F822B942FA6
:1038E0009695DF91CF9108950F931F93CF93DF9318
:1038F0000091A8001091A9003CC0E801C352DF4F1D
:103900008881882389F0298126954A81342F37952B
:1039100033273795832F822B942F9695815094408F
:1039200018F080E00E94061F898186954A81942FB5
:10393000979599279795292F282B342F36952D5F0A
:103940003F4F80E094E0801B910B8217930718F49F
:1039500081E00E94061F298126954A81342F3795E0
:1039600033273795832F822B942F96950396080F34
:10397000191F84E00030180708F4BFCFDF91CF9102
:103980001F910F910895EF92FF920F931F93CF9382
:10399000DF930091A8001091A90051C0E801C35223
:1039A000DF4F298126954A81342F37953327379564
:1039B000832F822B942F969523E0E22EF12CE80E94
:1039C000F91E88818823C9F10E946A228823A9F5FB
:1039D00088810E94A21B882381F56091A8007091C4
:1039E000A900A801461B570BCB018E0D9F1D6352EA
:1039F0007F4F83529F4F0E94F21AE091A800F091EE
:103A0000A900E352FF4F3181532F56954281242F55
:103A1000279522272795822F852B942F96958E0DFB
:103A20009F1D282F220F3170322B3183292F220F17
:103A3000881F8827881F822B82830E0D1F1D84E01C
:103A40000030180708F4AACF0050144019F081E0A4
:103A50000E94061FDF91CF911F910F91FF90EF9071
:103A60000895CF92DF92EF92FF920F931F93CF931F
:103A7000DF937C010091A8001091A90003521F4F11
:103A8000F8018081882319F081E00E94061FF80167
:103A9000818186952281922F979599279795C82E97
:103AA000C92AE6016E012695D22EE601CE14DF0466
:103AB000B8F40E94C31CF801818186952281922F5F
:103AC000979599279795C82EC92AE6016E012695E4
:103AD000D22EE601CE14DF0418F484E00E94061F03
:103AE000E091A800F091A900EE0DFF1DF093A90050
:103AF000E093A800E352FF4F1082CE018E199F0978
:103B0000382F330F21812170232B2183292F220F5E
:103B1000881F8827881F822B8283DF91CF911F9176
:103B20000F91FF90EF90DF90CF900895FF920F9349
:103B30001F93CF93DF93F82E8B01E091A800F091B3
:103B4000A900E352FF4F818186954281942F97957A
:103B500099279795292F282B342F3695CB0103963B
:103B60002817390710F00E94C31C8F2D0E94021BDA
:103B7000EC0169816170A8018F2D0E94341B88239C
:103B800019F482E00E94061F8F2D0E94021B4981BA
:103B900046956A81562F579555275795252F242BE3
:103BA000362F3695AE01DC012C0F3D1F06C0FA0101
:103BB0008381FD0182834F5F5F4F11964217530748
:103BC000B1F78FEF8883DF91CF911F910F91FF9015
:103BD00008950F931F93CF93DF93082FEB010E945B
:103BE000241B182FAE01602F0E94341B882361F420
:103BF0000E94C31CAE01602F812F0E94341B8823BA
:103C000019F482E00E94061F812F9927DF91CF913E
:103C10001F910F910895EF92FF920F931F937A01D6
:103C20008B010E944D1CEE0CFF1CEE0CFF1CE80EDD
:103C3000F91EF70161817281838194811F910F9137
:103C4000FF90EF9008958F929F92AF92BF92CF9284
:103C5000DF92EF92FF920F931F936A017B0148015D
:103C600059010E944D1CCC0CDD1CCC0CDD1CC80E77
:103C7000D91EF60181829282A382B4821F910F9194
:103C8000FF90EF90DF90CF90BF90AF909F908F907C
:103C90000895EF92FF920F931F937A018B010E9478
:103CA0004D1CEE0CFF1CEE0CFF1CE80EF91EF7017C
:103CB00061817281838194811F910F91FF90EF90B8
:103CC00008958F929F92AF92BF92CF92DF92EF9220
:103CD000FF920F931F936A017B01480159010E94D3
:103CE0004D1CCC0CDD1CCC0CDD1CC80ED91EF60105
:103CF00081829282A382B4821F910F91FF90EF90F4
:103D0000DF90CF90BF90AF909F908F900895EF92EB
:103D1000FF920F931F937A018B010E944D1CFC01AF
:103D2000EE0DFF1D8181992787FD90951F910F91C1
:103D3000FF90EF900895DF92EF92FF920F931F9301
:103D40007A018B01D22E0E944D1CFC01EE0DFF1D4D
:103D5000D1821F910F91FF90EF90DF900895982FDF
:103D60008450823090F0983081F0993019F482E0DC
:103D700090E008959A3019F484E090E0089586E088
:103D80000E94061F80E090E0089581E090E0089591
:103D9000EF92FF921F93182F0E945C1C7C01812FD1
:103DA0000E944D1CFC0180810E94AF1E682F772766
:103DB000C7010E94EE38882799271F91FF90EF9046
:103DC0000895DF92EF92FF920F931F937B018C0176
:103DD000D42E842F0E94AF1E282F33274427552727
:103DE000C801B7010E94C3386F5F7F4F80E00E9417
:103DF000E91D182F0E944D1CFC01D082812F9927AC
:103E00001F910F91FF90EF90DF9008951F93182F4F
:103E100085E40E94832382E50E94832382E50E9439
:103E200083238AE30E948323812F8F5B0E94832355
:103E30008AE00E948323FFCFAF92BF92DF92EF927E
:103E4000FF920F931F93CF93DF93CDB7DEB76497A5
:103E50000FB6F894DEBF0FBECDBF0E943E117C01AD
:103E600085E10E94722310E00BC080E090E000002A
:103E7000019623E2863B9207D1F71F5F1A3F21F09C
:103E80000E946923882389F30E946923882309F407
:103E90005AC057010E94421111E064E1CE0101961F
:103EA0000E948E238431D1F540E0FE0134969E01BC
:103EB0002C5E3F4F8191480FE217F307D9F78981B4
:103EC0008130A9F5DA80D11691F52B8133278D2D1C
:103ED000809599272817390751F58C89841739F56A
:103EE000C5018E010C5F1F4F7C010894E11CF11C81
:103EF000F80161918F010E944111CE01449608178B
:103F0000190711F0C701F0CF80E190E0A80EB91EAB
:103F100086E00E9472231D2D1F5F0CC0882321F4B0
:103F200086E00E947223B9CF89818A3139F085E118
:103F30000E94722389818A3109F0AFCF0E94431118
:103F400086E00E94722364960FB6F894DEBF0FBE1F
:103F5000CDBFDF91CF911F910F91FF90EF90DF9038
:103F6000BF90AF9008953F924F925F926F927F9271
:103F70008F929F92AF92BF92CF92DF92EF92FF9279
:103F80000F931F93CF93DF93EC017A018B0177FDA1
:103F90000BC0612C9AEC792E9AE9892E9BE3992E1D
:103FA00033244424552415C08DE28993109500953F
:103FB000F094E094E11CF11C011D111DEACFC80131
:103FC000B701A40193010E9437397B018C013501AF
:103FD0004601C801B701A40193010E943739211598
:103FE00031054105510519F081E0382E08C0332014
:103FF00031F481E0681671048104910419F4822F70
:10400000805D8993C401B3012AE030E040E050E0D4
:104010000E94373959016A010894411C511C8AE0F9
:104020004816510461F61882DF91CF911F910F91CC
:10403000FF90EF90DF90CF90BF90AF909F908F90C8
:104040007F906F905F904F903F900895AF92BF9296
:10405000CF92DF92EF92FF920F931F93CF93DF9354
:10406000EC017A018B0120E030E040E050E0C80133
:10407000B7010E945B36882334F48DE2899317FBE5
:10408000109517F91095C801B7010E9408365B0119
:104090006C01AB01BC01CE010E94B31F01C021968F
:1040A00088818823E1F761E070E080E090E06A19A0
:1040B0007B098C099D090E9425369B01AC01C80132
:1040C000B7010E947F3420E034E244E759E40E94C3
:1040D0008F370E940836AB01BC01CE010E94B31F8E
:1040E0008EE2888321968881882311F0FBCF188285
:1040F0008A918033E1F38E3209F41882DF91CF91F7
:104100001F910F91FF90EF90DF90CF90BF90AF90F5
:104110000895BF92CF92DF92EF92FF920F931F9379
:10412000CF93DF93CDB7DEB72F970FB6F894DEBFEE
:104130000FBECDBF982F882329F40E94D822FC01FE
:104140001082A5C0813019F580E00E94C1220E9432
:1041500003298C0181E00E940F22DC01CB010F5F5B
:104160001F4FB8010E94961D80E00E94C1228C0161
:1041700081E00E940F22DC01CB010E944D1CB8019E
:104180000E9426290E9401220E94012280C08250A2
:10419000833020F0963009F05AC02DC09230E9F4F7
:1041A00080E00E94C1220E9403298C0181E00E94CC
:1041B000C1220E9403290F5F1F4F080F191FB8016A
:1041C00080E00E94E91DB82E81E00E94C1226C01AE
:1041D00080E00E94C1227C0123C0933051F480E032
:1041E0000E94E822AB01BC01CE0101960E94B31FE0
:1041F00011C0963051F480E00E949A22AB01BC01BC
:10420000CE0101960E94262005C080E00E940F2268
:1042100069831A82FE01319680818823E1F71DC0EF
:104220008B2D0E944D1C8C01B6010E942629B701DE
:10423000C8010E9442290E9401220E9401226B2D86
:1042400077278827992790680E94F22120C095300F
:10425000F1F087E00E94061F1AC07E010894E11C5D
:10426000F11C8F010E191F0981E00E94C1220E94DA
:1042700003290F5F1F4F080F191FB80180E00E942C
:10428000E91DB82E81E00E94C1226C01C9CF2F9692
:104290000FB6F894DEBF0FBECDBFDF91CF911F9157
:1042A0000F91FF90EF90DF90CF90BF9008951F93F4
:1042B000182F0E940122113019F40E94692304C0B2
:1042C000123051F40E9476239927AA27BB27BC01FC
:1042D000CD010E94F22103C087E00E94061F1F91BA
:1042E0000895FF920F931F93CF93DF93EC01F62E67
:1042F00097FF10C003C00E948323E8018E010F5F67
:104300001F4FCE010E94EC118823A9F706C0219609
:104310000E94832388818823D1F7FF2019F08AE047
:104320000E948323DF91CF911F910F91FF900895F9
:104330000F931F93CF93DF93CDB7DEB728970FB6B8
:10434000F894DEBF0FBECDBF813021F40E94D82289
:1043500061E00EC0823079F40E94FF22AB01BC0103
:104360008E010F5F1F4FC8010E94B31F61E0C8019B
:104370000E9471212AC0843021F40E94D82260E07A
:10438000F7CF853061F40E94FF22AB01BC018E01A2
:104390000F5F1F4FC8010E94B31F60E0E8CF83305A
:1043A00041F40E94FF22DC01CB010E9483238AE0BA
:1043B00006C0863039F40E94FF22DC01CB010E9446
:1043C000832303C087E00E94061F0E9401222896D3
:1043D0000FB6F894DEBF0FBECDBFDF91CF911F9116
:1043E0000F910895E091AC00F091AD003496F093F8
:1043F000AD00E093AC003497648375838683978324
:104400000895E091AC00F091AD00608171818281EE
:1044100093813497F093AD00E093AC000895992711
:104420002CEF3FEF829FF001839FF00D929FF00DE4
:1044300011248091AC009091AD00E80FF91F6081CC
:104440007181828193810895992787FD9095880FC6
:10445000991F880F991F2091AC003091AD00280F53
:10446000391F3093AD002093AC0008958091AC00CB
:104470009091AD000895880F991F880F991FE091C2
:10448000AA00F091AB00E80FF91F60817181828171
:1044900093810895880F991F880F991FE091AA00B2
:1044A000F091AB00E80FF91F40835183628373835F
:1044B000089540E050E02091AC003091AD00809133
:1044C000AE009091AF002817390711F441E050E099
:1044D000CA010895CF93DF93482F55276627772782
:1044E00070688091AA009091AB002091AC0030914F
:1044F000AD00281B390B35952795359527952F5FEE
:104500003F4FEC01E0E0F0E00DC089919991A99155
:10451000B99184179507A607B70719F481E090E0D1
:1045200006C03196E217F30781F780E090E0DF9153
:10453000CF91089599272CEF3FEF829FF001839F41
:10454000F00D929FF00D11248091AC009091AD0080
:10455000E80FF91F60817181828193810E94FD12B1
:104560000895E091AC00F091AD006081718182818D
:1045700093813497F093AD00E093AC000E94FD125C
:10458000089599272CEF3FEF829FF001839FF00D54
:10459000929FF00D11248091AC009091AD00E80F36
:1045A000F91F60817181828193810E944213089575
:1045B000E091AC00F091AD006081718182819381C6
:1045C0003497F093AD00E093AC000E94421308953D
:1045D00099272CEF3FEF829FF001839FF00D929F70
:1045E000F00D11248091AC009091AD00E80FF91FFF
:1045F00060817181828193810E94E2120895E0912D
:10460000AC00F091AD00608171818281938134971B
:10461000F093AD00E093AC000E94E21208950F9376
:104620001F93082F0E94EF1A9093AB008093AA006B
:1046300004979093AD008093AC001127000F111FD9
:10464000000F111FC80104960E94311D8091AC001B
:104650009091AD00800F911F9093AD008093AC00BE
:104660001F910F9108958091AC009091AD009093AF
:10467000AF008093AE0008951092DD041092FE0406
:1046800081E080BD8FE989B91BB888E98AB986E8DD
:1046900080BD789408951F920F920FB60F92112447
:1046A0008F939F93EF93FF938091DD049CB1EEED88
:1046B000F4E0E80FF11D90838F5F8F718093DD042C
:1046C000FF91EF919F918F910F900FBE0F901F90D0
:1046D00018958091DD042091FE04821B99278F712B
:1046E000907008955D9BFECF8CB908959091FE0463
:1046F000EEEDF4E0E90FF11D80819F5F9F719093D3
:10470000FE0499270895982F8A3021F45D9BFECFEF
:104710008DE08CB95D9BFECF9CB90895DF92EF923E
:10472000FF920F931F93CF93DF937C01062FEC0131
:1047300014C080E090E00000019622EB82399207DD
:10474000D1F7115010F40EC01AE00E94692388239B
:1047500081F30E94762389930150CE018E19D82EC1
:10476000002391F78D2D9927DF91CF911F910F9104
:10477000FF90EF90DF9008950895AF92BF92CF928F
:10478000DF92EF92FF920F931F93813021F40E94EA
:10479000B1229F7706C1823089F40E94FF229B01DB
:1047A00077FF03C0309521953F4FB901882777FDEA
:1047B0008095982F9F770E94F221F9C0833029F4C9
:1047C0000E94B1220E947634ECC0843029F40E9409
:1047D000B1220E94C134E5C0853029F40E94B12283
:1047E0000E94FB34DEC0863069F40E94B1227B0156
:1047F0008C010E94B1229B01AC01C801B7010E944B
:104800002A35CFC0873029F40E94B1220E945D353D
:10481000C8C0883029F40E94B1220E947835C1C0F6
:10482000893029F40E94B1220E94C435BAC08A306E
:1048300029F40E94B1220E942F36B3C08B3029F494
:104840000E94B1220E943637ACC08C3089F40E949D
:10485000B1227B018C010E94B1225B016C019B01A2
:10486000AC01C801B7010E945E361816ACF132C027
:104870008D3069F40E94FF227B018C010E94FF228F
:104880006E157F05800791070CF094CF0EC08E3017
:1048900079F40E94FF227B018C010E94FF22E61620
:1048A000F706080719070CF085CFC801B70182CFBA
:1048B0008F30A9F40E94B1227B018C010E94B122A9
:1048C0005B016C019B01AC01C801B7010E945B3622
:1048D00087FD02C086017501C801B70162C0803141
:1048E00069F40E94B1227B018C010E94B1229B01DC
:1048F000AC01C801B7010E94D73753C0813189F498
:104900000E941811AA2797FDA095BA2FBC01CD01CE
:104910000E94253620E03EEF4FEF56E40E947E35A0
:1049200040C0823159F40E94B1220E940836882783
:1049300077FD8095982F0E94253633C0833149F446
:104940000E94B1220E940836882777FD8095982F13
:1049500031CF843129F40E94B1220E94203821C035
:10496000853129F40E94B1220E9433381AC0863161
:1049700029F40E94B1220E94753813C0873139F49E
:104980000E94B12220EE3EE245E652E408C08831A2
:1049900059F40E94B12225E33AEF4EE85CE30E940D
:1049A0008F370E94E51207CF87E00E94061F1F91F4
:1049B0000F91FF90EF90DF90CF90BF90AF90089550
:1049C0006F927F928F929F92AF92BF92CF92DF921F
:1049D000EF92FF920F931F93CF93DF9359016A01D8
:1049E000602E7E2CEB014C011AC0E62CFF24002720
:1049F0001127C601B501A80197010E9415396A3037
:104A000014F480E302C0872D8A50680F6A93C601B0
:104A1000B501A80197010E94153959016A01C8150D
:104A2000D90519F7DF91CF911F910F91FF90EF906A
:104A3000DF90CF90BF90AF909F908F907F906F90BE
:104A40000895AF92BF92CF92DF92EF920F93CF93E0
:104A5000DF93EC016B0157FF06C08DE289935095FF
:104A600041955F4F0EC0FB018081992782FF02C0F4
:104A70008BE206C083FD03C0AA24BB2405C080E2EC
:104A8000899381E0A82EB12CF6018381843671F0E0
:104A90008F3619F481E608E00BC0883711F481E6FF
:104AA00003C0883519F481E400E102C081E60AE020
:104AB000BA019B01442737FD4095542FBE01665F24
:104AC0007F4FE82ECE010E94E024FE0129E0808184
:104AD000803321F4215031962F3FC9F7422F4F5F89
:104AE000F601808184FF0CC06181862F99278A1985
:104AF0009B09242F33272817390714F4462F4A1906
:104B0000442309F441E08AE0841BFE01E80FF11D13
:104B1000942F02C0819189939150E0F7C501840FD1
:104B2000911DDF91CF910F91EF90DF90CF90BF90CB
:104B3000AF9008952F923F924F925F926F927F9223
:104B40008F929F92AF92BF92CF92DF92EF92FF929D
:104B50000F931F93CF93DF93CDB7DEB72A970FB68E
:104B6000F894DEBF0FBECDBF9A87898778876F83A1
:104B700079018A0120E030E040E050E0C801B7014F
:104B80000E945B3688235CF48DE2E985FA85819387
:104B9000FA87E98717FB109517F9109513C0EF8175
:104BA000F8858081992782FF02C08BE206C083FDD1
:104BB00003C01D821C820AC080E2E985FA858193C8
:104BC000FA87E98741E050E05D834C83EF81F88507
:104BD000F381FE83F13629F421E62B8340E14A83F9
:104BE0000CC05E81513429F481E48B8390E19A8377
:104BF00004C0E1E6EB83FAE0FA830F2EF0E02F2EFB
:104C0000F0E03F2EF0E84F2EFFE35F2EF02DDD2485
:104C10002A81622F772767FD7095872F972F0E9433
:104C200025369B01AC01C201B1010E948F371B01E7
:104C30002C01D39447E0D41659F75A81652F772772
:104C4000882777FD8095982F0E9425365B016C019F
:104C5000A20191010E948F373B014C0120E030E01E
:104C600040E050E0C801B7010E945E36181614F00B
:104C700019822AC087E089830BC0A6019501C8016B
:104C8000B7010E947E357B018C0199819F5F9983DA
:104C9000A4019301C801B7010E945E3687FFEDCFE2
:104CA0000BC0A6019501C801B7010E948F377B0197
:104CB0008C01E981E150E983A2019101C801B701AA
:104CC0000E945B3687FDEDCFC801B7010E94083610
:104CD0009B01AC0169857A85685F7F4FEB800A8113
:104CE00089859A850E94E024E985FA85379698E0BF
:104CF0008081803321F4915031979923C9F7F9814C
:104D0000FC3F14F09F1764F42E81273619F471E0EC
:104D100005E618C04E81473441F471E005E412C045
:104D20005E81573639F0573429F00E81063619F076
:104D300071E008C006E6898187FF02C070E002C00A
:104D400079817F5F791714F010E002C0192F171BCB
:104D5000EF81F88582818F3F09F0182FEF81F88568
:104D6000808181FF03C0112309F411E0772311F042
:104D700031E007C031E0F9813F1B1F5F1F0F17FDB6
:104D800010E0272F210F822F992787FD9095FC0196
:104D9000E30FF11D49855A85E40FF51FDA01A80FCD
:104DA000B91F90E309C0283014F0908302C08C91A1
:104DB00080832150319711972717ACF7772309F09B
:104DC00043C0A985BA8580E38D932C813D812F5FF7
:104DD0003F4F1116B4F48EE2E985FA85818311966E
:104DE00080E301C08D93F981FF5FF983F7FDFACF6E
:104DF0002C813D8149855A85241B350B2A0F3B1F89
:104E00003AC0EF81F885628161506E3FA0F58EE275
:104E1000E985FA858183AD014F5F5F4F2F5F3F4F7B
:104E2000E985FA85862F90E39283815031968F3FF2
:104E3000D9F7862F9927280F391F2F5F3F4FDA01A7
:104E4000A80FB91F119617C011162CF0A985BA85A5
:104E50002C813D8110C0E72FFF27E7FDF0954985A4
:104E60005A85E40FF51F8EE28083DA0111962C81BA
:104E70003D812F5F3F4F672F772767FD7095812F0B
:104E8000992787FD9095680F791FC901860F971F95
:104E9000063651F1A60FB71FFD0101936F0108946B
:104EA000C11CD11C22E0A22EB12CA80EB91E598122
:104EB00057FF06C08DE2FD0181835195598303C0E0
:104EC0008BE2FD018183F9812F2F332727FD309558
:104ED000432F532FB6016E5F7F4FEB800A81C601CF
:104EE0000E94E024C50102962A960FB6F894DEBF10
:104EF0000FBECDBFDF91CF911F910F91FF90EF902B
:104F0000DF90CF90BF90AF909F908F907F906F90E9
:104F10005F904F903F902F9008950895EF92FF92E9
:104F20001F93CF93DF93EC017B01188219828FEFDF
:104F30008A831B821C821D821F821E8210E062C037
:104F40000894E11CF11C1230A9F1133030F4112344
:104F500069F0113009F056C011C0143009F44AC08C
:104F60001430D8F1153009F04DC049C0253211F484
:104F700011E048C08C818F5F8C8344C02D3219F4BE
:104F80008881816004C0233221F488818260888313
:104F900039C02B3219F488818460F9CF203219F49A
:104FA00088818860F4CF203319F488818061EFCF45
:104FB0002E3281F0822F80538A3050F489819AE01A
:104FC000899F802D1124820F8053898312E01AC09B
:104FD0002E3281F41A8213E015C0822F80538A305A
:104FE00048F48A819AE0899F802D1124820F805392
:104FF0008A8308C02B83FF82EE8215E003C08D8177
:105000008F5F8D83C7010E949029282F882309F084
:1050100097CFDF91CF911F91FF90EF900895FB0103
:105020002381223661F4452B19F060E670E010C050
:1050300065E670E00E94262985E090E0089522341C
:1050400019F080E090E00895452B39F06BE670E0B0
:105050000E94262984E090E0089560E770E00E94B5
:10506000262985E090E008958F929F92AF92BF929B
:10507000CF92DF92EF92FF920F931F93CF93DF9324
:10508000CDB7DEB7EA970FB6F894DEBF0FBECDBF3F
:10509000182F80E00E94C1225C01BC016E010894BF
:1050A000C11CD11CC6010E948E27113059F481E029
:1050B0000E94E822AB01BC01B601CE0109960E9414
:1050C00021250CC0123061F481E00E94E822AB017E
:1050D000BC01B601CE0109960E940F286C0112C0D6
:1050E000133059F481E00E949A229B01AC01B60171
:1050F000CE0109960E949A25F1CF87E00E94061FF3
:10510000CC24DD242A81822F9927C816D90614F0D1
:10511000992402C0922E9C188E81B601680F711DD1
:105120008D81890D912D911D0196680F791F80E069
:105130000E94E91D882E80E00E94C1228C010A197C
:105140001B098F819885800F911F98878F83882DE9
:105150000E944D1C7C014D815527A00EB11EB5014A
:105160000E944C298D818701080F111D898180FDC6
:105170000BC0892DF80190E201C091938150E8F7AE
:10518000090D111D3FEF932EA601BE01675F7F4FF2
:10519000C8010E944C290C0D1D1D898180FF09C08A
:1051A000892DF80190E201C091938150E8F7090D33
:1051B000111D4E8155276F817885C8010E944C29A9
:1051C0008E81080F111DF80110820E9401220E9499
:1051D0000122682D77278827992790680E94F2215D
:1051E000EA960FB6F894DEBF0FBECDBFDF91CF9128
:1051F0001F910F91FF90EF90DF90CF90BF90AF90F5
:105200009F908F9008950F931F93CF93DF93FC018E
:1052100097FD03C000E010E010C000E010E003C004
:105220000F5F1F4FFE01EF012196CF010E94EC118D
:105230008823B1F705C00F5F1F4F81918823D9F7ED
:10524000C801DF91CF911F910F9108950F931F9384
:10525000CF93DF93EC01FB0177FF0BC08F010F5F52
:105260001F4FCF010E94EC118993882331F0F80180
:10527000F5CF819189938823E1F7DF91CF911F9139
:105280000F910895FC0101C0319680818823E1F7D8
:10529000CF010E9426290895EF92FF920F931F934A
:1052A000CF93DF937C01EB018A0177FF12C001509D
:1052B00010408FEF0F3F1807E1F0CE010E94EC1174
:1052C000F70180838823A9F021960894E11CF11C42
:1052D000EECF01501040FFEF0F3F1F0751F08881C4
:1052E000F7018083882329F00894E11CF11C2196A2
:1052F000F0CFDF91CF911F910F91FF90EF90089524
:10530000FC0101C03196415050408FEF4F3F58078C
:1053100019F080818823B1F7CF010E944C290895AC
:10532000FC0197FF06C00E94EC11992787FD90951C
:1053300008958081992787FD9095089584B38F61A2
:1053400084BB85B3807E85BB0895282F85B3807E7E
:1053500085BB38E085B3922F991F9927991F892B18
:1053600085BB85B3862B85BB220F85B3807E85BB2D
:10537000315081F785B3842B85BB089585B3807E3A
:1053800085BB089542E00E94A52985B3807E85BB38
:10539000089540E062E00E94A529A89A85E0982F30
:1053A0009A95F1F7AA9A8A95F1F785B3887F85BB1C
:1053B00080E08A95F1F70895CF93DF93EC0103C065
:1053C00021960E94C92988818823D1F7DF91CF9146
:1053D00008951F93CF93DF93EC01162F03C089919B
:1053E0000E94C9291150D8F7DF91CF911F910895DC
:1053F00040E062E00E94A52985E0982F9A95F1F798
:10540000AA9A8A95F1F785B3887F85BB80E08A9553
:10541000F1F708958130910599F0823091051CF4DF
:10542000892B49F011C08230910519F0039761F47E
:1054300005C06C5E7F4F862F805804C06C5E7F4F26
:10544000862F80540E94F82980E08A95F1F708950C
:1054500081E00E94F82980E49FE10197F1F7089527
:105460000F931F9384B3876084BBA59880E090E07E
:105470000197F1F788E30E94F82900E21EE4C801D1
:105480000197F1F788E30E94F829C8010197F1F725
:1054900088E30E94F829C8010197F1F784E10E948E
:1054A000F829C8010197F1F78EE00E94F8290E94BF
:1054B000282A1F910F9108959C01E0EAFFE003C0A4
:1054C000CF010197F1F7215030408FEF2F3F380780
:1054D000B9F7089589E180930F0510921005109295
:1054E00004051092030510921105109212051092F6
:1054F0001305109214051092090510920E051092D2
:10550000080510920705109216051092150595983A
:105510009498C39897988D9A8C9ABB9A8F9AA69ACA
:10552000A79A12BE8BE083BF89E08CBF89B78260E7
:1055300089BF08951F920F920FB60F9211242F93D7
:105540003F934F935F936F937F938F939F93AF930B
:10555000BF93EF93FF9380910F05893109F0CEC07F
:1055600010920F0580910305909104050196909388
:10557000040580930305885E9340B9F410920405F6
:10558000109203058091110590911205A0911305C9
:10559000B09114050196A11DB11D80931105909342
:1055A0001205A0931305B09314050E945A2E809102
:1055B00010058F5F80931005843191F510921005CE
:1055C0000E94142CE0910705F09108059F01F7FF58
:1055D00004C0222733272E1B3F0BC90169E170E06D
:1055E0000E94023980930A05C90169E170E00E94B6
:1055F000023960930B05643119F485E180930B0542
:1056000085B38F7B1E161F060CF4DBC085BB82B3EF
:105610008F7DEF2B11F490E001C090E2892B82BBCB
:10562000809110058530C1F420910905822F69E130
:105630000E94E23890930105822F0E94E2388A5F2F
:105640008093020588B3222311F098E001C090E016
:10565000877F892B88BB52C08A30A9F50E94DA2C3B
:10566000E0911505F09116059F01F7FF04C0222770
:1056700033272E1B3F0BC90169E170E00E940239FC
:1056800080930505C90186509F4F64EF71E00E9429
:10569000023969E170E00E94023960930605245FD7
:1056A000314019F485E18093060585B38F77F7FDC6
:1056B0008DC085BB82B38F7EEF2B11F490E001C0CB
:1056C00090E1892B82BB809110058F30B9F4209135
:1056D0000E05822F69E10E94E23890930C05822F1B
:1056E0000E94E238805F80930D0582B3222311F07F
:1056F00090E801C090E08F77892B82BB60910F0505
:1057000059E1561B7091100580910B05871799F48C
:1057100040910A05461B14165CF4242F332727FDFD
:105720003095852F9927281739072CF4542F03C05B
:10573000442309F4959880910605871799F44091C0
:105740000505461B14165CF4242F332727FD3095DE
:10575000852F9927281739072CF4542F03C0442389
:1057600009F4949880910205871799F440910105F6
:10577000461B14165CF4242F332727FD3095852F04
:105780009927281739072CF4542F03C0442309F410
:10579000C39880910D058717F1F440910C05461BC5
:1057A00014165CF4242F332727FD3095852F992775
:1057B0002817390784F4542F0EC0442361F49798B6
:1057C0000AC0806485BB82B38F7D27CF806885BB8C
:1057D00082B38F7E75CF80910F05850F80930F0563
:1057E0008AE0589FC001112481508CBFFF91EF9136
:1057F000BF91AF919F918F917F916F915F914F91E9
:105800003F912F910F900FBE0F901F9018951092FF
:10581000B1001092B0001092B3001092B20010923A
:10582000B5001092B4000895DF92EF92FF920F93AB
:105830001F93D0901D052D2D332727FD3095EAEBC2
:10584000F0E08191992787FD9095280F391F40E05E
:10585000E43CF407B1F782E390E0AC01249FC0017F
:10586000259F900D349F900D11246BE070E00E94F5
:1058700002399B0170931C0560931B0580911705ED
:1058800080FF7EC060911E0570911F05621B730B27
:105890007093B7006093B6008091B0009091B10012
:1058A000860F971F9093B1008093B00053E1893821
:1058B00095071CF088E893E105C088579C4E34F4A6
:1058C00088E79CEE9093B1008093B0008091B40083
:1058D0009091B500860F971F9093B5008093B40008
:1058E0008050904831F481E090E89093B500809327
:1058F000B40084E190E0AB01489FB001499F700D76
:10590000589F700D11242091B0003091B100620FAA
:10591000731F660F771F882777FD8095982F0E9449
:1059200025367B018C016091B4007091B500882709
:1059300077FD8095982F0E9425362DEC3CEC4CECA1
:105940005DE30E948F379B01AC01C801B7010E9443
:105950007F340E940836CB0158ED603F75071CF478
:1059600080EF98ED05C06151774214F080E197E235
:1059700064E170E00E9402397093080560930705A6
:105980008091CE008A3011F41092CE008091CE002A
:10599000E82FFF27E7FDF095E654FF4FD0828F5F99
:1059A0008093CE0010921D051F910F91FF90EF90F4
:1059B000DF900895DF92EF92FF920F931F93D090A4
:1059C00018052D2D332727FD3095E4ECF0E081916B
:1059D000992787FD9095280F391F40E0EE3CF4078A
:1059E000B1F782E390E0AC01249FC001259F900DA8
:1059F000349F900D11246BE070E00E9402399B01EE
:105A000070931A05609319058091170581FF7EC078
:105A10006091200570912105621B730B7093B90092
:105A20006093B8008091B2009091B300860F971FE9
:105A30009093B3008093B20053E1893895071CF02E
:105A400088E893E105C088579C4E34F488E79CEEC3
:105A50009093B3008093B2008091B4009091B50010
:105A6000861B970B9093B5008093B40080509048AC
:105A700031F481E090E89093B5008093B40084E124
:105A800090E0AB01489FB001499F700D589F700D89
:105A900011242091B2003091B300620F731F660F82
:105AA000771F882777FD8095982F0E9425367B01E8
:105AB0008C016091B4007091B500882777FD8095C6
:105AC000982F0E9425362DEC3CEC4CEC5DEB0E94AF
:105AD0008F379B01AC01C801B7010E947F340E943F
:105AE0000836CB0158ED603F75071CF480EF98ED48
:105AF00005C06151774214F080E197E264E170E003
:105B00000E94023970931605609315058091CF00AD
:105B10008A3011F41092CF008091CF00E82FFF2738
:105B2000E7FDF095EC53FF4FD0828F5F8093CF005D
:105B3000109218051F910F91FF90EF90DF9008953C
:105B40009AB3809598239ABB9BB398239BBB0895E7
:105B500090E497B997B18770982B97B987EC86B97D
:105B600001C000003699FDCF24B185B19927982F47
:105B70008827820F911D0895282FBE9A30E0C7987C
:105B800098B3822F881F8827881F8295880F880FD7
:105B9000807C9F7B982B98BB0000000000000000D9
:105BA000C79A00000000000000003F5F383011F08D
:105BB000220FE5CF0895BE9830E020E0C79800009E
:105BC000000000000000C79A86B3220F992746E024
:105BD000969587954A95E1F78170282B0000000083
:105BE000000000003F5F383049F7822F9927089561
:105BF0001F93162F80680E94BC2D812F0E94BC2D00
:105C000080E08A95F1F71F9108950E94BC2D80E0F5
:105C10008A95F1F70E94DB2D9927089561E080E0D5
:105C20000E94F82D60E088E00E94F82D81E08093CA
:105C3000D000089588E00E94052E982F8091D00012
:105C4000813049F404C088E00E94052E982F97FF08
:105C5000FACF1092D000892F9927089584E690E01A
:105C60000E945C2AC798BF9A80E49CE90197F1F7EB
:105C700060E880E00E94F82D61E080E00E94F82D4D
:105C80000895BC988B9810922705109226051092C3
:105C900029051092280581E080932305809324052F
:105CA00010921D051092180583E0809322058093C1
:105CB0002B05089596B3907180912A05981729F0C5
:105CC00090932A051092220509C080912205833005
:105CD00028F4809122058F5F809322058091220510
:105CE000823079F5809107059091080518161906FC
:105CF00024F481E08093230509C0892B19F01092C8
:105D0000230511C080912305882369F08091260521
:105D10009091270501969093270580932605809101
:105D20001D058F5F0CC08091260590912705019776
:105D3000909327058093260580911D0581508093BF
:105D40001D0590B3987080912505981729F09093C0
:105D5000250510922B0509C080912B05833028F46E
:105D600080912B058F5F80932B0580912B058230CE
:105D700089F580911505909116051816190624F4D9
:105D800081E08093240509C0892B19F01092240525
:105D900013C080912405882379F080912805909183
:105DA000290501969093290580932805809118056F
:105DB0008F5F80931805089580912805909129059B
:105DC00001979093290580932805809118058150AB
:105DD0008093180508951F920F920FB60F92112409
:105DE0002F933F934F938F939F9386B399279695C5
:105DF0008795982F917041E049278091D2008F3F7D
:105E000029F08091D2008F5F8093D2008091D100E1
:105E10008417C1F18091D200843008F443C080918E
:105E2000D500882371F4992339F48091D2008B3FF7
:105E300018F081E090E017C01092D4001092D300C7
:105E40001EC08091D200883078F18091D2008D30D0
:105E5000A0F48091D3009091D400880F991F242F33
:105E60003327822B932B9093D4008093D30080917F
:105E7000D5008F5F8093D50002C01092D50010929C
:105E8000D20012C08091D2008D3070F08091D50088
:105E90008E3041F48091D3009091D40090932D05E1
:105EA00080932C051092D5004093D1009F918F9143
:105EB0004F913F912F910F900FBE0F901F9018950B
:105EC00080912C0590912D0510922D0510922C0596
:105ED0000895B998C19A14BC8CE085BD8BE283BD4E
:105EE00089B7806889BF08950E94F7300E945B32AD
:105EF0000E943D310E9442300E94AE310E94043225
:105F00000E9473340E9435320E946A320E94F0323D
:105F10000E94F7320E9498330E949B330E94C23342
:105F20000E94633460E183E00E94C22980E49CE91E
:105F30000197F1F760E180E00E94C2290895892F5E
:105F40009927449771F461E070E080E00E94E91DB8
:105F50009927AA27BB27B068BC01CD010E94F22176
:105F6000089588E00E94061F0895882319F40E946E
:105F70000122089587E00E94061F0895292F3327E4
:105F80002031310519F40E94B52F089522313105D1
:105F900019F40E94982108952331310519F40E94C3
:105FA000572108952431310519F40E94892008955C
:105FB0002B32310519F40E94BD2308952C3231058E
:105FC00019F40E94342808952C31310519F40E94E7
:105FD000443008952D31310519F40E949830089508
:105FE0002E31310519F40E94FA3008952F31310510
:105FF00019F40E94643108952032310519F40E9489
:10600000B53108952132310519F40E94663408959E
:106010002232310519F40E940B32089523323105E2
:1060200019F40E943C3208952532310519F40E947A
:10603000A13208952432310519F40E946C3208957A
:106040002632310519F40E94F832089527323105BD
:1060500019F40E94643308952832310519F40E941E
:106060009C3308952932310519F40E94C4330895F0
:106070002A32310519F40E94FF33089588E00E9406
:10608000061F0895BA980895813039F466B37727CA
:10609000769567957695679519C0823069F40E9468
:1060A000FF222091FF04611571058105910511F012
:1060B0002F7B23C0206421C0833089F46091FF04CA
:1060C000772786E0769567958A95E1F7882799275F
:1060D00061707070807090700E94F2210895843019
:1060E000A1F40E94FF222091FF0461157105810532
:1060F000910511F02F7701C020682093FF0468E01C
:106100008091FF040E94C2290895853081F420E027
:1061100030E040E050E08091FF0487FF04C021E0C0
:1061200030E040E050E0CA01B9010E94F221089538
:10613000EF92FF920F931F93833081F40E94FF220E
:106140009B01AC01E0EAFFE003C0CF010197F1F74A
:106150002150310941095109C0F744C0843049F543
:106160000E94FF220E9425362BEA3AEA4AEA50E4CE
:106170000E948F377B018C0120E030E040E85FE334
:106180000E945B36882314F461E010C020E030E008
:106190004FE753E4C801B7010E945E36181614F4A5
:1061A00060E004C0C801B7010E9408366A95F1F7A3
:1061B00019C0813059F4F894789460911105709168
:1061C000120580911305909114050AC0823051F494
:1061D000F8947894609103057091040588279927B5
:1061E0000E94F2211F910F91FF90EF9008950E945D
:1061F0006A2A0895EF92FF920F931F93CF93DF9334
:10620000813019F40E94282A31C0823061F40E9442
:1062100001227B018C010E94012277278E2D992774
:106220000E940A2A23C08330C9F40E94D822EC01BC
:10623000992384F403C00E94C929E8018E010F5FED
:106240001F4FCE010E94EC118823A9F70FC02196A1
:106250000E94C92988818823D1F708C0843019F4A5
:106260000E94D82203C087E00E94061FDF91CF91D1
:106270001F910F91FF90EF9008950E94302A60E0E7
:1062800070E081E090E00E940A2A86E790E00E9498
:10629000DC2960E070E082E090E00E940A2A8BE84E
:1062A00090E00E94DC296BE070E082E090E00E94C8
:1062B0000A2A80EA90E00E94DC298CED95E00E9499
:1062C0005C2A0E94282A0895813041F480E00E94CF
:1062D000A82D90932F0580932E050895823041F4C8
:1062E00081E00E94A82D9093310580933005089598
:1062F000833029F460912E0570912F0506C08430FB
:1063000049F46091300570913105882799270E94E2
:10631000F22108958530A1F40E94FF222091FF040C
:10632000611571058105910511F02E7F01C0216075
:106330002093FF0468E08091FF040E94C229089521
:10634000863059F46091FF04772788279927617078
:106350007070807090700E94F221089580E00E9419
:10636000A02D81E00E94A02D0895813041F486E0A7
:106370000E94A82D90932F0580932E0508958230BA
:1063800041F487E00E94A82D909331058093300559
:106390000895833029F460912E0570912F0506C071
:1063A000843049F460913005709131058827992730
:1063B0000E94F22108958530A1F40E94FF222091CD
:1063C000FF04611571058105910511F0277F01C05A
:1063D00028602093FF0468E08091FF040E94C22996
:1063E0000895863081F46091FF04772783E07695E5
:1063F00067958A95E1F7882799276170707080709A
:1064000090700E94F221089586E00E94A02D87E0FE
:106410000E94A02D0895813041F484E00E94A82DAF
:1064200090932F0580932E050895823041F485E0E6
:106430000E94A82D909331058093300508958330F4
:1064400049F460912E0570912F05882799270E94A5
:10645000F2210895843041F4609130057091310546
:10646000882799270E94F221089584E00E94A02D98
:1064700085E00E94A02D0895813081F40E94FF22C2
:10648000DC01CB018093D6009093D700A093D80075
:10649000B093D90060E10E94C2290895823051F47E
:1064A0006091D6007091D7008091D8009091D9006A
:1064B0000E94F22108950E949E2960E180EC0E94D2
:1064C000C22980E49CE90197F1F760E180E00E9435
:1064D000C2290895B8980895813059F466B3772792
:1064E0008827992761707070807090700E94F221E7
:1064F00008958230A1F40E94FF222091FF046115CB
:1065000071058105910511F02B7F01C02460209356
:10651000FF0468E08091FF040E94C229089583303F
:1065200079F46091FF04772776956795769567955E
:106530008827992761707070807090700E94F22196
:106540000895813041F482E00E94A82D90932F0598
:1065500080932E050895823041F483E00E94A82D97
:1065600090933105809330050895833029F460912C
:106570002E0570912F0506C0843049F460913005D6
:1065800070913105882799270E94F221089585305E
:10659000A1F40E94FF222091FF046115710581057D
:1065A000910511F02F7D01C020622093FF0468E067
:1065B0008091FF040E94C2290895863081F4609181
:1065C000FF04772785E0769567958A95E1F7882718
:1065D000992761707070807090700E94F221089508
:1065E00082E00E94A02D83E00E94A02D08950895CE
:1065F000813071F40E94FF22F89470930805609333
:106600000705809117058E7F80931705789408956C
:10661000823071F40E94FF22F89470931605609303
:106620001505809117058D7F80931705789408953F
:10663000853071F40E94FF22F89470931F056093D7
:106640001E05809117058160809317057894089541
:10665000863071F40E94FF22F894709321056093B4
:10666000200580911705826080931705789408951E
:10667000833021F0843049F0873029F46091070598
:106680007091080506C0883059F460911505709125
:106690001605882777FD8095982F0E94F22108958E
:1066A000893089F4F894109216051092150510920D
:1066B000080510920705809117058C7F80931705B8
:1066C0000E94072C78940895813011F483E002C071
:1066D000823041F40E94052E992787FD9095A92FBD
:1066E000B92F12C0833021F484E00E94052E09C026
:1066F000843019F40E940E2E0895853051F40E94C2
:106700001A2E9927AA27BB27BC01CD010E94F2218E
:106710000895863049F460E880E00E94F82D61E039
:1067200080E00E94F82D089587E00E94061F0895DA
:106730000E942E2E08950895813039F40E94FF2280
:10674000F8946093090578940895823039F40E9492
:10675000FF22F89460930E0578940895833041F4F5
:10676000609109057727882799270E94F2210895CB
:10677000843039F460910E057727882799270E9485
:10678000F22108958E980895813081F460B37727BF
:1067900096E0769567959A95E1F788279927617035
:1067A0007070807090700E94F22108958230A1F480
:1067B0000E94FF222091FF0461157105810591055A
:1067C00011F02F7E01C020612093FF0468E08091CA
:1067D000FF040E94C2290895833081F46091FF0470
:1067E000772784E0769567958A95E1F7882799273A
:1067F00061707070807090700E94F22108958130F5
:1068000079F4F8946091260570912705882777FD23
:106810008095982F1092270510922605789441C0F4
:10682000823079F4F89460912805709129058827C1
:1068300077FD8095982F109229051092280578945D
:1068400030C08330A1F40E94FF222091FF04611523
:1068500071058105910511F02D7F01C02260209303
:10686000FF0468E08091FF040E94C22908958430EB
:1068700061F46091FF0477277695679588279927BB
:1068800061707070807090700CC0853069F4F894FD
:10689000789460911B0570911C05882777FD809581
:1068A000982F0E94F2210895863061F4F89478942C
:1068B0006091190570911A05882777FD8095982FAA
:1068C0000E94F22108950E94412E0895813051F4D2
:1068D000F8940E94602F7894AA27BB27BC01CD01B1
:1068E0000E94F22108950E94692F08954AD050E82D
:1068F00095275FE349EC3FE02BED01C05058192E7E
:1069000075D201D025C2BA176207730784079507AD
:10691000B1F188F40EF410940B2EBA2FA02D062E90
:10692000622F202D072E732F302D082E842F402DFF
:10693000092E952F502DFF275523B9F0591B49F0EB
:10694000573E98F0469537952795A795F040539573
:10695000C9F776F0BA0F621F731F841F30F4879552
:1069600077956795B795F040939517FA0F2E089590
:10697000BF1BBB27BA0B620B730B840BF6CFDEF683
:1069800061C2AA2797FDA160AF939F775FE340E8BC
:10699000613071058407950720F00E94C036AF91E1
:1069A00008959F938F937F936F93E4E5F0E00E94A7
:1069B000C3362F913F914F915F919F938F937F9318
:1069C0006F939FE380E87727662750680E947F34A3
:1069D0000E9433382F913F914F915F910E948F37E2
:1069E0005FE349EC3FE02BED90680E947F34AF916C
:1069F000A0FD906808951F930F930027192F10781A
:106A00009F775FE340E8613071058407950718F0D0
:106A100000680E949B36912B6F937F938F939F9377
:106A20000E947138E6E7F0E0AED15F914F913F915F
:106A30002F910E948F37002351F02BED3FE049EC5E
:106A40005FE300E8902717FD50680E947F340F91A4
:106A50001F910895552319F0992351F018C09923D7
:106A6000A1F097FB6BED7FE089EC9FE397F9089528
:106A7000552359F02AF46BED7FE089E490E4089502
:106A8000662777278827992708950C94C0361F9387
:106A9000112797FD116057FD12600E947E350E94FC
:106AA000FB3411FF08C02BED3FE049E450E410FD3A
:106AB00050680E947F341F910895B2D19F3770F4BF
:106AC0003EF0992329F09FE380E877276627089511
:106AD000B6C1869577956795B11D93959639C8F39C
:106AE0002EF0BB2319F06F5F7F4F8F4FBB2730C154
:106AF00050E449EC3FE02BEDCBD0FFC077D101D083
:106B000027C1552359F0992369F09F575F57951B6B
:106B100033F442F4903811F4915805C031C19158C2
:106B20009F3F09F48FC1BB271124621773078407A5
:106B300030F4660F771F881FBB1F915098F311D058
:106B40000F920FD00F920DD0A0E8261737074807F5
:106B50001B0609F0A048BA2F602D7F918F91002469
:106B60000895A0E80024621773078407B10528F090
:106B7000621B730B840BB1090A2A660F771F881FEB
:106B8000BB1FA69581F70895092E99234AF052E478
:106B900041EB32E7683173078407950758F0F0C07E
:106BA0009F7752E44EEA3CEA603573078407950705
:106BB00008F045C10F925FE348EB3AEA2BE3AFD10F
:106BC000FF92EF92DF92CF9250E04CE078D1ECE967
:106BD000F0E0D9D05F2D4E2D3D2D2C2DCF90DF90A4
:106BE000EF90FF90FEE94595441F551FF51B552773
:106BF000406804C04695379527955795FA95D2F782
:106C0000452F550F550B20D10F9007FC94C00895C8
:106C100097FBF8D09F3738F0FEE9F91B982F872FA4
:106C2000762F6B2F05C00BC1969587957795679545
:106C3000F150D0F73EF490958095709561957F4F17
:106C40008F4F9F4F0895E89403C097FB0EF4F3DF36
:106C5000B62F672F782F892F9EE9002479C0E0D0C6
:106C60009F3760F40EF0EBC09FEB80E87727662734
:106C70000895869577956795B11D93959639C8F3D4
:106C80002EF4BB2319F06F5F7F4F8F4FBB2760C07F
:106C90005F77552319F444230AF072C02F933F9372
:106CA0004F935F932BDF5527442709D15F914F9175
:106CB0003F912F9134C10ED05EF004C00BD026F06E
:106CC00001C008D019F020F48FEF089580E00895F6
:106CD00081E0089597FB092E052600F8689489D075
:106CE000E89407FC07C0621773078407950721F033
:106CF00008F400940794989408951F939F7750EC9C
:106D000049E43FE02BEDFBDD10E89F775FE349ECC2
:106D10003FE02BED621773078407950720F050ECD6
:106D200049E4EDDD1127DDD19068EAEBF0E02BD0EE
:106D300091271F9108959B01AC019FE380E877277D
:106D400066270C947E359A95BB0F661F771F881FA8
:106D500011249923A1F08823B2F79F3F59F0BB0F6C
:106D600048F421F4002011F460FF04C06F5F7F4FEE
:106D70008F4F9F4F881F9795879597F908955FC00C
:106D80009FEF80EC0895FF92EF92DF92CF92BF9237
:106D90006B017C01B59016D0B590BB2069F09F9334
:106DA0008F937F936F93B601C7010CD02F913F91C2
:106DB0004F915F910E947E35BF90CF90DF90EF9012
:106DC000FF900895D1D102C09601A701EF93FF93E0
:106DD0000E948F37FF91EF91C7D1EF93FF930E94ED
:106DE0007F34FF91EF91BA9479F70895052E092623
:106DF00007FA440F551F5F3F79F0AA27A51708F03F
:106E000051E04795880F991F9F3F31F0BB27B91775
:106E100008F091E0879508959F919F911124B0CF3C
:106E200097FB880F991F9F3F31F0BB27B91708F0D8
:106E300091E0879508959F919F911124A1CF662796
:106E40007727882799270895EBDF992359F0AA27F8
:106E5000940FA51F43F032F04FEF50E09417A507B1
:106E600014F476CFECCF0EF089C183C197FD88CFA3
:106E7000D7DF992309F484CFFF92EF92DF92CF926C
:106E8000C92E9FE38F77E0EEF0E07DDF0C2CC92E5A
:106E9000D82EE72EF62E602D6E57770B872F972F63
:106EA000D4DE5FE341E332E728E139D05C2D4D2D9C
:106EB0003E2D2F2DCF90DF90EF90FF9020CDB0DFB3
:106EC000CF93DF93D52FC42F55274427332722276D
:106ED0009923D9F09F37C8F0F92F3ADF592F482F5F
:106EE000372F262FF63968F493DEAFDEC030CD079A
:106EF00021F069937993899399939058DF91CF9179
:106F0000FECC9927882777276627C030CD0721F048
:106F10002993399349935993DF91CF9119CF66DF24
:106F200001D016CF992339F0552329F09F575F5789
:106F3000950F13F49AF186CF91589F3FE1F3629F2A
:106F4000A12D0F92BB27639FA00DB11DEE27729F4D
:106F5000A00DB11DEE1FAF93AA27649FB00DE11DD8
:106F6000739FB00DE11DAA1F6627829FB00DE11D22
:106F7000A61F5527749FE00DA11D551F839FE00D8F
:106F8000A11D561F849FA00D511D852F7A2F6E2F96
:106F90001F900F9088231AF4939539F4F1CE000CCA
:106FA000111CBB1F661F771F881F012808953CD046
:106FB00038F02ED060F186F021F436D009F03EF59D
:106FC000DFCE5F934F933F932F9350DF2F913F91ED
:106FD0004F915F91A4DFD8CD27D098F389F0089422
:106FE000E795D901AA2329F4AB2FBE2FF85FD0F380
:106FF000E8CFFF5F30F7A695E0F7F73908F309F01F
:107000009F779F939F77DDDFEF91E0789E2708952C
:10701000E894FC01EE0FFF1F30966105710519F031
:10702000F395F14097FB0895E894FA01EE0FFF1FE6
:1070300030962105310519F0F395F14057FB08957D
:107040009F939F77993358F050E449EC3FE02BED44
:107050001FDE5FEB49EC3FE02BED51DC4EDE5F9134
:1070600050789527089597FD8BCE992309F40895BC
:10707000482FD6DEF92FFF57F5959F1B9F1BFF93D7
:1070800067DEFF92EF92DF92CF92BF92AF929F9214
:107090008F926B017C014058479533272227406827
:1070A0005FE3B601C70149015A010E947E35940190
:1070B000A5010E947F344FEF5FEFC6DE9B01AC015C
:1070C00082169306A406B50661F78F909F90AF9045
:1070D000BF90CF90DF90EF90FF905F91A1DE950F72
:1070E00037CE9B01AC010C948F371F93192F10786A
:1070F0009F77993398F150E449E43FE02BEDC8DDE8
:107100005FE349EC3FE02BED2617370748075907A7
:1071100049F130F450E449E49068F1DB50E8152778
:107120005FE349E43FE02BED26173707480759078F
:1071300020F41395906849ECE2DB9F938F937F9343
:107140006F93CFDF9068E2E1F1E01DDE2F913F9178
:107150004F915F91E4DE10FF01C0EDDD17FD9068F7
:107160001F9108951F910CCE559145913591259110
:1071700008959FEF80E870E060E008959FE780E861
:1071800070E060E00895629FD001739FF001829FDC
:10719000E00DF11D649FE00DF11D929FF00D839FA6
:1071A000F00D749FF00D659FF00D9927729FB00D43
:1071B000E11DF91F639FB00DE11DF91FBD01CF0156
:1071C00011240895991B79E004C0991F961708F0BF
:1071D000961B881F7A95C9F780950895AA1BBB1B3B
:1071E00051E107C0AA1FBB1FA617B70710F0A61BC7
:1071F000B70B881F991F5A95A9F780959095BC01E8
:10720000CD01089597FB092E07260AD077FD04D0FB
:10721000E5DF06D000201AF4709561957F4F089540
:10722000F6F7909581959F4F0895A1E21A2EAA1B1B
:10723000BB1BFD010DC0AA1FBB1FEE1FFF1FA21726
:10724000B307E407F50720F0A21BB30BE40BF50B23
:10725000661F771F881F991F1A9469F760957095AC
:10726000809590959B01AC01BD01CF01089597FBDE
:10727000092E05260ED057FD04D0D7DF0AD0001CFA
:1072800038F450954095309521953F4F4F4F5F4FC3
:107290000895F6F790958095709561957F4F8F4F83
:1072A0009F4F0895E199FECFBFBBAEBB0DBA1196BB
:0E72B0000FB6F894E29AE19A0FBE0895FFCF50
:1072BE00747275650066616C7365005452554500B5
:1072CE0046414C534500202057656C636F6D652019
:1072DE00746F204A61766120202000202020204EED
:1072EE00616E6F564D20202020202020202020006F
:0872FE00312E350001000000F3
:00000001FF
