:100000000C9434000C9451000C9451000C94510049
:100010000C9451000C9451000C9451000C9451001C
:100020000C9451000C9451000C9451000C94630DED
:100030000C9451000C9451000C9451000C945100FC
:100040000C9451000C9451000C949E0C0C94510093
:100050000C9451000C9451000C9451000C945100DC
:100060000C9451000C94510011241FBECFEFD4E02A
:10007000DEBFCDBF11E0A0E0B1E0E4E8FEE102C0E8
:1000800005900D92A831B107D9F714E0A8E1B1E0CD
:1000900001C01D92A734B107E1F70E9453000C94F0
:1000A000410F0C940000CFEFD4E0DEBFCDBF0E9423
:1000B0008B0C0E947E0D0E9481090E94AD010E945E
:1000C00026020E940E01FFCF80E090E00895DC013F
:1000D000BF77062E0E94350F0895CF93DF93CDB7DB
:1000E000DEB724970FB6F894DEBF0FBECDBFFE017A
:1000F0003196DC01BF7784E0182E0E94300F6981B1
:100100007A818B819C8124960FB6F894DEBF0FBE56
:10011000CDBFDF91CF910895CF93DF93CDB7DEB7F9
:1001200022970FB6F894DEBF0FBECDBFFE01319609
:10013000DC01BF7782E0182E0E94300F89819A81FE
:1001400022960FB6F894DEBF0FBECDBFDF91CF91E0
:100150000895EF92FF920F931F938C0190E0E92E88
:1001600090E0F92EC7010A960E948C00E80EF91E55
:10017000000F111FC701800F911F0E948C008E0D70
:100180009F1D1F910F91FF90EF900895EF92FF92A6
:100190000F931F938C0140E0E42E40E0F42EC70142
:1001A0000C960E948C0033E0000F111F3A95E1F786
:1001B000080F191FC8018E0D9F1D1F910F91FF90F1
:1001C000EF900895CF93DF93CDB7DEB721970FB6A9
:1001D000F894DEBF0FBECDBFDC01BF7781E0FE012A
:1001E0003196182E0E94300F8981992721960FB6DB
:1001F000F894DEBF0FBECDBFDF91CF9108958EE0A2
:1002000090E00E94E200992708959927880F991F8E
:10021000805F9F4F0E94E20099270895EF92FF921E
:100220001F93CF93DF93EE24FF2410C0C12FDD274F
:10023000CE010E94C60004960E94E20080FF03C027
:10024000CE010E9431020894E11CF11C1E2D85E0B4
:1002500090E00E94E200E81648F386E090E00E94F9
:100260008C000E943102DF91CF911F91FF90EF909F
:100270000895CF93DF93DB01BF77EA01FC0121975B
:1002800024F00E94280F0192FACFDF91CF910895B8
:10029000CF92DF92EF92FF920F931F93CF93DF9352
:1002A000CDB7DEB728970FB6F894DEBF0FBECDBF2F
:1002B000C82ED62EEE24FF2420C0012F1127C801FE
:1002C0000E94C60048E050E0BC01CE0101960E94A9
:1002D00039014B815C81252F33278C2D99272817D5
:1002E000390741F450708D2D99274817590711F49B
:1002F000C8010CC00894E11CF11C1E2D85E090E0A3
:100300000E94E200E816C8F28FEF90E028960FB640
:10031000F894DEBF0FBECDBFDF91CF911F910F913B
:10032000FF90EF90DF90CF9008950F931F93182FB9
:10033000062F602F812F0E9448018F3F51F4812F9B
:100340009927880F991F815F9F4F0E94E200182F05
:10035000F0CF99271F910F9108950F931F9380E07D
:1003600090E00E946D009B01AC015E6B6373707046
:1003700080709E7B621773078407950711F08AE0EF
:1003800007C084E090E00E94E200823031F08BE010
:100390000E946B0980E090E013C08AE090E00E9428
:1003A0008C008C0188E090E00E948C00081B190BE7
:1003B00016950795169507950093220181E090E028
:1003C0001F910F91089596FD906808951F93CF9304
:1003D000DF93EC01892F992780319105B0F40E94B9
:1003E00005019927880F991F0296BC0181E00E94A0
:1003F000BA08182F992790680E94A20B812F0E949B
:100400006D07FC01D183C08303C0CE010E94AA0EF8
:10041000DF91CF911F910895CF93DF93EC0197FD6A
:1004200003C08CE00E946B09CE018070907C8050EC
:10043000904821F48C2F0E946D0705C0CE019F7358
:100440000E94A9009068DF91CF9108950E94CE0686
:100450000E94FF000E94600C80E090E00E94A20BCE
:1004600008952F923F924F925F926F927F928F9258
:100470009F92AF92BF92CF92DF92EF92FF920F9333
:100480001F93CF93DF93CDB7DEB728970FB6F894BD
:10049000DEBF0FBECDBF1C010E94C6002C0148E08C
:1004A00050E0BC01CE0101960E943901A980BA80BA
:1004B000A40CB51C8F812885820F912D911D2E8152
:1004C000820F911D880F991F0E9402080E94D70B6E
:1004D000029690932401809323018F810E94C70B81
:1004E0000E94820C88249924C5010E94E200C82E33
:1004F000C50101960E94E200782EC50102960E9475
:10050000E200682ECC2009F46EC380E1C81629F4FD
:10051000872D992787FD90951AC391E1C91619F483
:10052000C3019F77EEC28C2D8250873020F48C2D32
:100530009927039753C1E6E3CE1691F4072D1127AF
:1005400007FD1095000F111F809123019091240148
:10055000080F191F0E94AF0BF80191838083F9C225
:100560008C2D8B53843090F40C2D1127000F111F0C
:100570008091230190912401080F191F0657104004
:100580000E94AF0BF801918380833AC1F5E1CF1649
:1005900079F4E72DFF27E7FDF095EE0FFF1F80911F
:1005A000230190912401E80FF91F80819181CFC22E
:1005B0008C2D8A51843070F4EC2DFF27EE0FFF1F35
:1005C0008091230190912401E80FF91FF497808115
:1005D000918104C18C2D89598C3008F050C086302F
:1005E00028F486E0C80E00E010E003C00E94520C20
:1005F0008C010E94520C4C0191EAC916F1F09C1535
:1006000038F0EFE9CE1669F0F0EACF1681F50FC0A9
:1006100083EAC816F1F0C816B0F094EAC91639F5A5
:100620001EC080E090E08016910601F51DC080E0BC
:1006300090E080169106D1F017C080E090E080161F
:100640009106A4F411C080E090E08016910674F049
:100650000BC080E090E00815190544F405C080E067
:1006600090E00815190514F081E090E04C01811428
:10067000910409F4BAC2A60CB71C80E0B7C2E7EA3D
:10068000CE1639F4A60CB71C8DEF9FEFA80EB91E3D
:10069000BCC28C2D8056853208F0A3C094E7C916E1
:1006A00049F40E94520C88249924881A990AC4019A
:1006B0009F7793C2E4E8CE16D1F4E72DFF27E7FD3C
:1006C000F095EE0FFF1F8091230190912401E80F18
:1006D000F91F2081318136FD3068862D992787FDED
:1006E0009095280F391F3F77318320838EC20E9457
:1006F000520C4C010E94520C8C01F8E7CF1609F401
:100700004EC0FC15A8F088E6C81671F18C1540F0B3
:1007100090E6C91619F1E4E6CE1609F05DC021C0D5
:10072000FCE6CF1651F180E7C81609F055C031C07C
:100730009EE7C91609F441C09C1540F0EAE7CE16C1
:10074000A9F1FCE7CF1609F047C040C080E8C81601
:10075000B9F192E8C91609F03FC035C0080D191D5E
:100760003BC00819190938C0F801E89D8001E99DCE
:10077000100DF89D100D11242FC08114910419F44F
:100780008EE00E946B09C801B4010E94150F8B0115
:1007900023C0C801B4010E94150F8C011DC0082C94
:1007A00002C0000F111F0A94E2F716C0082C02C005
:1007B000159507950A94E2F70FC0082119210CC07E
:1007C0000829192909C00825192506C0082C02C0C6
:1007D000169507950A94E2F7C8019F770E94A20B2D
:1007E0000FC0FCEACF1629F081EBC81609F041C012
:1007F00003C00E94AF0B4C010E94F20B882311F042
:1008000081E0F4C1DF8008850D0D0D5F8E81080F3A
:100810000E94AF0B7C010E94AF0B1C010E94C6001E
:100820002C0148E050E0BC01CE0101960E94390144
:100830000E94AF0B5201A80EB91E8D2D81950E940A
:10084000C70B0E94D70BEE0CFF1C8E199F099093CB
:100850002401809323011127C801880F991F0E944A
:1008600026079CEAC91609F0CFC1C4010E94A20B59
:10087000CBC1E8E5CE1619F40E94AF0B03C0F7E533
:10088000CF1619F40E94AF0BAEC189E5C81611F45A
:1008900080E009C09CE5C91649F481E00E94BB0BC9
:1008A0000E94A20B81E00E94BB0B97C1EAEACE1620
:1008B00009F03FC0C50107960E94E200082FC5015C
:1008C00008960E94E2001127902E88249927882AF2
:1008D000992AC5010B960E94E200082FC5010C96CB
:1008E0000E94E200182F0E94AF0B3C018815990569
:1008F000A4F0802F9927982F8827212F3327822B28
:10090000932B861597054CF0C30188199909880F18
:10091000991F880F991F0F9602C083E090E0850110
:10092000080F191FC8010E94E200E82EC8010196B5
:100930003BC0FBEACF1609F042C0C50108960E94F1
:10094000E200D82E0E94520C4C0129E0E22EF12C3C
:100950008501055F1F4F16C0C8010E94E200292DC6
:10096000332727FD3A95821731F4C80101960E947A
:10097000E200881551F0DA9488E090E0E80EF91E64
:10098000085F1F4FDD2041F73BC114E0612E712C41
:100990006E0C7F1C8501060D171DC80102960E9472
:1009A000E200E82EC80103960E94E200FF24FE2C1C
:1009B000EE249927E82AF92AAE0CBF1C8EC092EBD0
:1009C000C91621F4C3010E94DC0B9BC0E3EBCE16D9
:1009D00039F40E94AF0BBC01C3010E94E70B15C1A3
:1009E000F2E1CF1651F4872D992787FD909520913C
:1009F0002201821B9109906CAAC08C2D865B8330EA
:100A000008F071C08FE087150CF469C045018418A7
:100A10009508C3010E94C6002C0148E050E0BC01CB
:100A20008E010F5F1F4FC8010E94390196EBC91656
:100A300001F580E00E94BB0B0E946D07FC018181E3
:100A4000282F33276B817C81872F99272817390717
:100A500081F0822F0E949501682E992787FD90953D
:100A60000E94C6002C0148E050E0BC01C8010E9471
:100A700039018E8181950E94C70B0E94D70B20916E
:100A80002301309124018C01021B130B159507954E
:100A90000E94D70B029690932401809323018F81AB
:100AA0002885820F912D911D2E81820F911D880F17
:100AB000991F06960E9402088F810E94C70BC401ED
:100AC0000E94A20BC1010E94A20BC8010E94A20BAE
:100AD0001301A980BA80A40CB51C80E08AC0C301B0
:100AE0000E94C50E92C0F4EBCF1671F40E94AF0BBA
:100AF0000E946D07F301EE0FFF1FE80FF91F8281BF
:100B000093810E94A20B81C085EBC81679F40E94E4
:100B1000AF0B4C010E94AF0B0E946D07F301EE0F6B
:100B2000FF1FE80FF91F938282826FC09BEBC916EB
:100B300021F4C3010E94E60168C0ECEBCE1659F423
:100B40000E94AF0B672D0E944B09992790680E9465
:100B5000A20B82E04EC0FEEBCF1629F40E94AF0B31
:100B60000E9433093AC084E5C81669F40E94520C09
:100B70008C010E94520C4C010E94AF0B402FB4011B
:100B80000E940E0930C09FE4C91669F40E94520CFD
:100B90008C010E94520C4C010E94AF0BA801B401C1
:100BA0000E94EB0820C0E3E3CE1661F40E94520CD1
:100BB0004C010E94AF0BB4010E94FF08992787FDEA
:100BC00090950BC0FEE2CF1659F40E94520C4C01D6
:100BD0000E94AF0BB4010E94DC080E94A20B03C06C
:100BE0008DE00E946B0981E004C083E09CEAC91695
:100BF00071F0A80EB11CE1EBCE1609F075CC07C060
:100C000051E0652E712CC6CECC2483E0F2CF8F81CB
:100C100081950E94C70B8F812885820F912D911D90
:100C20002E81820F911D880F991F0E9426072896FA
:100C30000FB6F894DEBF0FBECDBFDF91CF911F91ED
:100C40000F91FF90EF90DF90CF90BF90AF909F906B
:100C50008F907F906F905F904F903F902F9008956E
:100C600085E291E00895FB01DC01A40FB51FE40FBC
:100C7000F51F02C082918E93415050408FEF4F3F3D
:100C80005807C1F70895582F609118017091190104
:100C900014C0FB01EB5DFE4F80818517A1F021811F
:100CA00026954281342F379533273795832F822B12
:100CB000942F96950396680F791F83E0603078072C
:100CC00040F3E0E0F0E0CF0108951F9311E0812FA1
:100CD0000E944306892B19F4812F992704C01F5FB6
:100CE000B1F780E090E01F910895EF92FF920F938B
:100CF0001F93CF93DF93082F162FBA016D5F7F4F9D
:100D0000E0901801F0901901D701AB5DBE4FED01E5
:100D10003981232F26959A81892F87958827879552
:100D2000E82FE22BF92FF695E617F70718F480E085
:100D300090E02DC0CF01861B970B282F220F31701A
:100D4000322BFD013183292F220F881F8827881F0E
:100D5000822B82833695282F279522272795E22FED
:100D6000E32BF82FF695EE0DFF1DE85DFE4F008397
:100D7000842F880F1170812B8183952F990F842FD9
:100D8000881F8827881F892B828381E090E0DF916C
:100D9000CF911F910F91FF90EF9008951092250130
:100DA0008091260181708A6F8093260185E080936F
:100DB00027010895CF93DF93C82FDD27D068609176
:100DC00018017091190139C0DB01AB5DBE4FFD0107
:100DD000418140FF23C046953281232F279522274A
:100DE0002795822F842B932F9695AC015695479586
:100DF00020E030E00EC02F5F3F4FEE0FFF1FEA0FE5
:100E0000FB1F838194818C179D0719F481E090E08A
:100E10001AC0E22FFF27E417F50768F3FD012181CF
:100E200026954281342F379533273795832F822B90
:100E3000942F96950396680F791FF3E060307F0733
:100E400018F280E090E0DF91CF9108950F931F9307
:100E5000CF93DF938C01C0911801D0911901CB5D24
:100E6000DE4F8881882319F081E00E946B09809110
:100E70001801909119018017910718F485E00E94DC
:100E80006B09898186954A81942F97959927979523
:100E9000292F282B342F3695E0911801F091190154
:100EA000E01BF10BF0931901E0931801EB5DFE4F8D
:100EB0001082200F311F922F990F81818170892B11
:100EC0008183832F880F221F2227221F282B228312
:100ED000DF91CF911F910F910895CF93DF930E94DF
:100EE0004306EC01892B19F483E00E946B09CE01C3
:100EF0000396DF91CF910895CF93DF930E9443062D
:100F0000EC01892B19F483E00E946B092981269555
:100F10004A81342F379533273795832F822B942F8F
:100F20009695DF91CF910895EF92FF920F931F93C3
:100F3000CF93DF93009118011091190151C0E8017E
:100F4000CB5DDE4F298126954A81342F3795332793
:100F50003795832F822B942F969523E0E22EF12C48
:100F6000E80EF91E88818823C9F10E94030C8823AA
:100F7000A9F588810E94DA06882381F5609118011D
:100F800070911901A801461B570BCB018E0D9F1DB7
:100F90006B5D7E4F8B5D9E4F0E943306E091180182
:100FA000F0911901EB5DFE4F3181532F569542812F
:100FB000242F279522272795822F852B942F9695CE
:100FC0008E0D9F1D282F220F3170322B3183292F38
:100FD000220F881F8827881F822B82830E0D1F1DDA
:100FE00083E00030180708F4AACF0050134019F02E
:100FF00081E00E946B09DF91CF911F910F91FF90CB
:10100000EF900895CF92DF92EF92FF920F931F938C
:10101000CF93DF937C0100911801109119010B5DB2
:101020001E4FF8018081882319F081E00E946B092E
:10103000F801818186952281922F9795992797951E
:10104000C82EC92AE6016E012695D22EE601CE14DD
:10105000DF04B8F40E949407F8018181869522810B
:10106000922F979599279795C82EC92AE6016E0168
:101070002695D22EE601CE14DF0418F484E00E94F7
:101080006B09E0911801F0911901EE0DFF1DF0932D
:101090001901E0931801EB5DFE4F1082CE018E190D
:1010A0009F09382F330F21812170232B2183292F72
:1010B000220F881F8827881F822B8283DF91CF9180
:1010C0001F910F91FF90EF90DF90CF900895FF92C6
:1010D0000F931F93CF93DF93F82E8B01E0911801AC
:1010E000F0911901EB5DFE4F818186954281942F2D
:1010F000979599279795292F282B342F3695CB0133
:1011000003962817390710F00E9494078F2D0E942C
:101110004306EC0169816170A8018F2D0E9475065C
:10112000882319F482E00E946B098F2D0E944306E8
:10113000498146956A81562F579555275795252FF2
:10114000242B362F3695AE01DC012C0F3D1F06C037
:10115000FA018381FD0182834F5F5F4F1196421731
:101160005307B1F78FEF8883DF91CF911F910F91D4
:10117000FF9008950F931F93CF93DF93082FEB01F8
:101180000E946506182FAE01602F0E947506882305
:1011900061F40E949407AE01602F812F0E947506B2
:1011A000882319F482E00E946B09812F9927DF912F
:1011B000CF911F910F9108950F931F938B010E9460
:1011C0006D07000F111F080F191FF801818192810F
:1011D0001F910F910895EF92FF920F931F938B0130
:1011E0007A010E946D07000F111F080F191FF801E7
:1011F000F282E1821F910F91FF90EF9008950F937B
:101200001F938B010E946D07080F191FF801818140
:10121000992787FD90951F910F910895FF920F9345
:101220001F938B01F42E0E946D07080F191FF80100
:10123000F1821F910F91FF900895982F8450823072
:1012400060F0983051F0993059F09A3049F086E0CA
:101250000E946B0980E090E0089581E090E008959D
:1012600082E090E00895EF92FF921F93182F0E9462
:101270007C077C01812F0E946D07FC0180810E9408
:101280001D09682F7727C7010E94010FCB011F910D
:10129000FF90EF900895FF920F931F938C01F62E0D
:1012A000862F0E941D099927089FB001099F700D84
:1012B000189F700D11246F5F7F4F80E00E94BA0865
:1012C000182F0E946D07FC01F082812F99271F9132
:1012D0000F91FF9008951F93182F85E40E94DB0C57
:1012E00082E50E94DB0C82E50E94DB0C8AE30E940F
:1012F000DB0C812F8F5B0E94DB0C8AE00E94DB0CF1
:10130000FFCFAF92BF92DF92EF92FF920F931F93A6
:10131000CF93DF93CDB7DEB764970FB6F894DEBFF7
:101320000FBECDBF0E9464007C0185E10E94C60C07
:1013300010E00BC080E090E00000019621E18B3DC1
:101340009207D1F71F5F1A3F21F00E94BD0C88233E
:1013500089F30E94BD0C882309F456C0570111E09F
:1013600064E1CE0101960E94EC0C8431D1F540E09D
:10137000FE0134969E012C5E3F4F8191480FE2178B
:10138000F307D9F789818130A9F5DA80D11691F573
:101390002B8133278D2D809599272817390751F5F3
:1013A0008C89841739F5C5018E010C5F1F4F7C01B4
:1013B0000894E11CF11CF80161918F010E94670003
:1013C000CE0144960817190711F0C701F0CF80E14C
:1013D00090E0A80EB91E86E00E94C60C1D2D1F5F6E
:1013E0000CC0882321F486E00E94C60CB9CF898105
:1013F0008A3139F085E10E94C60C89818A3109F071
:10140000AFCF86E00E94C60C64960FB6F894DEBF9C
:101410000FBECDBFDF91CF911F910F91FF90EF9045
:10142000DF90BF90AF900895EF92FF920F931F93BC
:10143000CF93DF93FC019B0177FD06C000E117E22B
:1014400040E0EE24FF240CC08DE28193309521957D
:101450003F4FF4CFC901B8010E94150F9C018E01C6
:10146000C901B8010E94150F6115710511F041E025
:1014700005C0442319F40130110519F4862F805D4D
:101480008193C8016AE070E00E94150FEB01089497
:10149000E11CF11C85E0E816F104E1F61082DF9111
:1014A000CF911F910F91FF90EF900895BF92CF922F
:1014B000DF92EF92FF920F931F93CF93DF93CDB7FD
:1014C000DEB725970FB6F894DEBF0FBECDBF982FBD
:1014D000882329F40E94360CFC01108292C08130CE
:1014E000F9F480E00E94280C0E941A0D8C0181E022
:1014F0000E94BB0B0F5F1F4FB8010E94670880E07E
:101500000E94280C8C0181E00E94BB0B0E946D0799
:10151000B8010E943D0D0E94AF0B0E94AF0B71C03D
:101520008250833020F0963009F04BC02AC09230B0
:10153000E9F480E00E94280C0E941A0D8C0181E0E1
:101540000E94280C0E941A0D0F5F1F4F080F191FD1
:10155000B80180E00E94BA08B82E81E00E94280CF1
:101560006C0180E00E94280C7C0116C0933049F485
:1015700080E00E94440CBC01CE0101960E94140A36
:1015800005C080E00E94BB0B89831A82FE01319660
:1015900080818823E1F71BC08B2D0E946D078C0191
:1015A000B6010E943D0DB701C8010E94590D0E946D
:1015B000AF0B0E94AF0B8B2D992790680E94A20B56
:1015C00020C09530F1F087E00E946B091AC07E01BF
:1015D0000894E11CF11C8F010E191F0981E00E9483
:1015E000280C0E941A0D0F5F1F4F080F191FB8011A
:1015F00080E00E94BA08B82E81E00E94280C6C019D
:10160000CBCF25960FB6F894DEBF0FBECDBFDF91CE
:10161000CF911F910F91FF90EF90DF90CF90BF90EF
:1016200008951F93182F0E94AF0B113019F40E94D8
:10163000BD0C04C0123031F40E94CE0C99270E94D8
:10164000A20B03C087E00E946B091F910895FF92CF
:101650000F931F93CF93DF93EC01F62E97FF10C0EB
:1016600003C00E94DB0CE8018E010F5F1F4FCE010B
:101670000E94E2008823A9F706C021960E94DB0C95
:1016800088818823D1F7FF2019F08AE00E94DB0CC3
:10169000DF91CF911F910F91FF9008950F931F93AA
:1016A000CF93DF93CDB7DEB728970FB6F894DEBFA0
:1016B0000FBECDBF813021F40E94360C61E00DC019
:1016C000823071F40E94520CBC018E010F5F1F4FDB
:1016D000C8010E94140A61E0C8010E94270B25C0BE
:1016E000843021F40E94360C60E0F7CF853059F445
:1016F0000E94520CBC018E010F5F1F4FC8010E9457
:10170000140A60E0E9CF833031F40E94520C0E9449
:10171000DB0C8AE004C0863029F40E94520C0E943F
:10172000DB0C03C087E00E946B090E94AF0B289678
:101730000FB6F894DEBF0FBECDBFDF91CF911F91E2
:101740000F910895E0911C01F0911D013296F093E4
:101750001D01E0931C013297938382830895E091E9
:101760001C01F0911D01808191813297F0931D0140
:10177000E0931C0108959927880F991FE0911C019F
:10178000F0911D01E81BF90B808191810895992743
:1017900087FD9095880F991F20911C0130911D01A4
:1017A000280F391F30931D0120931C01089580914B
:1017B0001C0190911D010895880F991FE0911A0155
:1017C000F0911B01E80FF91F808191810895880F26
:1017D000991FE0911A01F0911B01E80FF91F718325
:1017E0006083089540E050E020911C0130911D017C
:1017F00080911E0190911F012817390711F441E0D3
:1018000050E0CA010895482F5527506880911A0169
:1018100090911B0120911C0130911D01281B390B57
:10182000359527952F5F3F4FFC0160E070E00AC0BF
:10183000819191918417950719F481E090E00895C2
:101840006F5F7F4F6217730799F780E090E008950C
:101850009927880F991FE0911C01F0911D01E81B49
:10186000F90B808191810E940C020895E0911C0186
:10187000F0911D01808191813297F0931D01E093D9
:101880001C010E940C0208959927880F991FE0916E
:101890001C01F0911D01E81BF90B808191810E94D0
:1018A000E3010895E0911C01F0911D018081918177
:1018B0003297F0931D01E0931C010E94E30108950B
:1018C0000F931F93082F0E94300690931B01809363
:1018D0001A01029790931D0180931C011127000F9C
:1018E000111FC80102960E94020880911C0190916C
:1018F0001D01800F911F90931D0180931C011F916A
:101900000F91089580911C0190911D0190931F01EA
:1019100080931E010895109225041092460410929F
:10192000C50083E38093C4001092C00088E98093CF
:10193000C10086E48093C200789408951F920F92AC
:101940000FB60F9211248F939F93EF93FF93809183
:1019500025049091C600E6E2F4E0E80FF11D9083C3
:101960008F5F8F7180932504FF91EF919F918F91ED
:101970000F900FBE0F901F90189580912504209115
:101980004604821B99278F7190700895982F80913B
:10199000C00085FFFCCF9093C60008959091460447
:1019A000E6E2F4E0E90FF11D80819F5F9F71909363
:1019B000460499270895982F8A3039F48091C00001
:1019C00085FFFCCF8DE08093C6008091C00085FF2D
:1019D000FCCF9093C6000895DF92EF92FF920F9391
:1019E0001F93CF93DF937C01062FEC0114C080E09E
:1019F00090E00000019629E589349207D1F7115053
:101A000010F40EC01AE00E94BD0C882381F30E94DE
:101A1000CE0C89930150CE018E19D82E002391F758
:101A20008D2D9927DF91CF911F910F91FF90EF900E
:101A3000DF9008950F931F93CF93DF93FC0197FDE1
:101A400003C000E010E010C000E010E003C00F5F32
:101A50001F4FFE01EF012196CF010E94E200882373
:101A6000B1F705C00F5F1F4F81918823D9F7C801D7
:101A7000DF91CF911F910F9108950F931F93CF93F3
:101A8000DF93EC01FB0177FF0BC08F010F5F1F4F4E
:101A9000CF010E94E2008993882331F0F801F5CF4D
:101AA000819189938823E1F7DF91CF911F910F9165
:101AB0000895FC0101C0319680818823E1F7CF01B0
:101AC0000E943D0D08951F920F920FB60F921124A0
:101AD0008F939F9310928500109284008091200133
:101AE00090912101019690932101809320019F9173
:101AF0008F910F900FBE0F901F90189582E08093EA
:101B0000810080E197E29093890080938800EFE65E
:101B1000F0E08081826080830895CF93DF938130ED
:101B200081F40E94AF0BEC010E94AF0B813011F5E4
:101B30008091B100887F9E012770822B8093B10035
:101B400019C08230A1F40E94AF0BEC010E94AF0BD0
:101B5000813081F483E08093B0008091B100877080
:101B600080688093B100239AC093B30003C087E0DC
:101B70000E946B09DF91CF9108950F931F938130DD
:101B800061F40E94AF0B8C010E94AF0BE82FFF277E
:101B9000EE0FFF1FE85FFE4F36C08230C9F40E948F
:101BA000AF0B8C010E94AF0BE82FFF27EE0FFF1F3A
:101BB000E85FFE4F0190F081E02D208181E090E010
:101BC00002C0880F991F0A95E2F7282B20832CC0AA
:101BD000833061F40E94AF0B8C010E94AF0BE82FA1
:101BE000FF27EE0FFF1FE050FF4FE4CF8430C9F412
:101BF0000E94AF0B8C010E94AF0BE82FFF27EE0F66
:101C0000FF1FE050FF4F0190F081E02D208181E027
:101C100090E002C0880F991F0A95E2F7809528236B
:101C2000D5CF87E00E946B091F910F9108951F93F4
:101C3000813039F40E94520C8770806880937A005A
:101C40004EC0823031F40E94520C807C80937C0024
:101C500046C0833009F510917C000E94520C107C24
:101C60008F70182B10937C0080917A008064809391
:101C70007A0080917A0084FFFCCF80917A008061A5
:101C800080937A0020917800809179009927982F8D
:101C90008827820F911D1DC08430F1F410917C00C3
:101CA0000E94520C8F70107C1062812B80937C00FC
:101CB00080917A00806480937A0080917A0084FF1A
:101CC000FCCF80917A00806180937A0080917900C6
:101CD00099270E94A20B03C087E00E946B091F9105
:101CE0000895813039F40E94520C909389008093BA
:101CF00088000895823039F480912001909121016B
:101D00000E94A20B0895833079F40E94520C9C012A
:101D100010922101109220018091200190912101C7
:101D2000821793075CF4F8CF843029F40E94520C98
:101D300080938100089587E00E946B0908958130A7
:101D400029F480E49FE10E94A20B089587E00E949D
:101D50006B090895892F9927449751F461E070E049
:101D600080E00E94BA08992790680E94A20B08950B
:101D700088E00E946B090895882319F40E94AF0B34
:101D8000089587E00E946B090895292F3327203199
:101D9000310519F40E94BC0E08952231310519F461
:101DA0000E944E0B08952331310519F40E94110B46
:101DB00008952431310519F40E94560A08952531F9
:101DC000310519F40E949F0E08952631310519F44A
:101DD0000E94BD0D08952731310519F40E94710E3E
:101DE00008952A31310519F40E94170E08952931FA
:101DF000310519F40E948D0D089588E00E946B0949
:101E00000895AA1BBB1B51E107C0AA1FBB1FA61741
:101E1000B70710F0A61BB70B881F991F5A95A9F793
:101E200080959095BC01CD01089597FB092E07265A
:101E30000AD077FD04D0E5DF06D000201AF47095B3
:101E400061957F4F0895F6F7909581959F4F08957E
:101E5000F999FECFB2BDA1BDF89A119600B40895CC
:101E6000F7DF01921A94E1F70895F999FECFB2BD18
:101E7000A1BD00BC11960FB6F894FA9AF99A0FBE5C
:041E80000895FFCFF3
:101E84000000250028002B000000240027002A0061
:081E94000000230026002900D4
:00000001FF
