:100000000C9402110C9421110C9421110C942111C7
:100010000C9421110C9421110C9421110C94211198
:100020000C9421110C9421110C9421110C94211188
:100030000C9421110C9421110C94E0300C9421119A
:100040000C9421110C9421110C94C0230C942111B7
:100050000C9421110C9421110C9421110C94211158
:100060000C9421110C9421110C9421110C94211148
:100070000C9421110C9421110C9421110C94211138
:100080000C9421110C9424300C9421117B2D7E2D85
:100090007E2D7E2D7E2D7E2D7E2D7E2D7E2D7E2D08
:1000A0007E2D7E2D782D7E2D7E2D7E2D7E2D7E2DFE
:1000B0007E2D392D7E2D3F2D482D7E2D562D7E2DCA
:1000C0007E2D7E2D7E2D7E2D592D7E2D7E2D7E2DFD
:1000D000322D7E2D452D652D5C2D7E2D682D7E2D9E
:1000E0007E2D7E2D7E2D7E2D7E2D7E2D7E2D7E2DB8
:1000F0007E2D352D7E2D3C2D4B2D4E2D542D7E2DC0
:100100007E2D7E2D7E2D7E2D512D422D7E2D7E2D00
:100110006E2D7E2D7E2D5F2D622D7E2D6B2D7E2DE5
:10012000722D752D07BAA57A2C3BDA90C5BC8BFCD5
:10013000663CFD10F8BD4D83923DB63A9EBE5BBF56
:10014000CA3FC90FDA00083B3BD74ABC846E023D68
:100150002FC1FEBD9A31743DDA3D83BE117FC73E8B
:100160004CBBE5BEAAAA6C3F800000000639652C96
:10017000033AA23B593C1EBAE03D633BF43E75FF97
:100180004E3F3172113F800000000829573F9F2DDC
:1001900049CBA5310F76C73493F27E37D00D013AA3
:1001A000B60B613D2AAAAB3F0000003F8000000073
:1001B0000540B504F441A0000141E2463241A000EF
:1001C0000040E246303F8000000541778C4F40C33D
:1001D0002CE24117BF24C1A48DD9C0E1D8A1C05BD6
:1001E000678203398527603CC8DE923EEDB0CA3F86
:1001F00080000003373700F33B4B9FB83E060C3EB0
:100200003F800000000000BE02020100110011004A
:100210003B0000100006001F0025004564676520B4
:10022000616E64204C696E6573656E736F722054E5
:100230006573740020252B3464002025346400107D
:10024000000000000101010D000100000101021A7F
:10025000B71000B1B81E011014100AB81E0204B87D
:100260001E041200B81E0303B81E04B82501B820EE
:1002700001031028B81E02B820031201B82C01B8DF
:100280001E03B825031201B82C01B81E03B82502BD
:100290001201B82C01B81E03B820021201B82C01BB
:1002A000B81E03031032B81E02B820051202B82C83
:1002B00001B81E03B825051202B82C01B81E03B8F8
:1002C00025041202B82C01B81E03B820041202B88B
:1002D0002C01B81E031064B81D03A7FF9100000095
:1002E000000000000000000000000000000000000E
:1002F00000000000000000000000000000000000FE
:1003000000000000000000000000000000000000ED
:1003100000000000000000000000000000000000DD
:102200000000000011241FBECFEFD0E1DEBFCDBF24
:1022100013E0A0E0B1E0E4E4FAE700E00BBF02C0A5
:1022200007900D92A23DB107D9F718E0A2EDB3E0F7
:1022300001C01D92A036B107E1F70E949B110C94DA
:10224000213D0C940000AF92BF92CF92DF92EF92AB
:10225000FF920F931F93CF93DF93EC01A880B98077
:10226000CA80DB80A114B104C104D10449F482E422
:10227000E82E8EECF82E8CE0082F8FE1182F2EC060
:10228000C601B5012DE133EF41E050E00E94FA3C78
:1022900027EA31E440E050E00E94A53C7B018C013C
:1022A000C601B5012DE133EF41E050E00E94FA3C58
:1022B000CA01B90124E13BE040E050E00E94A53CA6
:1022C000E61AF70A080B190B17FF08C08FEF9FEFEC
:1022D000AFEFBFE7E80EF91E0A1F1B1FE882F98265
:1022E0000A831B83C7019F77DF91CF911F910F91C5
:1022F000FF90EF90DF90CF90BF90AF9008950E9435
:10230000231108958DEC93E00E9423110895AA27CC
:10231000BB278093CD039093CE03A093CF03B093BC
:10232000D0030895FB01DC0102C005900D924150DD
:102330005040D8F70895CFEFD0E1DEBFCDBF0E9467
:10234000A5320E94AD120E94CF130E948212FFCFCD
:1023500084E092E00895089508950895CF93DF935F
:10236000EA01DC01AC5FBD4FFB01219724F0019035
:102370000E94153DFACFDF91CF910895CF93DF935F
:10238000CDB7DEB724970FB6F894DEBF0FBECDBF32
:102390009F7744E050E0BC01CE0101960E9492116B
:1023A00069817A818B819C8124960FB6F894DEBF77
:1023B0000FBECDBFDF91CF910895CF93DF93CDB7FF
:1023C000DEB722970FB6F894DEBF0FBECDBF9F7762
:1023D00042E050E0BC01CE0101960E949211898139
:1023E0009A8122960FB6F894DEBF0FBECDBFDF9163
:1023F000CF910895EF92FF920F931F938C0194E079
:10240000E92E92E0F92EC7010A960E94DD11E80E2E
:10241000F91E000F111FC701800F911F0E94DD11CF
:102420008E0D9F1D1F910F91FF90EF900895CF93F8
:10243000DF939091DE03C82FDD27891780F48CE0AD
:1024400092E00E94DD11CC0FDD1FCC0FDD1FC80F05
:10245000D91FCE018C5F9D4F0E94BE1108C0C91BC1
:10246000D109BE01882777FD8095982F906CDF9168
:10247000CF910895EF92FF920F931F938C0144E048
:10248000E42E42E0F42EC7010C960E94DD1133E0E9
:10249000000F111F3A95E1F7080F191FC8018E0DA3
:1024A0009F1D1F910F91FF90EF900895CF93DF93A1
:1024B000CDB7DEB721970FB6F894DEBF0FBECDBF04
:1024C0009F7741E050E0BC01CE0101960E9492113D
:1024D0008981992721960FB6F894DEBF0FBECDBF34
:1024E000DF91CF91089582E192E00E9456129927E0
:1024F00008959927880F991F8C5E9D4F0E94561250
:1025000099270895EF92FF921F93CF93DF93EE24C4
:10251000FF2410C0C12FDD27CE010E943A1204967D
:102520000E94561280FF03C0CE010E94DC13089463
:10253000E11CF11C1E2D89E092E00E945612E81663
:1025400048F38AE092E00E94DD110E94DC13DF91E3
:10255000CF911F91FF90EF9008950F931F9384E008
:1025600092E00E94BE119B01AC015E6B6F737070B4
:1025700080709E7B621773078407950711F08AE0CD
:1025800007C088E092E00E945612823031F08BE062
:102590000E94701F80E090E013C08EE092E00E94E5
:1025A000DD118C018CE092E00E94DD11081B190BFB
:1025B00016950795169507950093DE0381E090E048
:1025C0001F910F9108957F770E9492110895CF92E5
:1025D000DF92EF92FF920F931F93CF93DF93CDB7CC
:1025E000DEB728970FB6F894DEBF0FBECDBFC82E5A
:1025F000D62EEE24FF2420C0012F1127C8010E94EF
:102600003A1248E050E0BC01CE0101960E94E3126C
:102610004B815C81252F33278C2D9927281739076B
:1026200041F450708D2D99274817590711F4C801AE
:102630000CC00894E11CF11C1E2D89E092E00E9460
:102640005612E816C8F28FEF90E028960FB6F8946D
:10265000DEBF0FBECDBFDF91CF911F910F91FF90D5
:10266000EF90DF90CF9008950F931F93182F062FB0
:10267000602F812F0E94E7128F3F51F4812F9927FD
:10268000880F991F8D5E9D4F0E945612182FF0CF14
:1026900099271F910F91089596FD90680895292F0D
:1026A000221F2227221F2295220F220F207C392F42
:1026B0003F773F3721F487FF06C02F6306C03323DF
:1026C00011F487FF02C03052232B922F0895292F37
:1026D00096FF02C030E801C030E02F732F3321F4A1
:1026E00087FF06C03F6706C0222311F487FF02C0A0
:1026F000205E322B932F08951F93CF93DF93EC012D
:10270000892F99278031910500F50E947912992728
:10271000880F991F880F991F0496BC0181E00E94C1
:10272000531E182F682F77278827992790680E94B3
:102730005C22812F0E94B71CFC01CE01AA27BB2777
:1027400080839183A283B38303C0CE010E94BB32F6
:10275000DF91CF911F910895EF92FF920F931F93F6
:102760007B018C0197FD03C08CE00E94701FD80193
:10277000C70180709070A070B07C80509040A040E5
:10278000B04821F48E2D0E94B71C04C0C7010E94DE
:10279000FA1190681F910F91FF90EF9008950E9499
:1027A000001C0E9473120E94792360E070E080E0B8
:1027B00090E00E945C2208952F923F924F925F9288
:1027C0006F927F928F929F92AF92BF92CF92DF9241
:1027D000EF92FF920F931F93CF93DF93CDB7DEB7A6
:1027E00067970FB6F894DEBF0FBECDBF1A8A1B8A5B
:1027F0001C8A1D8A9F8B8E8B0E943A129A8789872A
:1028000048E050E0BC01CE0101960E94E3126980CD
:102810007A8089849A84860C971C988A8F868F8107
:102820002885820F912D911D2E81820F911D880F79
:10283000991F880F991F0E949B1D0E94A022049639
:102840009093E0038093DF038F810E948E220E9489
:102850009D231B861C861D861E868F8598890E9457
:102860005612898B8F85988901960E9456128B8B00
:102870008F85988902960E9456128A8B9988992092
:1028800009F4CDC62989203141F43B89632F77278C
:1028900067FD7095872F972F6CC64989413149F4A0
:1028A000AA89BB89BD01882777FD8095982F9F77DE
:1028B0000EC589898250873050F4B9896B2F7727EC
:1028C00063507040882777FD8095982F2FC2E98943
:1028D000E63309F405C689898B538430B8F4B98985
:1028E0000B2F1127000F111F000F111F8091DF0305
:1028F0009091E003080F191F0C5E10400E946B229C
:10290000F801608371838283938326C2F989F5314C
:1029100009F41CC689898A518430A0F47988E72D8E
:10292000FF27EE0FFF1FEE0FFF1F8091DF03909137
:10293000E003E80FF91FE856F04060817181828161
:102940009381F4C1898989598C3008F097C0863009
:1029500038F429892A5F298BEE24FF24870104C0DB
:102960000E9469237B018C010E9469236B877C870D
:102970008D879E873989313A79F1323A30F43F397F
:1029800071F0303A09F067C019C04989433A09F437
:102990003FC0433A78F1443A09F05DC047C080E057
:1029A00090E0A0E0B0E06B847C848D849E846E1403
:1029B0007F048006910609F04AC045C080E090E09F
:1029C000A0E0B0E02B853C854D855E852E153F054A
:1029D00040075107E1F137C080E090E0A0E0B0E0AF
:1029E0006B847C848D849E846E147F0480069106A3
:1029F00074F529C080E090E0A0E0B0E02B853C8534
:102A00004D855E852E153F054007510704F11BC01B
:102A100080E090E0A0E0B0E06B847C848D849E84B4
:102A2000E614F7040805190594F40DC080E090E061
:102A3000A0E0B0E02B853C854D855E85E216F3066F
:102A40000407150724F081E090E0A0E0B0E08B8758
:102A50009C87AD87BE878B859C85AD85BE8500979D
:102A6000A105B10509F4DDC5AF85B889EA89FB89FF
:102A7000AE0FBF1FB88BAF8780E0D4C5F989F73A96
:102A800061F46F8478888A889B88680C791C93012C
:102A900023503040388B2F87D9C58989805685329D
:102AA00008F047C13989343781F40E9469236624CC
:102AB00077244301661A770A880A990A6B867C860E
:102AC0008D869E86C401B301A3C52989243831F5BA
:102AD0003B89E32FFF27E7FDF095EE0FFF1FEE0F79
:102AE000FF1F8091DF039091E003E80FF91F208121
:102AF00031814281538156FD50686A89862F99271A
:102B000087FD9095A92FB92F280F391F4A1F5B1FEA
:102B10005F77208331834283538398C5898983708B
:102B2000823009F055C08989873708F051C086374F
:102B300021F40E941B23905848C00E941B235B0174
:102B40006C010E941B237B018C0199899A36D9F074
:102B50009B3628F4923649F09636A9F50DC0A9891E
:102B6000AE36C1F0A03779F52BC0A6019501C8019A
:102B7000B7010E94613821C0A6019501C801B701C3
:102B80000E9460381AC0A6019501C801B7010E94D1
:102B9000713B13C020E030E040E050E0C601B501D9
:102BA0000E943D3A882319F48EE00E94701FA6010E
:102BB0009501C801B7010E9460397B018C0103C0F7
:102BC0008DE00E94701FC801B7010E944F1321C5FC
:102BD0000E9469236B877C878D879E870E9469236B
:102BE0007B018C01B989B83709F461C0B93788F421
:102BF000B836B1F1B93630F4B03601F1B43609F077
:102C00008BC025C0E989EC3691F1E03709F084C02A
:102C100045C0F989FE3709F45CC0FF3738F4FA374C
:102C200009F44EC0FC3709F077C06EC029892038FE
:102C300009F458C0223809F06FC05DC08B859C85AF
:102C4000AD85BE85E80EF91E0A1F1B1F65C06B848B
:102C50007C848D849E84E618F708080919095CC0F5
:102C60002B853C854D855E850E94A53C1DC02B852E
:102C70003C854D855E85211531054105510519F4C9
:102C80008EE00E94701FC801B7012B853C854D85E1
:102C90005E850E94FA3C79018A013EC02B853C8505
:102CA0004D855E850E94FA3C7B018C0135C00B840A
:102CB00004C0EE0CFF1C001F111F0A94D2F72CC099
:102CC0000B8404C015950795F794E7940A94D2F7FE
:102CD00023C08B859C85AD85BE85E822F9220A2319
:102CE0001B231AC06B847C848D849E84E628F7287D
:102CF0000829192911C02B853C854D855E85E22662
:102D0000F3260427152708C00B8404C016950795E1
:102D1000F794E7940A94D2F78FEF9FEFAFEFBFE7F6
:102D2000E822F9220A231B23C801B7010E945C2272
:102D300013C099899C3A31F09E3A21F0913B09F0F9
:102D400056C006C00E946B226B877C878D879E874A
:102D50000E94C322882311F081E064C4BF800885EB
:102D60000B0D0D5F8E81080F0E946B226B017C01A1
:102D70000E946B22DC01CB019F8B8E8B0E943A124A
:102D80009A87898748E050E0BC01CE0101960E94F5
:102D9000E3120E946B22A985BA85A60FB71FB88BD4
:102DA000AF878B2D81950E948E220E94A022CC0C91
:102DB000DD1CCC0CDD1C8C199D099093E0038093E5
:102DC000DF031127C801880F991F880F991F0E94E0
:102DD000701CB989BC3A21F0E989EE3A09F035C492
:102DE0006B857C858D859E850E945C222EC4F98929
:102DF000F83519F40E946B2203C02989273519F48C
:102E00000E946B220CC43989393511F480E009C065
:102E100049894C3549F481E00E9479220E945C2264
:102E200081E00E947922F5C359895A3569F40E94DC
:102E30006B225B016C010E946B227B018C01C6013D
:102E4000B5010E945C2275C069896B35D9F40E9476
:102E50006B227B018C010E946B225B016C010E9442
:102E60006B223B014C01C801B7010E945C22C601E4
:102E7000B5010E945C22C401B3010E945C22C8011A
:102E8000B701C7C389898D35F9F40E946B227B0194
:102E90008C010E946B223B014C010E946B225B0162
:102EA0006C01C801B7010E945C22C401B3010E94F9
:102EB0005C22C601B5010E945C22C801B7010E94D4
:102EC0005C22C401B301A5C399899E3539F50E94DE
:102ED0006B223B014C010E946B221B012C010E94C2
:102EE0006B227B018C010E946B225B016C01C4018F
:102EF000B3010E945C22C201B1010E945C22C801A0
:102F0000B7010E945C22C601B5010E945C22C40187
:102F1000B3010E945C22C201B1017BC3A989AF3514
:102F200079F40E946B227B018C010E946B225B0171
:102F30006C01C801B7010E945C22C601B50169C3DA
:102F4000B989BA3A09F074C08F85988907960E94AA
:102F50005612082F8F85988908960E9456121127BD
:102F6000102F00279927082B192B3801882477FC6C
:102F70008094982C6B867C868D869E868F8598891A
:102F80000B960E945612082F8F8598890C960E94E6
:102F90005612182F0E946B226A8B7B8B8C8B9D8B19
:102FA000661577058805990534F1802F9927982FA4
:102FB0008827212F3327822B932BAA2797FDA095B3
:102FC000BA2F2A893B894C895D8982179307A40708
:102FD000B5078CF0DA01C90186199709A809B90962
:102FE00052E0880F991FAA1FBB1F5A95D1F70F9661
:102FF000A11DB11D04C083E090E0A0E0B0E00F850A
:103000001889080F191FC8010E945612E82EC8011E
:1030100001960E945612FF24FE2CEE249927E82ADE
:10302000F92A4F8558894E0D5F1D588B4F8733C144
:1030300059895B3A09F073C08F85988908960E9478
:103040005612B82E0E9469236B877C878D879E87D6
:1030500039E0C32ED12CE12CF12C0F851889075FA4
:103060001F4F37C0C8010E9456126B847C848D8428
:103070009E84292D552727FD5095352F452F8217E2
:10308000E9F4C80101960E9456129401552737FDB4
:103090005095452F821791F4C80102960E9456124E
:1030A000552797FC5A95492D382D272D821731F435
:1030B000C80103960E945612861571F0BA9428E052
:1030C00030E040E050E0C20ED31EE41EF51E085F63
:1030D0001F4FBB2039F6B4C2D701C6010496A11D0B
:1030E000B11D8A8B9B8BAC8BBD8B0F851889AA89F0
:1030F000BB890A0F1B1FC80102960E945612E82EB8
:10310000C80103960E945612FF24FE2CEE24992734
:10311000E82AF92AEF85F889EE0DFF1DBAC0F98972
:10312000F23B29F48A899B890E94A522D0C0298973
:10313000233B49F40E946B22AB01BC018A899B8925
:103140000E94B42283C23989323121F48B890E94D2
:1031500017120FC28989865B833008F0A3C04B89A0
:1031600040310CF09AC08F859889A985BA858A1B51
:103170009B0B3C01882477FC8094982C6B867C8682
:103180008D869E868A899B890E943A129A878987B2
:1031900048E050E0BC018E010F5F1F4FC8010E9444
:1031A000E3122989263B61F580E00E947922DC0147
:1031B000CB010E94B71CFC0180819181A281B38167
:1031C000292F3A2F4B2F55276B817C81872F9927E9
:1031D000AA27BB27281739074A075B0789F0822FE0
:1031E0000E9434138A8B992787FD90950E943A128A
:1031F0009A87898748E050E0BC01C8010E94E31229
:103200008E8181950E948E220E94A0222091DF0350
:103210003091E0037C01E21AF30AF594E794F59407
:10322000E7940027F7FC0095102F0E94A022049637
:103230009093E0038093DF038F812885820F912D87
:10324000911D2E81820F911D880F991F880F991F44
:103250000C960E949B1D8F810E948E226B857C851F
:103260008D859E850E945C224E895F89BA018827E0
:1032700099270E945C22C801B7010E945C228A89BA
:103280009B899F8B8E8BA981BA81E985FA85EA0F8C
:10329000FB1FF88BEF8780E0DAC18A899B890E9447
:1032A000DA32D4C1F989F43BA9F40E946B22DC0123
:1032B000CB010E94B71CEA89FB89EE0FFF1FEE0FBE
:1032C000FF1FE80FF91F64817581868197810E9435
:1032D0005C22BCC12989253BE9F40E946B226B87E3
:1032E0007C878D879E870E946B22DC01CB010E9428
:1032F000B71CEA89FB89EE0FFF1FEE0FFF1FE80FD7
:10330000F91F8B859C85AD85BE8584839583A683B7
:10331000B7839CC199899B3B29F48A899B890E9428
:103320007C1394C1A989AC3B61F40E946B224B8948
:103330000E944B1F9927AA27BB27B068BC01CD016B
:1033400018C1B989BE3B39F40E946B22DC01CB0164
:103350000E94321F5EC1E989E435B1F40E946923FD
:103360007B018C010E9469236B877C878D879E87F8
:103370000E946B22DC01CB012E2D4B855C856D8577
:103380007E850E94051F4BC1F989FF34B9F40E9464
:1033900069237B018C010E9469236B877C878D8761
:1033A0009E870E946B22DC01CB01980187014B852F
:1033B0005C856D857E850E94CB1E31C129892333B2
:1033C000C1F40E9469236B877C878D879E870E944A
:1033D0006B22DC01CB014B855C856D857E850E946F
:1033E000F11E992787FD9095A92FB92FBC01CD011A
:1033F00010C139893E3289F40E9469236B877C872A
:103400008D879E870E946B22DC01CB014B855C85FA
:103410006D857E850E94B31EFCC04989403399F4B6
:103420000E9469236B877C878D879E870E946B2211
:10343000DC01CB014B855C856D857E850E94751E08
:103440000E94EA39E6C059895135B9F40E941B231C
:103450007B018C010E9469236B877C878D879E8707
:103460000E946B22DC01CB01980187014B855C85B2
:103470006D857E850E948D1ED2C069896B3029F4CE
:1034800060E070E080E090E0A0CB89898C3029F486
:1034900060E070E080E89FE398CB99899D3029F443
:1034A00060E070E080E090E490CBA989A63849F410
:1034B0000E9469236B877C878D879E870E94073ACD
:1034C00084CBB989BB3849F40E941B230E94EA3996
:1034D0006B877C878D879E879BC0E989E833C1F421
:1034E000FB890F2F112707FD1095000F111F000FEB
:1034F000111F8091DF039091E003080F191F0E94B4
:103500006B22D8016D937D938D939C93139733C059
:10351000898983548430B8F4B9890B2F1127000F9F
:10352000111F000F111F8091DF039091E003080F1E
:10353000191F0C5011400E946B22F80160837183A7
:10354000828393836CC0F989F731B9F46B88E62DD7
:10355000FF27E7FDF095EE0FFF1FEE0FFF1F809195
:10356000DF039091E003E80FF91F60817181828190
:1035700093810E945C2282E06AC0898982528430F1
:10358000A0F47988E72DFF27EE0FFF1FEE0FFF1F36
:103590008091DF039091E003E80FF91FE858F040B5
:1035A000608171818281938134C08989855982309B
:1035B00098F50E941B234B015C010E941B236B01A9
:1035C0007C01A50194010E943D3A88234CF42FEF21
:1035D0003FEF4FEF5FEF2B873C874D875E8714C02F
:1035E000442455243201A5019401C701B6010E946B
:1035F000403A18162CF451E0452E512C612C712CB8
:103600004B865C866D867E866B857C858D859E85EA
:103610009F770E945C2203C08DE00E94701F81E0B2
:1036200016C083E039893C3AC9F04F855889480F64
:10363000511D588B4F875989513B09F00EC90EC057
:1036400081E090E0A0E0B0E04CCD198A83E0AF8546
:10365000B889A80FB11DB88BAF87EDCF8F81819549
:103660000E948E228F812885820F912D911D2E819F
:10367000820F911D880F991F880F991F0E94701C3F
:1036800067960FB6F894DEBF0FBECDBFDF91CF9126
:103690001F910F91FF90EF90DF90CF90BF90AF9070
:1036A0009F908F907F906F905F904F903F902F9062
:1036B000089581EE93E00895FB01DC01A40FB51F8E
:1036C000E40FF51F02C082918E93415050408FEF5E
:1036D0004F3F5807C1F70895582F6091D20370915A
:1036E000D30314C0FB01EF51FC4F80818517A1F07B
:1036F000218126954281342F379533273795832FA3
:10370000822B942F96950396680F791F84E0603082
:10371000780740F3E0E0F0E0CF0108951F9311E057
:10372000812F0E946C1B892B19F4812F992704C0CB
:103730001F5FB1F780E090E01F910895EF92FF9234
:103740000F931F93CF93DF93082F162FBA016D5F4E
:103750007F4FE090D203F090D303D701AF51BC4F1D
:10376000ED013981232F26959A81892F8795882706
:103770008795E82FE22BF92FF695E617F70718F44F
:1037800080E090E036C0CF01861B970B282F220FD8
:103790003170322BFD013183292F220F881F88279A
:1037A000881F822B82833695282F279522272795DD
:1037B000E22FE32BF82FF695EE0DFF1DEC51FC4F99
:1037C0000083842F880F1170812B8183952F990F8F
:1037D000842F881F8827881F892B8283339601C0F6
:1037E0001192415050408FEF4F3F5807C9F781E089
:1037F00090E0DF91CF911F910F91FF90EF9008958E
:103800001092E1038091E20381708A6F8093E2035A
:1038100087E08093E3030895EF92FF920F931F9345
:10382000CF93DF93E82EFF240027112780E090E05C
:10383000A0E0B0E8E82AF92A0A2B1B2B6091D203FA
:103840007091D3033FC0EB01CF51DC4F498140FF62
:103850002BC046953A81232F279522272795822F23
:10386000842B932F9695AC01569547955695479581
:1038700020E030E014C02F5F3F4FEE0FFF1FEE0F30
:10388000FF1FEC0FFD1F83819481A581B6818E15EA
:103890009F05A007B10719F481E090E01AC0E22F5C
:1038A000FF27E417F50738F3298126954A81342F3D
:1038B000379533273795832F822B942F9695039630
:1038C000680F791F94E06030790708F4BCCF80E07E
:1038D00090E0DF91CF911F910F91FF90EF900895AD
:1038E0000F931F93CF93DF938C01C091D203D0919C
:1038F000D303CF51DC4F8881882319F081E00E94E7
:10390000701F8091D2039091D3038017910718F410
:1039100085E00E94701F898186954A81942F979532
:1039200099279795292F282B342F3695E091D2038C
:10393000F091D303E01BF10BF093D303E093D20398
:10394000EF51FC4F1082200F311F922F990F818170
:103950008170892B8183832F880F221F2227221FAA
:10396000282B2283DF91CF911F910F910895CF9340
:10397000DF930E946C1BEC01892B19F483E00E94F9
:10398000701FCE010396DF91CF910895CF93DF93FF
:103990000E946C1BEC01892B19F483E00E94701FBC
:1039A000298126954A81342F379533273795832FE0
:1039B000822B942F9695DF91CF9108950F931F93AB
:1039C000CF93DF930091D2031091D3033CC0E80161
:1039D000CF51DC4F8881882389F0298126954A813F
:1039E000342F379533273795832F822B942F969535
:1039F0008150944018F080E00E94701F8981869564
:103A00004A81942F979599279795292F282B342F02
:103A100036952D5F3F4F80E094E0801B910B82171D
:103A2000930718F481E00E94701F298126954A812E
:103A3000342F379533273795832F822B942F9695E4
:103A40000396080F191F84E00030180708F4BFCF51
:103A5000DF91CF911F910F910895EF92FF920F93F5
:103A60001F93CF93DF930091D2031091D30351C0E2
:103A7000E801CF51DC4F298126954A81342F3795B3
:103A800033273795832F822B942F969523E0E22EB0
:103A9000F12CE80EF91E88818823C9F10E94D422F6
:103AA0008823A9F588810E940C1C882381F56091E8
:103AB000D2037091D303A801461B570BCB018E0D87
:103AC0009F1D6F517C4F8F519C4F0E945C1BE0915A
:103AD000D203F091D303EF51FC4F3181532F569510
:103AE0004281242F279522272795822F852B942FDB
:103AF00096958E0D9F1D282F220F3170322B31830A
:103B0000292F220F881F8827881F822B82830E0D62
:103B10001F1D84E00030180708F4AACF005014409D
:103B200019F081E00E94701FDF91CF911F910F91DA
:103B3000FF90EF900895CF92DF92EF92FF920F9354
:103B40001F93CF93DF937C010091D2031091D30395
:103B50000F511C4FF8018081882319F081E00E94E9
:103B6000701FF801818186952281922F9795992760
:103B70009795C82EC92AE6016E012695D22EE60138
:103B8000CE14DF04B8F40E942D1DF80181818695C2
:103B90002281922F979599279795C82EC92AE601D9
:103BA0006E012695D22EE601CE14DF0418F484E0CF
:103BB0000E94701FE091D203F091D303EE0DFF1D20
:103BC000F093D303E093D203EF51FC4F1082CE0168
:103BD0008E199F09382F330F21812170232B2183C8
:103BE000292F220F881F8827881F822B8283DF912D
:103BF000CF911F910F91FF90EF90DF90CF9008959C
:103C0000FF920F931F93CF93DF93F82E8B01E091D8
:103C1000D203F091D303EF51FC4F8181869542810D
:103C2000942F979599279795292F282B342F3695E0
:103C3000CB0103962817390710F00E942D1D8F2DF8
:103C40000E946C1BEC0169816170A8018F2D0E949C
:103C50009E1B882319F482E00E94701F8F2D0E9402
:103C60006C1B498146956A81562F57955527579564
:103C7000252F242B362F3695AE01DC012C0F3D1F4E
:103C800006C0FA018381FD0182834F5F5F4F119669
:103C900042175307B1F78FEF8883DF91CF911F91C0
:103CA0000F91FF9008950F931F93CF93DF93082FE9
:103CB000EB010E948E1B182FAE01602F0E949E1BED
:103CC000882361F40E942D1DAE01602F812F0E9478
:103CD0009E1B882319F482E00E94701F812F992770
:103CE000DF91CF911F910F910895EF92FF920F9363
:103CF0001F937A018B010E94B71CEE0CFF1CEE0C87
:103D0000FF1CE80EF91EF7016181728183819481A5
:103D10001F910F91FF90EF9008958F929F92AF9215
:103D2000BF92CF92DF92EF92FF920F931F936A019F
:103D30007B01480159010E94B71CCC0CDD1CCC0C46
:103D4000DD1CC80ED91EF60181829282A382B48244
:103D50001F910F91FF90EF90DF90CF90BF90AF90A9
:103D60009F908F900895EF92FF920F931F937A0187
:103D70008B010E94B71CEE0CFF1CEE0CFF1CE80E22
:103D8000F91EF70161817281838194811F910F91E6
:103D9000FF90EF9008958F929F92AF92BF92CF9233
:103DA000DF92EF92FF920F931F936A017B0148010C
:103DB00059010E94B71CCC0CDD1CCC0CDD1CC80EBC
:103DC000D91EF60181829282A382B4821F910F9143
:103DD000FF90EF90DF90CF90BF90AF909F908F902B
:103DE0000895EF92FF920F931F937A018B010E9427
:103DF000B71CFC01EE0DFF1D8181992787FD909571
:103E00001F910F91FF90EF900895DF92EF92FF9234
:103E10000F931F937A018B01D22E0E94B71CFC01D5
:103E2000EE0DFF1DD1821F910F91FF90EF90DF905B
:103E30000895982F8450823090F0983081F0993016
:103E400019F482E090E008959A3019F484E090E04B
:103E5000089586E00E94701F80E090E0089581E060
:103E600090E00895EF92FF921F93182F0E94C61CB6
:103E70007C01812F0E94B71CFC0180810E94191FC8
:103E8000682F7727C7010E94C43C882799271F9174
:103E9000FF90EF900895DF92EF92FF920F931F93A0
:103EA0007B018C01D42E842F0E94191F282F3327C9
:103EB00044275527C801B7010E94A53C6F5F7F4F7B
:103EC00080E00E94531E182F0E94B71CFC01D08274
:103ED000812F99271F910F91FF90EF90DF90089508
:103EE0001F93182F85E40E94F82382E50E94F8238F
:103EF00082E50E94F8238AE30E94F823812F8F5BDA
:103F00000E94F8238AE00E94F823FFCFAF92BF926D
:103F1000DF92EF92FF920F931F93CF93DF93CDB772
:103F2000DEB764970FB6F894DEBF0FBECDBF0E9418
:103F3000A8117C0185E10E94E72310E00BC080E01E
:103F400090E00000019623E2863B9207D1F71F5FC5
:103F50001A3F21F00E94DE23882389F30E94DE238A
:103F6000882309F45AC057010E94AC1111E064E1A2
:103F7000CE0101960E9403248431D1F540E0FE0178
:103F800034969E012C5E3F4F8191480FE217F30754
:103F9000D9F789818130A9F5DA80D11691F52B8185
:103FA00033278D2D809599272817390751F58C894E
:103FB000841739F5C5018E010C5F1F4F7C010894F1
:103FC000E11CF11CF80161918F010E94AB11CE013F
:103FD00044960817190711F0C701F0CF80E190E06F
:103FE000A80EB91E86E00E94E7231D2D1F5F0CC09E
:103FF000882321F486E00E94E723B9CF89818A31A2
:1040000039F085E10E94E72389818A3109F0AFCF39
:104010000E94AD1186E00E94E72364960FB6F894E3
:10402000DEBF0FBECDBFDF91CF911F910F91FF90EB
:10403000EF90DF90BF90AF9008953F924F925F92C4
:104040006F927F928F929F92AF92BF92CF92DF92A8
:10405000EF92FF920F931F93CF93DF93EC017A01BE
:104060008B0177FD0BC0612C9AEC792E9AE9892E91
:104070009BE3992E33244424552415C08DE2899363
:1040800010950095F094E094E11CF11C011D111DA8
:10409000EACFC801B701A40193010E94FA3C7B0159
:1040A0008C0135014601C801B701A40193010E94AA
:1040B000FA3C211531054105510519F081E0382EF2
:1040C00008C0332031F481E0681671048104910442
:1040D00019F4822F805D8993C401B3012AE030E096
:1040E00040E050E00E94FA3C59016A010894411CEA
:1040F000511C8AE04816510461F61882DF91CF9175
:104100001F910F91FF90EF90DF90CF90BF90AF90F5
:104110009F908F907F906F905F904F903F90089509
:10412000AF92BF92CF92DF92EF92FF920F931F93C5
:10413000CF93DF93EC017A018B0120E030E040E087
:1041400050E0C801B7010E943D3A882334F48DE263
:10415000899317FB109517F91095C801B7010E94B4
:10416000EA395B016C01AB01BC01CE010E941D204C
:1041700001C0219688818823E1F761E070E080E04A
:1041800090E06A197B098C099D090E94073A9B01FE
:10419000AC01C801B7010E94613820E034E244E775
:1041A00059E40E94713B0E94EA39AB01BC01CE0187
:1041B0000E941D208EE2888321968881882311F039
:1041C000FBCF18828A918033E1F38E3209F4188292
:1041D000DF91CF911F910F91FF90EF90DF90CF90E3
:1041E000BF90AF900895BF92CF92DF92EF92FF926F
:1041F0000F931F93CF93DF93CDB7DEB72F970FB6F3
:10420000F894DEBF0FBECDBF982F882329F40E94FB
:104210004223FC011082A5C0813019F580E00E9484
:104220002B230E9478298C0181E00E947922DC01F5
:10423000CB010F5F1F4FB8010E94001E80E00E945B
:104240002B238C0181E00E947922DC01CB010E94AA
:10425000B71CB8010E949B290E946B220E946B220E
:1042600080C08250833020F0963009F05AC02DC0B3
:104270009230E9F480E00E942B230E9478298C017F
:1042800081E00E942B230E9478290F5F1F4F080FA7
:10429000191FB80180E00E94531EB82E81E00E94D1
:1042A0002B236C0180E00E942B237C0123C09330E0
:1042B00051F480E00E945223AB01BC01CE01019673
:1042C0000E941D2011C0963051F480E00E9404230A
:1042D000AB01BC01CE0101960E94902005C080E098
:1042E0000E94792269831A82FE0131968081882397
:1042F000E1F71DC08B2D0E94B71C8C01B6010E94F6
:104300009B29B701C8010E94B7290E946B220E9415
:104310006B226B2D77278827992790680E945C2253
:1043200020C09530F1F087E00E94701F1AC07E0116
:104330000894E11CF11C8F010E191F0981E00E94F5
:104340002B230E9478290F5F1F4F080F191FB801F8
:1043500080E00E94531EB82E81E00E942B236C0146
:10436000C9CF2F960FB6F894DEBF0FBECDBFDF9139
:10437000CF911F910F91FF90EF90DF90CF90BF9062
:1043800008951F93182F0E946B22113019F40E9478
:10439000DE2304C0123051F40E94EB239927AA2790
:1043A000BB27BC01CD010E945C2203C087E00E94B4
:1043B000701F1F910895FF920F931F93CF93DF9368
:1043C000EC01F62E97FF10C003C00E94F823E8010D
:1043D0008E010F5F1F4FCE010E9456128823A9F74E
:1043E00006C021960E94F82388818823D1F7FF20F8
:1043F00019F08AE00E94F823DF91CF911F910F916D
:10440000FF9008950F931F93CF93DF93CDB7DEB73F
:1044100028970FB6F894DEBF0FBECDBF813021F4D0
:104420000E94422361E00EC0823079F40E94692329
:10443000AB01BC018E010F5F1F4FC8010E941D2000
:1044400061E0C8010E94DB212AC0843021F40E946F
:10445000422360E0F7CF853061F40E946923AB010D
:10446000BC018E010F5F1F4FC8010E941D2060E03C
:10447000E8CF833041F40E946923DC01CB010E9424
:10448000F8238AE006C0863039F40E946923DC01F3
:10449000CB010E94F82303C087E00E94701F0E9496
:1044A0006B2228960FB6F894DEBF0FBECDBFDF910A
:1044B000CF911F910F910895E091D603F091D7030A
:1044C0003496F093D703E093D603349764837583CF
:1044D000868397830895E091D603F091D703608196
:1044E0007181828193813497F093D703E093D6034F
:1044F000089599272CEF3FEF829FF001839FF00DE5
:10450000929FF00D11248091D6039091D703E80F6C
:10451000F91F60817181828193810895992787FDB8
:104520009095880F991F880F991F2091D60330917D
:10453000D703280F391F3093D7032093D60308954C
:104540008091D6039091D7030895880F991F880F03
:10455000991FE091D403F091D503E80FF91F608112
:104560007181828193810895880F991F880F991F07
:10457000E091D403F091D503E80FF91F40835183F4
:1045800062837383089540E050E02091D603309118
:10459000D7038091D8039091D9032817390711F4D4
:1045A00041E050E0CA010895CF93DF93482F55278B
:1045B0006627772770688091D4039091D503209166
:1045C000D6033091D703281B390B359527953595A0
:1045D00027952F5F3F4FEC01E0E0F0E00DC089919F
:1045E0009991A991B99184179507A607B70719F46E
:1045F00081E090E006C03196E217F30781F780E092
:1046000090E0DF91CF91089599272CEF3FEF829FA3
:10461000F001839FF00D929FF00D11248091D6033D
:104620009091D703E80FF91F608171818281938196
:104630000E9467130895E091D603F091D70360813B
:104640007181828193813497F093D703E093D603ED
:104650000E946713089599272CEF3FEF829FF00186
:10466000839FF00D929FF00D11248091D6039091BD
:10467000D703E80FF91F60817181828193810E94C5
:10468000AC130895E091D603F091D7036081718156
:10469000828193813497F093D703E093D6030E94ED
:1046A000AC13089599272CEF3FEF829FF001839F71
:1046B000F00D929FF00D11248091D6039091D703B5
:1046C000E80FF91F60817181828193810E944C13F0
:1046D0000895E091D603F091D703608171818281C2
:1046E00093813497F093D703E093D6030E944C1341
:1046F00008950F931F93082F0E94591B9093D50381
:104700008093D40304979093D7038093D603112703
:10471000000F111F000F111FC80104960E949B1D5E
:104720008091D6039091D703800F911F9093D70368
:104730008093D6031F910F9108958091D603909195
:10474000D7039093D9038093D80308951092E1077B
:1047500010920208E0E9F0E081E080838FE989B9F6
:104760001BB888E98AB9208181E090E002C0880FF7
:10477000991F2A95E2F786608093950078940895B2
:104780001F920F920FB60F9211248F939F93EF9366
:10479000FF938091E1079CB1E2EEF7E0E80FF11D95
:1047A00090838F5F8F718093E107FF91EF919F91CD
:1047B0008F910F900FBE0F901F9018958091E10779
:1047C00020910208821B99278F71907008955D9B3C
:1047D000FECF8CB9089590910208E2EEF7E0E90F60
:1047E000F11D80819F5F9F71909302089927089522
:1047F000982F8A3021F45D9BFECF8DE08CB95D9BB4
:10480000FECF9CB90895DF92EF92FF920F931F9312
:10481000CF93DF937C01062FEC0114C080E090E081
:104820000000019622EB82399207D1F7115010F463
:104830000EC01AE00E94DE23882381F30E94EB233E
:1048400089930150CE018E19D82E002391F78D2D1A
:104850009927DF91CF911F910F91FF90EF90DF90FB
:1048600008950895AF92BF92CF92DF92EF92FF9298
:104870000F931F93813021F40E941B239F7706C161
:10488000823089F40E9469239B0177FF03C0309531
:1048900021953F4FB901882777FD8095982F9F7705
:1048A0000E945C22F9C0833029F40E941B230E94DD
:1048B0005838ECC0843029F40E941B230E94A3388E
:1048C000E5C0853029F40E941B230E94DD38DEC03C
:1048D000863069F40E941B237B018C010E941B23FC
:1048E0009B01AC01C801B7010E940C39CFC08730D1
:1048F00029F40E941B230E943F39C8C0883029F444
:104900000E941B230E945A39C1C0893029F40E9499
:104910001B230E94A639BAC08A3029F40E941B23A7
:104920000E94113AB3C08B3029F40E941B230E94CD
:10493000183BACC08C3089F40E941B237B018C0196
:104940000E941B235B016C019B01AC01C801B701F4
:104950000E94403A1816ACF132C08D3069F40E94C2
:1049600069237B018C010E9469236E157F058007F6
:1049700091070CF094CF0EC08E3079F40E94692319
:104980007B018C010E946923E616F70608071907C8
:104990000CF085CFC801B70182CF8F30A9F40E94F7
:1049A0001B237B018C010E941B235B016C019B017B
:1049B000AC01C801B7010E943D3A87FD02C08601E3
:1049C0007501C801B70162C0803169F40E941B23E0
:1049D0007B018C010E941B239B01AC01C801B70124
:1049E0000E94B93B53C0813189F40E948211AA27E9
:1049F00097FDA095BA2FBC01CD010E94073A20E097
:104A00003EEF4FEF56E40E94603940C0823159F4C6
:104A10000E941B230E94EA39882777FD8095982FF2
:104A20000E94073A33C0833149F40E941B230E943D
:104A3000EA39882777FD8095982F31CF843129F482
:104A40000E941B230E94023C21C0853129F40E9450
:104A50001B230E94153C1AC0863129F40E941B2397
:104A60000E94573C13C0873139F40E941B2320EE6B
:104A70003EE245E652E408C0883159F40E941B2307
:104A800025E33AEF4EE85CE30E94713B0E944F132E
:104A900007CF87E00E94701F1F910F91FF90EF904A
:104AA000DF90CF90BF90AF9008956F927F928F92DA
:104AB0009F92AF92BF92CF92DF92EF92FF920F93AD
:104AC0001F93CF93DF9359016A01602E7E2CEB0177
:104AD0004C011AC0E62CFF2400271127C601B5019E
:104AE000A80197010E94D83C6A3014F480E302C008
:104AF000872D8A50680F6A93C601B501A8019701F6
:104B00000E94D83C59016A01C815D90519F7DF91EF
:104B1000CF911F910F91FF90EF90DF90CF90BF90BA
:104B2000AF909F908F907F906F900895AF92BF92BB
:104B3000CF92DF92EF920F93CF93DF93EC016B0153
:104B400057FF06C08DE28993509541955F4F0EC087
:104B5000FB018081992782FF02C08BE206C083FDA2
:104B600003C0AA24BB2405C080E2899381E0A82E5B
:104B7000B12CF6018381843671F08F3619F481E609
:104B800008E00BC0883711F481E603C0883519F4BA
:104B900081E400E102C081E60AE0BA019B014427FA
:104BA00037FD4095542FBE01665F7F4FE82ECE0142
:104BB0000E945525FE0129E08081803321F4215097
:104BC00031962F3FC9F7422F4F5FF601808184FF56
:104BD0000CC06181862F99278A199B09242F3327BE
:104BE0002817390714F4462F4A19442309F441E0E1
:104BF0008AE0841BFE01E80FF11D942F02C0819111
:104C000089939150E0F7C501840F911DDF91CF91F9
:104C10000F91EF90DF90CF90BF90AF9008952F92BB
:104C20003F924F925F926F927F928F929F92AF923C
:104C3000BF92CF92DF92EF92FF920F931F93CF9389
:104C4000DF93CDB7DEB72A970FB6F894DEBF0FBE5D
:104C5000CDBF9A87898778876F8379018A0120E0A1
:104C600030E040E050E0C801B7010E943D3A88239F
:104C70005CF48DE2E985FA858193FA87E98717FB71
:104C8000109517F9109513C0EF81F8858081992749
:104C900082FF02C08BE206C083FD03C01D821C821E
:104CA0000AC080E2E985FA858193FA87E98741E0C5
:104CB00050E05D834C83EF81F885F381FE83F1360C
:104CC00029F421E62B8340E14A830CC05E815134F4
:104CD00029F481E48B8390E19A8304C0E1E6EB83BD
:104CE000FAE0FA830F2EF0E02F2EF0E03F2EF0E8EE
:104CF0004F2EFFE35F2EF02DDD242A81622F7727D0
:104D000067FD7095872F972F0E94073A9B01AC0192
:104D1000C201B1010E94713B1B012C01D39447E0F9
:104D2000D41659F75A81652F7727882777FD809504
:104D3000982F0E94073A5B016C01A20191010E9429
:104D4000713B3B014C0120E030E040E050E0C80105
:104D5000B7010E94403A181614F019822AC087E061
:104D600089830BC0A6019501C801B7010E94603973
:104D70007B018C0199819F5F9983A4019301C801F4
:104D8000B7010E94403A87FFEDCF0BC0A601950105
:104D9000C801B7010E94713B7B018C01E981E150A0
:104DA000E983A2019101C801B7010E943D3A87FD44
:104DB000EDCFC801B7010E94EA399B01AC016985BA
:104DC0007A85685F7F4FEB800A8189859A850E948A
:104DD0005525E985FA85379698E08081803321F45E
:104DE000915031979923C9F7F981FC3F14F09F172F
:104DF00064F42E81273619F471E005E618C04E815F
:104E0000473441F471E005E412C05E81573639F051
:104E1000573429F00E81063619F071E008C006E615
:104E2000898187FF02C070E002C079817F5F7917B6
:104E300014F010E002C0192F171BEF81F885828152
:104E40008F3F09F0182FEF81F885808181FF03C023
:104E5000112309F411E0772311F031E007C031E0AC
:104E6000F9813F1B1F5F1F0F17FD10E0272F210F38
:104E7000822F992787FD9095FC01E30FF11D49854D
:104E80005A85E40FF51FDA01A80FB91F90E309C096
:104E9000283014F0908302C08C9180832150319788
:104EA00011972717ACF7772309F043C0A985BA8576
:104EB00080E38D932C813D812F5F3F4F1116B4F419
:104EC0008EE2E985FA858183119680E301C08D9396
:104ED000F981FF5FF983F7FDFACF2C813D81498588
:104EE0005A85241B350B2A0F3B1F3AC0EF81F885EA
:104EF000628161506E3FA0F58EE2E985FA8581837B
:104F0000AD014F5F5F4F2F5F3F4FE985FA85862FD9
:104F100090E39283815031968F3FD9F7862F99275E
:104F2000280F391F2F5F3F4FDA01A80FB91F1196C5
:104F300017C011162CF0A985BA852C813D8110C0AF
:104F4000E72FFF27E7FDF09549855A85E40FF51F08
:104F50008EE28083DA0111962C813D812F5F3F4FD5
:104F6000672F772767FD7095812F992787FD90958B
:104F7000680F791FC901860F971F063651F1A60FDA
:104F8000B71FFD0101936F010894C11CD11C22E0E1
:104F9000A22EB12CA80EB91E598157FF06C08DE272
:104FA000FD0181835195598303C08BE2FD0181830B
:104FB000F9812F2F332727FD3095432F532FB6012B
:104FC0006E5F7F4FEB800A81C6010E945525C501A7
:104FD00002962A960FB6F894DEBF0FBECDBFDF91C2
:104FE000CF911F910F91FF90EF90DF90CF90BF90E6
:104FF000AF909F908F907F906F905F904F903F9079
:105000002F9008950895EF92FF921F93CF93DF930F
:10501000EC017B01188219828FEF8A831B821C822C
:105020001D821F821E8210E062C00894E11CF11CE8
:105030001230A9F1133030F4112369F0113009F066
:1050400056C011C0143009F44AC01430D8F11530DC
:1050500009F04DC049C0253211F411E048C08C81DF
:105060008F5F8C8344C02D3219F48881816004C025
:10507000233221F488818260888339C02B3219F46D
:1050800088818460F9CF203219F488818860F4CF58
:10509000203319F488818061EFCF2E3281F0822F86
:1050A00080538A3050F489819AE0899F802D1124A1
:1050B000820F8053898312E01AC02E3281F41A8243
:1050C00013E015C0822F80538A3048F48A819AE019
:1050D000899F802D1124820F80538A8308C02B83DF
:1050E000FF82EE8215E003C08D818F5F8D83C70143
:1050F0000E94052A282F882309F097CFDF91CF91AE
:105100001F91FF90EF900895FB012381223661F4F7
:10511000452B19F060E071E010C065E071E00E947D
:105120009B2985E090E00895223419F080E090E01A
:105130000895452B39F06BE071E00E949B2984E0D3
:1051400090E0089560E171E00E949B2985E090E085
:1051500008958F929F92AF92BF92CF92DF92EF927B
:10516000FF920F931F93CF93DF93CDB7DEB7EA97EC
:105170000FB6F894DEBF0FBECDBF182F80E00E949F
:105180002B235C01BC016E010894C11CD11CC6011B
:105190000E940328113059F481E00E945223AB0190
:1051A000BC01B601CE0109960E9496250CC01230B2
:1051B00061F481E00E945223AB01BC01B601CE0133
:1051C00009960E9484286C0112C0133059F481E0C2
:1051D0000E9404239B01AC01B601CE0109960E94F6
:1051E0000F26F1CF87E00E94701FCC24DD242A8196
:1051F000822F9927C816D90614F0992402C0922E3E
:105200009C188E81B601680F711D8D81890D912DBD
:10521000911D0196680F791F80E00E94531E882E11
:1052200080E00E942B238C010A191B098F8198852D
:10523000800F911F98878F83882D0E94B71C7C0157
:105240004D815527A00EB11EB5010E94C1298D8147
:105250008701080F111D898180FD0BC0892DF80180
:1052600090E201C091938150E8F7090D111D3FEFC5
:10527000932EA601BE01675F7F4FC8010E94C1291E
:105280000C0D1D1D898180FF09C0892DF80190E258
:1052900001C091938150E8F7090D111D4E815527EA
:1052A0006F817885C8010E94C1298E81080F111D68
:1052B000F80110820E946B220E946B22682D7727D2
:1052C0008827992790680E945C22EA960FB6F89486
:1052D000DEBF0FBECDBFDF91CF911F910F91FF9029
:1052E000EF90DF90CF90BF90AF909F908F900895F8
:1052F0000F931F93CF93DF93FC0197FD03C000E052
:1053000010E010C000E010E003C00F5F1F4FFE016F
:10531000EF012196CF010E9456128823B1F705C0F4
:105320000F5F1F4F81918823D9F7C801DF91CF917B
:105330001F910F9108950F931F93CF93DF93EC016B
:10534000FB0177FF0BC08F010F5F1F4FCF010E9442
:1053500056128993882331F0F801F5CF8191899312
:105360008823E1F7DF91CF911F910F910895FC0100
:1053700001C0319680818823E1F7CF010E949B29EB
:105380000895EF92FF920F931F93CF93DF937C01C9
:10539000EB018A0177FF12C0015010408FEF0F3FE1
:1053A0001807E1F0CE010E945612F701808388238E
:1053B000A9F021960894E11CF11CEECF0150104099
:1053C000FFEF0F3F1F0751F08881F701808388238B
:1053D00029F00894E11CF11C2196F0CFDF91CF91C8
:1053E0001F910F91FF90EF900895FC0101C031963D
:1053F000415050408FEF4F3F580719F0808188236C
:10540000B1F7CF010E94C1290895FC0197FF06C0A2
:105410000E945612992787FD9095089580819927BB
:1054200087FD909508959AB3809598239ABB9BB376
:1054300098239BBB089590E497B997B18770982BF8
:1054400097B987EC86B901C000003699FDCF24B129
:1054500085B19927982F8827820F911D0895109262
:10546000900087E689B9599888E18AB90895282F6C
:1054700040E050E03AE298B3822F881F8827881FC7
:10548000880F880F9B7F982B98BB86B3440F992772
:1054900063E0969587956A95E1F78170482BC19AEC
:1054A000832F8A95F1F7C198832F8A95F1F75F5F73
:1054B000583011F0220FDFCF842F992708955D9B7C
:1054C000FECF8CB908955F9BFECF8CB1992787FDE5
:1054D0009095089596989798949895980895969A87
:1054E000979A949A959A08951F93CF93DF93CDB787
:1054F000DEB722970FB6F894DEBF0FBECDBF8E9AEF
:105500008F9A8C9A8D9AB99ABA9ABB98C1980E9430
:105510006F2A80E49CE9FC013197F1F79A83898333
:105520000E946A2A89819A81FC013197F1F70197DB
:10553000F1F78CEA0E94372A83E50E94372A80918E
:10554000060880528036B0F410E280E00E94372ACC
:10555000833569F080E00E94372A8CEA0E94372A5E
:1055600083E50E94372A11501F3F39F0EECF8CEFB0
:1055700085BB03C080E00E94372A80E00E94372A62
:1055800080E49CE90197F1F75D9BFECF8DE08CB93B
:1055900022960FB6F894DEBF0FBECDBFDF91CF913C
:1055A0001F910895B998BA980E946F2A15BA80E49D
:1055B0009CE90197F1F75D9BFECF8DE08CB90895D2
:1055C0005F9BFECF8CB1809306085D9BFECF8DE084
:1055D0008CB908955D9BFECF81E48CB95D9BFECFB5
:1055E00086E58CB95D9BFECF82E58CB95D9BFECFD5
:1055F00080E28CB95D9BFECF89E48CB95D9BFECFC8
:1056000083E58CB95D9BFECF80E58CB908955D9BE9
:10561000FECF82E38CB95D9BFECF83E38CB9089506
:105620005D9BFECF81E38CB95D9BFECF80E38CB99F
:1056300008955D9BFECF85E58CB95D9BFECF86E529
:105640008CB95D9BFECF83E18CB95D9BFECF80E280
:105650008CB95D9BFECF88E28CB95D9BFECF88E361
:105660008CB95D9BFECF88E48CB95D9BFECF8CE44A
:105670008CB95D9BFECF84E38CB95D9BFECF8CE63D
:105680008CB95D9BFECF88E68CB95D9BFECF85E62D
:105690008CB95D9BFECF80E68CB95D9BFECF84E626
:1056A0008CB95D9BFECF82E78CB95D9BFECF81E418
:1056B0008CB95D9BFECF82E48CB95D9BFECF1CB89C
:1056C00008955D9BFECF83E58CB908955D9BFECF69
:1056D00089E58CB908955F9BFECF8CB15D9BFECFB1
:1056E0008DE08CB908955F9BFECF8CB15D9BFECFA2
:1056F0008DE08CB908955F9BFECF8CB18093040838
:105700005F9BFECF8CB1809305085D9BFECF8DE043
:105710008CB908951F935F9BFECF1CB180E40E945B
:10572000372A809104080E94372A809105080E9438
:10573000372A812F0E94372A80910308882321F479
:1057400080EC9DE50197F1F75D9BFECF8DE08CB974
:105750001F9108951F935F9BFECF1CB188E40E94A8
:10576000372A809104080E94372A809105080E94F8
:10577000372A812F0E94372A809105088F5F8093F6
:105780000508882329F4809104088F5F809304081A
:1057900080910308882321F480EC9DE50197F1F7BF
:1057A0005D9BFECF8DE08CB91F9108958CE40E9423
:1057B000372A809104080E94372A809105080E94A8
:1057C000372A80E00E94372A80EC9DE50197F1F7A7
:1057D0005D9BFECF8DE08CB9089588E20E94372A48
:1057E000809104080E94372A809105080E94372A78
:1057F00080E00E94372A5D9BFECF8CB980E20E9438
:10580000372A809104080E94372A809105080E9457
:10581000372A80E00E94372A5D9BFECF8CB98091A9
:1058200005088F5F80930508882329F48091040878
:105830008F5F8093040808951F935F9BFECF1CB178
:1058400080EC0E94372A809104080E94372A8091B8
:1058500005080E94372A812F0E94372A80EC9DE597
:105860000197F1F7809105088F5F809305088823E1
:1058700029F4809104088F5F809304085D9BFECF1C
:105880008DE08CB91F91089580EA0E94372A80919B
:1058900004080E94372A809105080E94372A80E078
:1058A0000E94372A5D9BFECF8CB9809105088F5FDF
:1058B00080930508882329F4809104088F5F8093E2
:1058C000040808958CEA0E94372A80E80E94372A4B
:1058D00084E00E94372A80E00E94372A80E49CE915
:1058E000FC013197F1F7FC013197F1F70197F1F7DE
:1058F0005D9BFECF8DE08CB908951F935F9BFECF1B
:105900001CB18CEA0E94372A80EE0E94372A80E080
:105910000E94372A812F0E94372A80E49CE9019750
:10592000F1F75D9BFECF8DE08CB91F91089588E261
:1059300083B908958CE283B9089580E30E94372AE1
:1059400080E00E94372A82E00E94372A80E00E948D
:10595000372A5D9BFECF8CB980E30E94372A80E016
:105960000E94372A81E00E94372A80E00E94372A6D
:105970005D9BFECF8CB980E30E94372A80E00E94B5
:10598000372A80E00E94372A80E00E94372A5D9BF8
:10599000FECF8CB908950F931F935F9BFECF8CB100
:1059A000982F5F9BFECF8CB1082F5F9BFECF1CB161
:1059B000892F0E94372A802F0E94372A812F0E9428
:1059C000372A80E00E94372A80E49CE90197F1F7AA
:1059D0005D9BFECF8DE08CB91F910F910895FF92D2
:1059E0000F931F935F9BFECF8CB1982F5F9BFECFD1
:1059F0008CB1F82E5F9BFECF8CB1082F5F9BFECF42
:105A00001CB1892F0E94372A8F2D0E94372A802FA0
:105A10000E94372A812F0E94372A5D9BFECF8CB9C6
:105A200080E49CE90197F1F75D9BFECF8DE08CB996
:105A30001F910F91FF9008955F9BFECF8CB1992726
:105A400087FD9095A92FB92FFC01BE97EC34F10585
:105A500008F054C0EA5BFF4FEE0FFF1F0590F49172
:105A6000E02D09940E94742AE7CF5D9BFECF89E563
:105A700048C00E947B2BE0CF0E948A2BDDCF0E9482
:105A8000AA2BDACF0E94D62BD7CF0E94ED2BD4CFF2
:105A90000E941C2CD1CF0E94442CCECF0E94622C9D
:105AA000CBCF0E947D2CC8CF88E201C08CE283B9A5
:105AB000C3CF0E94D22AC0CF0E94E02ABDCF0E944D
:105AC0009D2CBACF0E94192BB7CF0E94EA2AB4CFDF
:105AD0000E94072BB1CF0E94102BAECF5D9BFECF53
:105AE00083E50FC00E946B2BA7CF0E94732BA4CF1E
:105AF0000E94CB2CA1CF0E94EF2C9ECF5D9BFECFAE
:105B00008FE38CB999CF98B39F7E482F552740FDDE
:105B10000FC0906198BB98B39F7720E0922B98BB01
:105B20009091650041FF02C088E007C080E005C099
:105B300098BB98B39F7720E8F1CF977F982B9093ED
:105B40006500809165008061809365001ABA25E048
:105B5000822F8A95F1F780916500846080936500BB
:105B600085E18A95F1F789B3909165009B7F9093C9
:105B700065002A95F1F7992708951F93182F117042
:105B8000812F0E94832D87FDFBCF1F910895E4E6AE
:105B9000F0E0808188608083808180618083808163
:105BA00084608083BC9ABF9AB89A1ABAE5E6F0E09E
:105BB0008081877F808380818F7E808380818B7FBF
:105BC0008083C498C798C09880EA9FE00197F1F756
:105BD000C09A80E00E94BD2D81E00E94BD2D0895F5
:105BE00098B39F7E482F552740FD0FC0906198BB0A
:105BF00098B39F7720E0922B98BB9091650041FF6E
:105C000002C088E007C080E005C098BB98B39F77CA
:105C100020E8F1CF977F982B9093650080916500E5
:105C20008F7E809365008FEF8ABB6BBB95E0892FD9
:105C30008A95F1F780916500846080936500892FD3
:105C40008A95F1F7809165008B7F809365009A9526
:105C5000F1F71BBA1ABA0895809107089927089599
:105C60008091080899270895982F8052803608F06F
:105C700090E89052892F9927FC01EE0FFF1FE80F43
:105C8000F91FEE0FFF1FEA5EFE4FE081662309F465
:105C9000EFE180E020E0E0FD8F5F2F5F253011F025
:105CA000E695F9CF992708950F931F93CF93DF932C
:105CB000EC01062F10E006C02196602F0E94342EC2
:105CC0008F5F180F88818823B9F7812F9927DF917B
:105CD000CF911F910F910895DF92EF92FF920F9352
:105CE0001F93F82ED62E8091070887FD2AC0EE2438
:105CF000803410F031E0E32E8E2D0E94BD2D0E2D4C
:105D00000E5F802F0E94832D802F0E94832D182FDD
:105D10008E2D0E94BD2D6091070860648E2D0E941B
:105D2000F02D8E2D0E94BD2DFD20D0941D21F12A35
:105D30006F2D802F0E94F02D809107088F5F809338
:105D400007081F910F91FF90EF90DF900895FF9249
:105D50000F931F93CF93DF93042F982F8052803699
:105D600008F090E8905286E0989FF0011124EA5ED6
:105D7000FE4F1081662309F41FE1EF012196FF24F5
:105D800010FF29C0202F332727FD3095888107FD7C
:105D90000FC06FEF70E0022E02C0660F771F0A94EB
:105DA000E2F7992702C0880F991F2A95E2F711C0E0
:105DB000309521953F4F6FEF70E0022E02C0759530
:105DC00067950A94E2F7992702C0959587952A95D9
:105DD000E2F70E946C2EF39485E0F81619F0169500
:105DE0002196CECF202F332727FD309507FD08C001
:105DF0006FEF70E002C0660F771F2A95E2F70BC0C5
:105E000088279927821B930B6FEF70E002C075956E
:105E100067958A95E2F780E00E946C2EDF91CF9122
:105E20001F910F91FF900895FF920F931F93F82EEB
:105E300008EB80E00E94BD2D81E00E94BD2D602F07
:105E400080E00E94F02D602F81E00E94F02D10E094
:105E500082E00E94BD2D83E00E94BD2D6F2D82E067
:105E60000E94F02D6F2D83E00E94F02D1F5F1034F3
:105E700079F70F5F003CE9F680E00E94BD2D81E0DC
:105E80000E94BD2D68EB80E00E94F02D68EB81E060
:105E90000E94F02D1F910F91FF9008950F931F9373
:105EA000082F162F809307086093080880E00E944F
:105EB000BD2D81E00E94BD2D16951695169518549E
:105EC000612F80E00E94F02D612F81E00E94F02D73
:105ED00080E00E94BD2D81E00E94BD2D013430F094
:105EE00060E480E00E94F02D602F06C0005C602F0F
:105EF00080E00E94F02D60E481E00E94F02D1F916F
:105F00000F910895EF92FF920F931F93E82E062FA3
:105F1000F0900708109108081770412F0E94A72ED3
:105F2000112399F060910808685F8F2D0E944E2F11
:105F30001850412F602F8E2D0E94A72E60910808C7
:105F40006850809107080E944E2F1F910F91FF907B
:105F5000EF9008951F93CF93DF93EC01162F04C0A9
:105F60002196612F0E94822F88818823C9F7DF91B3
:105F7000CF911F9108959C01E0EAFFE003C0CF019B
:105F80000197F1F7215030408FEF2F3F3807B9F7D5
:105F90000895F89480911908882311F481E105C0CF
:105FA0008091740084FF05C082E18093190880E02D
:105FB00011C08091740085FF07C01092740084E0C6
:105FC0008093740088E1F1CF1092190885EA8093DC
:105FD000740081E078949927089520E030E095E0FE
:105FE0008091740080FD03C081E090E00895892FC6
:105FF0008A95F1F72F5F3F4F87E22031380781F70D
:10600000F8941092740084E08093740080911908D1
:10601000803118F483E180931908789480E090E04F
:1060200008958091190899270895E4E7F0E0108217
:1060300088E4809370008FEF8093730084E0808306
:1060400081E08093190808951F920F920FB60F9266
:1060500011242F933F938F939F93EF93FF938091FE
:106060007100887F80931B08883241F1893288F45F
:10607000803111F1813138F4882309F461C088300E
:1060800009F063C019C08831C9F0803209F05DC0E1
:1060900057C08034C9F1813438F4803309F450C0DA
:1060A000883309F052C047C0803511F18835D1F1ED
:1060B000883409F04AC044C010921C0890911C0812
:1060C00080911A08981768F490911C08E92FFF270F
:1060D000E75FF74F8081809373009F5F90931C0868
:1060E0001DC082E08093190884E98093740033C056
:1060F00080911C0890917300E82FFF27E75FF74F0E
:1061000090838F5F80931C0880911C0820911A084F
:106110009927019633278217930711F485E8E5CF75
:1061200085ECE3CFE0911C0880917300FF27E75FC7
:10613000F74F8083D6CF84E88093740085E109C04F
:1061400084E98093740086E104C084E8809374003D
:1061500087E180931908FF91EF919F918F913F9173
:106160002F910F900FBE0F901F901895109222083C
:10617000109221081092200810921F0810922308F4
:1061800010922408109225081092260810922808D0
:106190001092270810921E0810921D08C598C698E4
:1061A000BD9ABE9A1DBC1CBC82EA8FBD82E18EBD29
:1061B00080E094E097BD86BD87B7846087BF08956F
:1061C0001F920F920FB60F9211242F933F934F936C
:1061D0008F939F93AF93BF93209121083091220812
:1061E000C90148969093220880932108885E9340C5
:1061F00078F0205D3340309322082093210880916D
:106200001F089091200801969093200880931F0802
:1062100020911F0830912008C90101969093200811
:1062200080931F08885E9340C8F0275E3340309308
:10623000200820931F088091230890912408A091A2
:106240002508B09126080196A11DB11D8093230851
:1062500090932408A0932508B093260880912708DE
:106260009091280823E08F3F920710F080E094E09F
:106270009BBD8ABD80911D0890911E0843E08F3F11
:10628000940710F080E094E099BD88BDBF91AF9174
:106290009F918F914F913F912F910F900FBE0F9033
:1062A0001F9018950E94C92F882379F00E94ED2F26
:1062B000882359F00E94113090E0823009F091E07B
:1062C00081E09827892F9927089580E090E008952C
:1062D00026E020931A0828E52093090824E020935B
:1062E0000A08292F332720930B0880930C08872F47
:1062F000992780930D0860930E080E9452319927C8
:10630000089595E090931A0898E59093090893E012
:1063100090930A0880930B0860930C0840930D0833
:106320000E9452319927089526E020931A0828E503
:106330002093090822E020930A08292F332720936D
:106340000B0880930C08872F992780930D08609382
:106350000E080E9452319927089526E020931A08CA
:1063600028E52093090821E020930A08292F3327E4
:1063700020930B0880930C08872F992780930D0892
:1063800060930E080E9452319927089582E080930D
:106390001A0888E58093090810920A080E94523171
:1063A0009927089589E080931A0889E58093090860
:1063B0000E945231882319F480E090E00895809182
:1063C0000A089927982F882720910B08820F911D82
:1063D000909334088093330880910C089927982F64
:1063E000882720910D08820F911D90933808809383
:1063F000370880910E089927982F882720910F0839
:10640000820F911D90933608809335088091100873
:106410009927982F882720911108820F911D90931A
:106420002A088093290881E090E008950E94C92FEE
:10643000882379F00E94ED2F882359F00E941130B3
:1064400090E0823009F091E081E09827892F992728
:10645000089580E090E0089524E020931A0824E550
:106460002093090822E020930A08292F332720933C
:106470000B0880930C080E9416329927089582E039
:1064800080931A0884E58093090881E080930A08C4
:106490000E9416329927089582E080931A0884E5B5
:1064A0008093090810920A080E94163299270895CD
:1064B0009FEA90930A088EEF80930B0890930C0844
:1064C00080930D0890930E0880930F089093100806
:1064D0008093110889E080931A0885E58093090864
:1064E0000E941632882319F480E090E0089580918C
:1064F0000A0880933F0880910B08809340088091A0
:106500000C088093410880910D0880934208809187
:106510000E088093430880910F088093450880916E
:1065200010089927382F222780911108280F311D34
:106530002115310519F481E090E0089530933E086B
:1065400020933D0881E090E008950E9455330E9419
:10655000CB330E942A340E9462360E945A350E9430
:106560009E350E9439380E94D8360E949C370E947E
:10657000E33778940895892F9927449771F461E05F
:1065800070E080E00E94531E9927AA27BB27B068BD
:10659000BC01CD010E945C22089588E00E94701F1A
:1065A0000895882319F40E946B22089587E00E94C1
:1065B000701F0895292F33272031310519F40E94C7
:1065C000D13208952231310519F40E940222089532
:1065D0002331310519F40E94C12108952431310578
:1065E00019F40E94F32008952B32310519F40E940A
:1065F000322408952C32310519F40E94A9280895F7
:106600002C31310519F40E94403308952D313105A4
:1066100019F40E94663308952E31310519F40E9451
:10662000CE3308952F31310519F40E945B3508955A
:106630002032310519F40E94AF3508952132310519
:1066400019F40E943A3808952332310519F40E9452
:10665000683608952532310519F40E94E936089507
:106660002632310519F40E949D3708952A323105EA
:1066700019F40E94E437089588E00E94701F08957D
:10668000813041F487E00E941B2A90934708809351
:1066900046080895823041F4609146087091470899
:1066A000882799270E945C2208958E9A8F9A96983F
:1066B00097988AE090E00E94BB2F969A979A84E67A
:1066C00090E00E94BB2F0E9415300895EF92FF9238
:1066D0000F931F93833089F40E9469239B01AC01BF
:1066E0007894E0EAFFE003C0CF010197F1F7215071
:1066F000310941095109C0F749C0843051F50E9460
:10670000692378940E94073A2BEA3AEA4AEA50E46D
:106710000E94713B7B018C0120E030E040E85FE3A8
:106720000E943D3A882314F461E010C020E030E07C
:106730004FE753E4C801B7010E94403A181614F419
:1067400060E004C0C801B7010E94EA396A95F1F718
:106750001DC0813059F4F8947894609123087091A9
:10676000240880912508909126080AC0823059F4A7
:10677000F894789460911F087091200888279927D1
:106780000E945C2203C087E00E94701F1F910F913E
:10679000FF90EF9008950E94B6300895EF92FF9217
:1067A0000F931F93CF93DF93813021F480E00E94F9
:1067B000142F49C0823061F40E946B227B018C014E
:1067C0000E946B22DC01CB016E2D0E944E2F3BC03C
:1067D0008330E9F40E944223EC019923A4F405C01C
:1067E000609148080E94822FE8018E010F5F1F4FC1
:1067F000CE010E945612882399F725C021966091F8
:1068000048080E94822F88818823C1F71CC08430E9
:1068100069F40E946B221092480861157105810588
:10682000910589F081E0809348080DC0853041F4DE
:10683000609148087727882799270E945C2203C027
:1068400087E00E94701FDF91CF911F910F91FF9001
:10685000EF9008950E94C72D80E00E94BD2D6FE348
:1068600080E00E94F02D80E00E94BD2D60EC80E071
:106870000E94F02D80E00E94BD2D60E480E00E9427
:10688000F02D80E00E94BD2D68EB80E00E94F02D8D
:1068900081E00E94BD2D6FE381E00E94F02D81E038
:1068A0000E94BD2D60EC81E00E94F02D81E00E94ED
:1068B000BD2D60E481E00E94F02D81E00E94BD2D9D
:1068C00068EB81E00E94F02D80E00E94142F60E0D0
:1068D00088E20E944E2F61E086E593E00E94AA2F95
:1068E0006CE085E00E944E2F61E08FE593E00E940E
:1068F000AA2F68E18FE00E944E2F60E089E793E0C5
:106900000E94AA2F60E28FE00E944E2F60E08AE88A
:1069100093E00E94AA2F68E28FE00E944E2F60E071
:106920008BE993E00E94AA2F60E38FE00E944E2F34
:1069300060E08CEA93E00E94AA2F68E38FE00E9457
:106940004E2F60E08DEB93E00E94AA2F60E08FE76E
:106950000E94822F08951F93182F80914A0880313A
:1069600010F5809149088230F0F480E00E94BD2D3E
:10697000612F82E00E94F02D80914A088F5F809302
:106980004A08803181F480914908882361F410928B
:106990004A0881E08093490880E00E94BD2D60ECA8
:1069A00080E00E94F02D1F910895DF92EF92FF92F8
:1069B0000F931F93CF93DF93813029F480E00E94DF
:1069C000BD2D61E052C08230F9F40E946B226093C9
:1069D00049080E946B2260934A08603108F04AC05F
:1069E00080914908823008F045C080E00E94BD2DAA
:1069F0008091490860914A08882321F460580E94D8
:106A0000F02D38C0605431C08330C9F40E94422355
:106A1000EC01992384F403C00E94AB34E8018E0199
:106A20000F5F1F4FCE010E9456128823A9F722C084
:106A300021960E94AB3488818823D1F71BC0843013
:106A4000B1F40E946B227B018C0180E00E94BD2D7D
:106A5000EE2011F46CE009C081E0E81611F46EE05C
:106A600004C082E0E81631F46FE080E0C8CF87E030
:106A70000E94701FDF91CF911F910F91FF90EF90B7
:106A8000DF9008950E94C72D80E00E94BD2D61E037
:106A900080E00E94F02D80E00E94BD2D6FE080E03C
:106AA0000E94F02D80E00E94BD2D68E380E00E94EE
:106AB000F02D08950895EF92FF920F931F93813068
:106AC00019F40E94583235C0823091F40E94692333
:106AD0007B018C0185E0E816F1040105110518F031
:106AE00089E00E94701FF701E15CF74F608118C0D8
:106AF000833091F40E946923611571058105910528
:106B000031F081E080934B080E943F3212C0109216
:106B10004B080E944C320DC0843041F460914B0808
:106B20007727882799270E945C2203C087E00E946C
:106B3000701F1F910F91FF90EF900895E5E6F0E030
:106B400080818E7F8083E4E6F0E0808181608083B5
:106B500081E00E94132A80E00E94132A0895DF92A8
:106B6000EF92FF920F931F93813009F078C08091CC
:106B700065008E7F8093650035E8D32E8D2D8A9534
:106B8000F1F781E00E941B2A2FEFE22E23E0F22E84
:106B90009701281B390B30934F0820934E0880E053
:106BA0000E941B2A8701081B190B10934D080093A4
:106BB0004C0880E00E941B2A081B190B01501C4F37
:106BC00010934D0800934C0800914E0810914F0807
:106BD00081E00E941B2A081B190B01501C4F1093C7
:106BE0004F0800934E088091650081608093650096
:106BF000DA94F1F781E00E941B2A9701281B390BD8
:106C0000309353082093520880E00E941B2AE81A10
:106C1000F90AF0925108E092500880E00E941B2A85
:106C2000E81AF90A8FEF93E0E80EF91EF092510886
:106C3000E0925008009152081091530881E00E94A0
:106C40001B2A081B190B01501C4F1093530800936B
:106C50005208809165008E7F809365002DC0823040
:106C600049F4609152087091530820914E08309178
:106C70004F080AC0833079F4609150087091510830
:106C800020914C0830914D08621B730B882799277F
:106C90000E945C2211C0843029F4609152087091E6
:106CA0005308F4CF853029F4609150087091510851
:106CB000EDCF87E00E94701F1F910F91FF90EF9022
:106CC000DF900895BD9ABE9A8CEF82B984BB089577
:106CD000EF92FF920F931F938130C9F50E946923B1
:106CE0007B018C010E946923AB01BC01E0FE0BC05B
:106CF00025B384E090E0042E02C0880F991F0A9407
:106D0000E2F7282B0BC025B384E090E0042E02C0EC
:106D1000880F991F0A94E2F78095282325BBE1FE8E
:106D20000AC023B184E090E002C0880F991F4A9501
:106D3000E2F7282B0AC023B184E090E002C0880F5C
:106D4000991F4A95E2F78095282323B92CC08230F9
:106D500019F40E94692321C0833039F40E94692309
:106D600070932808609327081EC0843029F460912E
:106D70002708709128080FC0853039F40E946923D4
:106D800070931E0860931D080EC0863049F4609110
:106D90001D0870911E08882799270E945C2203C055
:106DA00087E00E94701F1F910F91FF90EF90089550
:106DB000E5E6F0E080818E7F8083E4E6F0E080818C
:106DC0008160808382E00E94132A83E00E94132A5C
:106DD0000895DF92EF92FF920F931F93813009F095
:106DE00078C0809165008E7F8093650035E8D32E52
:106DF0008D2D8A95F1F782E00E941B2A2FEFE22E5B
:106E000023E0F22E9701281B390B3093550820936D
:106E1000540883E00E941B2A8701081B190B10935A
:106E200059080093580883E00E941B2A081B190B7D
:106E300001501C4F109359080093580800915408B2
:106E40001091550882E00E941B2A081B190B015063
:106E50001C4F109355080093540880916500816081
:106E600080936500DA94F1F782E00E941B2A970173
:106E7000281B390B309357082093560883E00E9453
:106E80001B2AE81AF90AF0925B08E0925A0883E09C
:106E90000E941B2AE81AF90A8FEF93E0E80EF91E08
:106EA000F0925B08E0925A0800915608109157083A
:106EB00082E00E941B2A081B190B01501C4F1093E3
:106EC000570800935608809165008E7F8093650077
:106ED0002DC0823049F46091560870915708209176
:106EE0005408309155080AC0833079F460915A08EB
:106EF00070915B082091580830915908621B730B00
:106F0000882799270E945C2211C0843029F460915F
:106F1000560870915708F4CF853029F460915A08CB
:106F200070915B08EDCF87E00E94701F1F910F9159
:106F3000FF90EF90DF9008950895AF92BF92CF92A7
:106F4000DF92EF92FF920F931F93813079F40E94AA
:106F500069237B018C010E9469235B016C010E9403
:106F600069234E2D8A2D0E94813124C0823061F424
:106F70000E9469237B018C010E946923DC01CB0103
:106F8000B7010E94AD3116C0833061F40E946923BD
:106F90007B018C010E946923DC01CB01B7010E94B7
:106FA000943108C0843019F40E94C63103C087E0D0
:106FB0000E94701F1F910F91FF90EF90DF90CF9074
:106FC000BF90AF9008950895873019F40E94D23190
:106FD00008958130A1F420913308309134088091D4
:106FE0005E0890915F08B901681B790B882777FDCF
:106FF0008095982F30935F0820935E0833C08230CD
:10700000A1F4209137083091380880915C08909164
:107010005D08B901681B790B882777FD8095982F4B
:1070200030935D0820935C081DC0833019F40E94E2
:1070300069230895843029F461E070E080E090E0F5
:1070400011C0853029F4609135087091360806C06A
:10705000863059F46091290870912A08882777FDB5
:107060008095982F0E945C22089587E00E94701FEF
:1070700008950895813079F40E94583260913D0856
:1070800070913E088827992710923E0810923D087B
:107090000E945C220895823039F40E946923DC0149
:1070A000CB010E942C32089587E00E94701F089542
:1070B0004AD050E895275FE349EC3FE02BED01C053
:1070C0005058192E75D201D025C2BA17620773071E
:1070D00084079507B1F188F40EF410940B2EBA2FA3
:1070E000A02D062E622F202D072E732F302D082E57
:1070F000842F402D092E952F502DFF275523B9F0B1
:10710000591B49F0573E98F0469537952795A79516
:10711000F0405395C9F776F0BA0F621F731F841FB2
:1071200030F4879577956795B795F040939517FA62
:107130000F2E0895BF1BBB27BA0B620B730B840B7A
:10714000F6CFDEF661C2AA2797FDA160AF939F77C5
:107150005FE340E8613071058407950720F00E94E5
:10716000A23AAF9108959F938F937F936F93E4E238
:10717000F1E00E94A53A2F913F914F915F919F932B
:107180008F937F936F939FE380E8772766275068FC
:107190000E9461380E94153C2F913F914F915F9161
:1071A0000E94713B5FE349EC3FE02BED90680E9449
:1071B0006138AF91A0FD906808951F930F93002749
:1071C000192F10789F775FE340E8613071058407DD
:1071D000950718F000680E947D3A912B6F937F937A
:1071E0008F939F930E94533CE6E4F1E0AED15F9110
:1071F0004F913F912F910E94713B002351F02BED55
:107200003FE049EC5FE300E8902717FD50680E94DB
:1072100061380F911F910895552319F0992351F06A
:1072200018C09923A1F097FB6BED7FE089EC9FE3F9
:1072300097F90895552359F02AF46BED7FE089E41E
:1072400090E40895662777278827992708950C9456
:10725000A23A1F93112797FD116057FD12600E94FB
:1072600060390E94DD3811FF08C02BED3FE049E492
:1072700050E410FD50680E9461381F910895B2D10A
:107280009F3770F43EF0992329F09FE380E8772739
:1072900066270895B6C1869577956795B11D939534
:1072A0009639C8F32EF0BB2319F06F5F7F4F8F4FD5
:1072B000BB2730C150E449EC3FE02BEDCBD0FFC001
:1072C00077D101D027C1552359F0992369F09F57F1
:1072D0005F57951B33F442F4903811F4915805C070
:1072E00031C191589F3F09F48FC1BB271124621708
:1072F0007307840730F4660F771F881FBB1F9150F8
:1073000098F311D00F920FD00F920DD0A0E826174E
:10731000370748071B0609F0A048BA2F602D7F9158
:107320008F9100240895A0E8002462177307840752
:10733000B10528F0621B730B840BB1090A2A660F92
:10734000771F881FBB1FA69581F70895092E9923E3
:107350004AF052E441EB32E768317307840795073E
:1073600058F0F0C09F7752E44EEA3CEA603573076C
:107370008407950708F045C10F925FE348EB3AEAAE
:107380002BE3AFD1FF92EF92DF92CF9250E04CE02F
:1073900078D1ECE6F1E0D9D05F2D4E2D3D2D2C2D8E
:1073A000CF90DF90EF90FF90FEE94595441F551F69
:1073B000F51B5527406804C0469537952795579586
:1073C000FA95D2F7452F550F550B20D10F9007FC9A
:1073D00094C0089597FBF8D09F3738F0FEE9F91B69
:1073E000982F872F762F6B2F05C00BC19695879509
:1073F00077956795F150D0F73EF49095809570950C
:1074000061957F4F8F4F9F4F0895E89403C097FB7E
:107410000EF4F3DFB62F672F782F892F9EE9002413
:1074200079C0E0D09F3760F40EF0EBC09FEB80E8AE
:10743000772766270895869577956795B11D93956B
:107440009639C8F32EF4BB2319F06F5F7F4F8F4F2F
:10745000BB2760C05F77552319F444230AF072C03C
:107460002F933F934F935F932BDF5527442709D1E9
:107470005F914F913F912F9134C10ED05EF004C0C7
:107480000BD026F001C008D019F020F48FEF08953A
:1074900080E0089581E0089597FB092E052600F805
:1074A000689489D0E89407FC07C0621773078407C3
:1074B000950721F008F400940794989408951F9379
:1074C0009F7750EC49E43FE02BEDFBDD10E89F7720
:1074D0005FE349EC3FE02BED6217730784079507E4
:1074E00020F050EC49E4EDDD1127DDD19068EAE8A9
:1074F000F1E02BD091271F9108959B01AC019FE3F0
:1075000080E8772766270C9460399A95BB0F661F31
:10751000771F881F11249923A1F08823B2F79F3F7A
:1075200059F0BB0F48F421F4002011F460FF04C0AF
:107530006F5F7F4F8F4F9F4F881F9795879597F964
:1075400008955FC09FEF80EC0895FF92EF92DF9265
:10755000CF92BF926B017C01B59016D0B590BB2045
:1075600069F09F938F937F936F93B601C7010CD0FF
:107570002F913F914F915F910E946039BF90CF90C2
:10758000DF90EF90FF900895D1D102C09601A7013E
:10759000EF93FF930E94713BFF91EF91C7D1EF935F
:1075A000FF930E946138FF91EF91BA9479F70895A3
:1075B000052E092607FA440F551F5F3F79F0AA27C9
:1075C000A51708F051E04795880F991F9F3F31F0AC
:1075D000BB27B91708F091E0879508959F919F9177
:1075E0001124B0CF97FB880F991F9F3F31F0BB2725
:1075F000B91708F091E0879508959F919F91112404
:10760000A1CF66277727882799270895EBDF99234D
:1076100059F0AA27940FA51F43F032F04FEF50E026
:107620009417A50714F476CFECCF0EF089C183C16F
:1076300097FD88CFD7DF992309F484CFFF92EF928B
:10764000DF92CF92C92E9FE38F77E0EBF1E07DDFF1
:107650000C2CC92ED82EE72EF62E602D6E57770BE8
:10766000872F972FD4DE5FE341E332E728E139D05B
:107670005C2D4D2D3E2D2F2DCF90DF90EF90FF9064
:1076800020CDB0DFCF93DF93D52FC42F55274427CC
:10769000332722279923D9F09F37C8F0F92F3ADFF3
:1076A000592F482F372F262FF63968F493DEAFDE97
:1076B000C030CD0721F069937993899399939058BD
:1076C000DF91CF91FECC9927882777276627C03096
:1076D000CD0721F02993399349935993DF91CF91A5
:1076E00019CF66DF01D016CF992339F0552329F041
:1076F0009F575F57950F13F49AF186CF91589F3F8C
:10770000E1F3629FA12D0F92BB27639FA00DB11DD6
:10771000EE27729FA00DB11DEE1FAF93AA27649FA5
:10772000B00DE11D739FB00DE11DAA1F6627829F5A
:10773000B00DE11DA61F5527749FE00DA11D551F1B
:10774000839FE00DA11D561F849FA00D511D852F05
:107750007A2F6E2F1F900F9088231AF4939539F487
:10776000F1CE000C111CBB1F661F771F881F01285C
:1077700008953CD038F02ED060F186F021F436D058
:1077800009F03EF5DFCE5F934F933F932F9350DF89
:107790002F913F914F915F91A4DFD8CD27D098F3DF
:1077A00089F00894E795D901AA2329F4AB2FBE2FBD
:1077B000F85FD0F3E8CFFF5F30F7A695E0F7F73931
:1077C00008F309F09F779F939F77DDDFEF91E078D3
:1077D0009E270895E894FC01EE0FFF1F3096610587
:1077E000710519F0F395F14097FB0895E894FA01BB
:1077F000EE0FFF1F30962105310519F0F395F1408A
:1078000057FB08959F939F77993358F050E449ECC4
:107810003FE02BED1FDE5FEB49EC3FE02BED51DC51
:107820004EDE5F9150789527089597FD8BCE992372
:1078300009F40895482FD6DEF92FFF57F5959F1BC1
:107840009F1BFF9367DEFF92EF92DF92CF92BF9272
:10785000AF929F928F926B017C01405847953327DE
:10786000222740685FE3B601C70149015A010E941F
:1078700060399401A5010E9461384FEF5FEFC6DEC9
:107880009B01AC0182169306A406B50661F78F90A2
:107890009F90AF90BF90CF90DF90EF90FF905F915F
:1078A000A1DE950F37CE9B01AC010C94713B1F9369
:1078B000192F10789F77993398F150E449E43FE00D
:1078C0002BEDC8DD5FE349EC3FE02BED26173707D2
:1078D0004807590749F130F450E449E49068F1DB76
:1078E00050E815275FE349E43FE02BED2617370703
:1078F0004807590720F41395906849ECE2DB9F9301
:107900008F937F936F93CFDF9068E2EEF1E01DDEFF
:107910002F913F914F915F91E4DE10FF01C0EDDDAB
:1079200017FD90681F9108951F910CCE55914591B8
:107930003591259108959FEF80E870E060E008950B
:107940009FE780E870E060E00895629FD001739F38
:10795000F001829FE00DF11D649FE00DF11D929FEB
:10796000F00D839FF00D749FF00D659FF00D99272A
:10797000729FB00DE11DF91F639FB00DE11DF91F4E
:10798000BD01CF0111240895AA1BBB1B51E107C003
:10799000AA1FBB1FA617B70710F0A61BB70B881F9F
:1079A000991F5A95A9F780959095BC01CD0108952E
:1079B000A1E21A2EAA1BBB1BFD010DC0AA1FBB1FF3
